{"contracts/UPIBridge.sol":{"UPIBridge":{"abi":[{"inputs":[],"stateMutability":"nonpayable","type":"constructor"},{"inputs":[],"name":"InvalidAddress","type":"error"},{"inputs":[],"name":"InvalidAmount","type":"error"},{"inputs":[],"name":"OnlyAdmin","type":"error"},{"inputs":[],"name":"OnlyBackend","type":"error"},{"inputs":[],"name":"PayoutNotFound","type":"error"},{"anonymous":false,"inputs":[{"indexed":true,"internalType":"address","name":"oldBackend","type":"address"},{"indexed":true,"internalType":"address","name":"newBackend","type":"address"}],"name":"BackendUpdated","type":"event"},{"anonymous":false,"inputs":[{"indexed":true,"internalType":"bytes32","name":"payoutId","type":"bytes32"},{"indexed":true,"internalType":"address","name":"vaultAddress","type":"address"},{"indexed":true,"internalType":"address","name":"beneficiary","type":"address"},{"indexed":false,"internalType":"uint256","name":"usdcAmount","type":"uint256"},{"indexed":false,"internalType":"uint256","name":"inrAmount","type":"uint256"},{"indexed":false,"internalType":"string","name":"upiId","type":"string"}],"name":"PayoutRecorded","type":"event"},{"anonymous":false,"inputs":[{"indexed":true,"internalType":"bytes32","name":"payoutId","type":"bytes32"},{"indexed":false,"internalType":"enum UPIBridge.PayoutStatus","name":"oldStatus","type":"uint8"},{"indexed":false,"internalType":"enum UPIBridge.PayoutStatus","name":"newStatus","type":"uint8"},{"indexed":false,"internalType":"string","name":"razorpayPaymentId","type":"string"}],"name":"PayoutStatusUpdated","type":"event"},{"inputs":[],"name":"admin","outputs":[{"internalType":"address","name":"","type":"address"}],"stateMutability":"view","type":"function"},{"inputs":[],"name":"backend","outputs":[{"internalType":"address","name":"","type":"address"}],"stateMutability":"view","type":"function"},{"inputs":[{"internalType":"address","name":"","type":"address"},{"internalType":"uint256","name":"","type":"uint256"}],"name":"beneficiaryPayouts","outputs":[{"internalType":"bytes32","name":"","type":"bytes32"}],"stateMutability":"view","type":"function"},{"inputs":[{"internalType":"address","name":"_beneficiary","type":"address"}],"name":"getBeneficiaryPayouts","outputs":[{"internalType":"bytes32[]","name":"","type":"bytes32[]"}],"stateMutability":"view","type":"function"},{"inputs":[{"internalType":"bytes32","name":"_payoutId","type":"bytes32"}],"name":"getPayout","outputs":[{"components":[{"internalType":"address","name":"vaultAddress","type":"address"},{"internalType":"address","name":"beneficiary","type":"address"},{"internalType":"uint256","name":"usdcAmount","type":"uint256"},{"internalType":"uint256","name":"inrAmount","type":"uint256"},{"internalType":"string","name":"upiId","type":"string"},{"internalType":"string","name":"razorpayPaymentId","type":"string"},{"internalType":"uint256","name":"timestamp","type":"uint256"},{"internalType":"enum UPIBridge.PayoutStatus","name":"status","type":"uint8"}],"internalType":"struct UPIBridge.PayoutRecord","name":"","type":"tuple"}],"stateMutability":"view","type":"function"},{"inputs":[],"name":"getPendingPayoutsCount","outputs":[{"internalType":"uint256","name":"count","type":"uint256"}],"stateMutability":"view","type":"function"},{"inputs":[{"internalType":"address","name":"_vaultAddress","type":"address"}],"name":"getTaxReport","outputs":[{"internalType":"uint256","name":"totalPayouts","type":"uint256"},{"internalType":"uint256","name":"tdsAmount","type":"uint256"}],"stateMutability":"view","type":"function"},{"inputs":[{"internalType":"address","name":"_vaultAddress","type":"address"}],"name":"getVaultPayouts","outputs":[{"internalType":"bytes32[]","name":"","type":"bytes32[]"}],"stateMutability":"view","type":"function"},{"inputs":[{"internalType":"bytes32","name":"","type":"bytes32"}],"name":"payouts","outputs":[{"internalType":"address","name":"vaultAddress","type":"address"},{"internalType":"address","name":"beneficiary","type":"address"},{"internalType":"uint256","name":"usdcAmount","type":"uint256"},{"internalType":"uint256","name":"inrAmount","type":"uint256"},{"internalType":"string","name":"upiId","type":"string"},{"internalType":"string","name":"razorpayPaymentId","type":"string"},{"internalType":"uint256","name":"timestamp","type":"uint256"},{"internalType":"enum UPIBridge.PayoutStatus","name":"status","type":"uint8"}],"stateMutability":"view","type":"function"},{"inputs":[{"internalType":"address","name":"_vaultAddress","type":"address"},{"internalType":"address","name":"_beneficiary","type":"address"},{"internalType":"uint256","name":"_usdcAmount","type":"uint256"},{"internalType":"string","name":"_upiId","type":"string"}],"name":"recordPayout","outputs":[{"internalType":"bytes32","name":"payoutId","type":"bytes32"}],"stateMutability":"nonpayable","type":"function"},{"inputs":[{"internalType":"address","name":"_newBackend","type":"address"}],"name":"setBackend","outputs":[],"stateMutability":"nonpayable","type":"function"},{"inputs":[{"internalType":"address","name":"_newAdmin","type":"address"}],"name":"transferAdmin","outputs":[],"stateMutability":"nonpayable","type":"function"},{"inputs":[{"internalType":"bytes32","name":"_payoutId","type":"bytes32"},{"internalType":"enum UPIBridge.PayoutStatus","name":"_newStatus","type":"uint8"},{"internalType":"string","name":"_razorpayPaymentId","type":"string"}],"name":"updatePayoutStatus","outputs":[],"stateMutability":"nonpayable","type":"function"},{"inputs":[{"internalType":"address","name":"","type":"address"},{"internalType":"uint256","name":"","type":"uint256"}],"name":"vaultPayouts","outputs":[{"internalType":"bytes32","name":"","type":"bytes32"}],"stateMutability":"view","type":"function"}],"evm":{"bytecode":{"linkReferences":{},"object":"608060405234801561001057600080fd5b5060008054336001600160a01b031991821681178355600180549092161790556115a790819061004090396000f3fe608060405234801561001057600080fd5b50600436106100ea5760003560e01c80638e8364e51161008c578063ce4e07d911610066578063ce4e07d914610210578063da44eadf14610230578063da7fc24f14610237578063f851a4401461024a57600080fd5b80638e8364e5146101c35780639a109664146101d6578063aeddb905146101e957600080fd5b8063365e7e98116100c8578063365e7e981461016057806348b0a5ac1461017557806364362c881461018857806375829def146101b057600080fd5b8063099e4133146100ef57806314fa752f1461011f57806319f687a114610140575b600080fd5b600154610102906001600160a01b031681565b6040516001600160a01b0390911681526020015b60405180910390f35b61013261012d366004610f2c565b61025d565b604051908152602001610116565b61015361014e366004610f9b565b610553565b6040516101169190610fbd565b61017361016e366004611001565b6105bf565b005b610153610183366004610f9b565b6106bd565b61019b610196366004610f9b565b610727565b60408051928352602083019190915201610116565b6101736101be366004610f9b565b6109d6565b6101326101d1366004611061565b610a4a565b6101326101e4366004611061565b610a7b565b6101fc6101f736600461108b565b610a97565b604051610116989796959493929190611122565b61022361021e36600461108b565b610bfd565b6040516101169190611194565b6000610132565b610173610245366004610f9b565b610dbc565b600054610102906001600160a01b031681565b6001546000906001600160a01b0316331480159061028657506000546001600160a01b03163314155b156102a457604051636bbaa1c160e01b815260040160405180910390fd5b6001600160a01b03861615806102c157506001600160a01b038516155b156102df5760405163e6c4247b60e01b815260040160405180910390fd5b836000036103005760405163162908e360e11b815260040160405180910390fd5b600580549060006103108361124f565b90915550506005546040516bffffffffffffffffffffffff19606089811b8216602084015288901b16603482015260488101869052426068820152608881019190915260a801604051602081830303815290604052805190602001209050600084605361037d9190611268565b9050604051806101000160405280886001600160a01b03168152602001876001600160a01b0316815260200186815260200182815260200185858080601f016020809104026020016040519081016040528093929190818152602001838380828437600092018290525093855250506040805160208181018352848252850152429084015250606090910152600083815260026020818152604092839020845181546001600160a01b03199081166001600160a01b0392831617835592860151600183018054909416911617909155918301519082015560608201516003820155608082015160048201906104729082611324565b5060a082015160058201906104879082611324565b5060c0820151600682015560e082015160078201805460ff191660018360038111156104b5576104b56110ea565b021790555050506001600160a01b03808816600081815260036020908152604080832080546001818101835591855283852001889055948b1680845260048352818420805496870181558452919092209093018590555184907fcf9f2e570a1e9c0ebb1344afe177ed0844273b1cab8ff594ffaa89a3712f556890610541908a9087908b908b9061140d565b60405180910390a45095945050505050565b6001600160a01b0381166000908152600360209081526040918290208054835181840281018401909452808452606093928301828280156105b357602002820191906000526020600020905b81548152602001906001019080831161059f575b50505050509050919050565b6001546001600160a01b031633148015906105e557506000546001600160a01b03163314155b1561060357604051636bbaa1c160e01b815260040160405180910390fd5b6000848152600260205260408120600681015490910361063657604051631c4ba4f560e31b815260040160405180910390fd5b60078101805460ff811691869160ff1916600183600381111561065b5761065b6110ea565b021790555082156106775760058201610675848683611437565b505b857f329b2738f5bc357edaff38491b3416165306e9f3ff65470cbd2e9a9c2e9cee56828787876040516106ad94939291906114f8565b60405180910390a2505050505050565b6001600160a01b0381166000908152600460209081526040918290208054835181840281018401909452808452606093928301828280156105b3576020028201919060005260206000209081548152602001906001019080831161059f5750505050509050919050565b6001600160a01b038116600090815260036020908152604080832080548251818502810185019093528083528493849392919083018282801561078957602002820191906000526020600020905b815481526020019060010190808311610775575b5050505050905060005b81518110156109b5576000600260008484815181106107b4576107b4611526565b602090810291909101810151825281810192909252604090810160002081516101008101835281546001600160a01b03908116825260018301541693810193909352600281015491830191909152600381015460608301526004810180546080840191906108219061129b565b80601f016020809104026020016040519081016040528092919081815260200182805461084d9061129b565b801561089a5780601f1061086f5761010080835404028352916020019161089a565b820191906000526020600020905b81548152906001019060200180831161087d57829003601f168201915b505050505081526020016005820180546108b39061129b565b80601f01602080910402602001604051908101604052809291908181526020018280546108df9061129b565b801561092c5780601f106109015761010080835404028352916020019161092c565b820191906000526020600020905b81548152906001019060200180831161090f57829003601f168201915b505050918352505060068201546020820152600782015460409091019060ff16600381111561095d5761095d6110ea565b600381111561096e5761096e6110ea565b905250905060028160e00151600381111561098b5761098b6110ea565b036109a257606081015161099f908661153c565b94505b50806109ad8161124f565b915050610793565b506127106109c4846064611268565b6109ce919061154f565b915050915091565b6000546001600160a01b03163314610a0157604051634755657960e01b815260040160405180910390fd5b6001600160a01b038116610a285760405163e6c4247b60e01b815260040160405180910390fd5b600080546001600160a01b0319166001600160a01b0392909216919091179055565b60046020528160005260406000208181548110610a6657600080fd5b90600052602060002001600091509150505481565b60036020528160005260406000208181548110610a6657600080fd5b6002602081905260009182526040909120805460018201549282015460038301546004840180546001600160a01b0394851696909416949293919291610adc9061129b565b80601f0160208091040260200160405190810160405280929190818152602001828054610b089061129b565b8015610b555780601f10610b2a57610100808354040283529160200191610b55565b820191906000526020600020905b815481529060010190602001808311610b3857829003601f168201915b505050505090806005018054610b6a9061129b565b80601f0160208091040260200160405190810160405280929190818152602001828054610b969061129b565b8015610be35780601f10610bb857610100808354040283529160200191610be3565b820191906000526020600020905b815481529060010190602001808311610bc657829003601f168201915b50505050600683015460079093015491929160ff16905088565b610c05610e60565b60008281526002602081815260409283902083516101008101855281546001600160a01b03908116825260018301541692810192909252918201549281019290925260038101546060830152600481018054608084019190610c669061129b565b80601f0160208091040260200160405190810160405280929190818152602001828054610c929061129b565b8015610cdf5780601f10610cb457610100808354040283529160200191610cdf565b820191906000526020600020905b815481529060010190602001808311610cc257829003601f168201915b50505050508152602001600582018054610cf89061129b565b80601f0160208091040260200160405190810160405280929190818152602001828054610d249061129b565b8015610d715780601f10610d4657610100808354040283529160200191610d71565b820191906000526020600020905b815481529060010190602001808311610d5457829003601f168201915b505050918352505060068201546020820152600782015460409091019060ff166003811115610da257610da26110ea565b6003811115610db357610db36110ea565b90525092915050565b6000546001600160a01b03163314610de757604051634755657960e01b815260040160405180910390fd5b6001600160a01b038116610e0e5760405163e6c4247b60e01b815260040160405180910390fd5b600180546001600160a01b038381166001600160a01b0319831681179093556040519116919082907f37f6c561371bb449a598aaf7e5528fc87ad233e82669756cd67fec9c5f665a7b90600090a35050565b60405180610100016040528060006001600160a01b0316815260200160006001600160a01b03168152602001600081526020016000815260200160608152602001606081526020016000815260200160006003811115610ec257610ec26110ea565b905290565b80356001600160a01b0381168114610ede57600080fd5b919050565b60008083601f840112610ef557600080fd5b50813567ffffffffffffffff811115610f0d57600080fd5b602083019150836020828501011115610f2557600080fd5b9250929050565b600080600080600060808688031215610f4457600080fd5b610f4d86610ec7565b9450610f5b60208701610ec7565b935060408601359250606086013567ffffffffffffffff811115610f7e57600080fd5b610f8a88828901610ee3565b969995985093965092949392505050565b600060208284031215610fad57600080fd5b610fb682610ec7565b9392505050565b6020808252825182820181905260009190848201906040850190845b81811015610ff557835183529284019291840191600101610fd9565b50909695505050505050565b6000806000806060858703121561101757600080fd5b8435935060208501356004811061102d57600080fd5b9250604085013567ffffffffffffffff81111561104957600080fd5b61105587828801610ee3565b95989497509550505050565b6000806040838503121561107457600080fd5b61107d83610ec7565b946020939093013593505050565b60006020828403121561109d57600080fd5b5035919050565b6000815180845260005b818110156110ca576020818501810151868301820152016110ae565b506000602082860101526020601f19601f83011685010191505092915050565b634e487b7160e01b600052602160045260246000fd5b6004811061111e57634e487b7160e01b600052602160045260246000fd5b9052565b6001600160a01b0389811682528816602082015260408101879052606081018690526101006080820181905260009061115d838201886110a4565b905082810360a084015261117181876110a4565b9150508360c083015261118760e0830184611100565b9998505050505050505050565b602080825282516001600160a01b0316828201528201516000906111c360408401826001600160a01b03169052565b50604083015160608301526060830151608083015260808301516101008060a08501526111f46101208501836110a4565b915060a0850151601f198584030160c086015261121183826110a4565b92505060c085015160e085015260e085015161122f82860182611100565b5090949350505050565b634e487b7160e01b600052601160045260246000fd5b60006001820161126157611261611239565b5060010190565b808202811582820484141761127f5761127f611239565b92915050565b634e487b7160e01b600052604160045260246000fd5b600181811c908216806112af57607f821691505b6020821081036112cf57634e487b7160e01b600052602260045260246000fd5b50919050565b601f82111561131f57600081815260208120601f850160051c810160208610156112fc5750805b601f850160051c820191505b8181101561131b57828155600101611308565b5050505b505050565b815167ffffffffffffffff81111561133e5761133e611285565b6113528161134c845461129b565b846112d5565b602080601f831160018114611387576000841561136f5750858301515b600019600386901b1c1916600185901b17855561131b565b600085815260208120601f198616915b828110156113b657888601518255948401946001909101908401611397565b50858210156113d45787850151600019600388901b60f8161c191681555b5050505050600190811b01905550565b81835281816020850137506000828201602090810191909152601f909101601f19169091010190565b84815283602082015260606040820152600061142d6060830184866113e4565b9695505050505050565b67ffffffffffffffff83111561144f5761144f611285565b6114638361145d835461129b565b836112d5565b6000601f841160018114611497576000851561147f5750838201355b600019600387901b1c1916600186901b1783556114f1565b600083815260209020601f19861690835b828110156114c857868501358255602094850194600190920191016114a8565b50868210156114e55760001960f88860031b161c19848701351681555b505060018560011b0183555b5050505050565b6115028186611100565b61150f6020820185611100565b60606040820152600061142d6060830184866113e4565b634e487b7160e01b600052603260045260246000fd5b8082018082111561127f5761127f611239565b60008261156c57634e487b7160e01b600052601260045260246000fd5b50049056fea264697066735822122047579ab2774a6b050e16373ac25d61fd58932a56af3434c180aa938a3fce61c464736f6c63430008140033","opcodes":"PUSH1 0x80 PUSH1 0x40 MSTORE CALLVALUE DUP1 ISZERO PUSH2 0x10 JUMPI PUSH1 0x0 DUP1 REVERT JUMPDEST POP PUSH1 0x0 DUP1 SLOAD CALLER PUSH1 0x1 PUSH1 0x1 PUSH1 0xA0 SHL SUB NOT SWAP2 DUP3 AND DUP2 OR DUP4 SSTORE PUSH1 0x1 DUP1 SLOAD SWAP1 SWAP3 AND OR SWAP1 SSTORE PUSH2 0x15A7 SWAP1 DUP2 SWAP1 PUSH2 0x40 SWAP1 CODECOPY PUSH1 0x0 RETURN INVALID PUSH1 0x80 PUSH1 0x40 MSTORE CALLVALUE DUP1 ISZERO PUSH2 0x10 JUMPI PUSH1 0x0 DUP1 REVERT JUMPDEST POP PUSH1 0x4 CALLDATASIZE LT PUSH2 0xEA JUMPI PUSH1 0x0 CALLDATALOAD PUSH1 0xE0 SHR DUP1 PUSH4 0x8E8364E5 GT PUSH2 0x8C JUMPI DUP1 PUSH4 0xCE4E07D9 GT PUSH2 0x66 JUMPI DUP1 PUSH4 0xCE4E07D9 EQ PUSH2 0x210 JUMPI DUP1 PUSH4 0xDA44EADF EQ PUSH2 0x230 JUMPI DUP1 PUSH4 0xDA7FC24F EQ PUSH2 0x237 JUMPI DUP1 PUSH4 0xF851A440 EQ PUSH2 0x24A JUMPI PUSH1 0x0 DUP1 REVERT JUMPDEST DUP1 PUSH4 0x8E8364E5 EQ PUSH2 0x1C3 JUMPI DUP1 PUSH4 0x9A109664 EQ PUSH2 0x1D6 JUMPI DUP1 PUSH4 0xAEDDB905 EQ PUSH2 0x1E9 JUMPI PUSH1 0x0 DUP1 REVERT JUMPDEST DUP1 PUSH4 0x365E7E98 GT PUSH2 0xC8 JUMPI DUP1 PUSH4 0x365E7E98 EQ PUSH2 0x160 JUMPI DUP1 PUSH4 0x48B0A5AC EQ PUSH2 0x175 JUMPI DUP1 PUSH4 0x64362C88 EQ PUSH2 0x188 JUMPI DUP1 PUSH4 0x75829DEF EQ PUSH2 0x1B0 JUMPI PUSH1 0x0 DUP1 REVERT JUMPDEST DUP1 PUSH4 0x99E4133 EQ PUSH2 0xEF JUMPI DUP1 PUSH4 0x14FA752F EQ PUSH2 0x11F JUMPI DUP1 PUSH4 0x19F687A1 EQ PUSH2 0x140 JUMPI JUMPDEST PUSH1 0x0 DUP1 REVERT JUMPDEST PUSH1 0x1 SLOAD PUSH2 0x102 SWAP1 PUSH1 0x1 PUSH1 0x1 PUSH1 0xA0 SHL SUB AND DUP2 JUMP JUMPDEST PUSH1 0x40 MLOAD PUSH1 0x1 PUSH1 0x1 PUSH1 0xA0 SHL SUB SWAP1 SWAP2 AND DUP2 MSTORE PUSH1 0x20 ADD JUMPDEST PUSH1 0x40 MLOAD DUP1 SWAP2 SUB SWAP1 RETURN JUMPDEST PUSH2 0x132 PUSH2 0x12D CALLDATASIZE PUSH1 0x4 PUSH2 0xF2C JUMP JUMPDEST PUSH2 0x25D JUMP JUMPDEST PUSH1 0x40 MLOAD SWAP1 DUP2 MSTORE PUSH1 0x20 ADD PUSH2 0x116 JUMP JUMPDEST PUSH2 0x153 PUSH2 0x14E CALLDATASIZE PUSH1 0x4 PUSH2 0xF9B JUMP JUMPDEST PUSH2 0x553 JUMP JUMPDEST PUSH1 0x40 MLOAD PUSH2 0x116 SWAP2 SWAP1 PUSH2 0xFBD JUMP JUMPDEST PUSH2 0x173 PUSH2 0x16E CALLDATASIZE PUSH1 0x4 PUSH2 0x1001 JUMP JUMPDEST PUSH2 0x5BF JUMP JUMPDEST STOP JUMPDEST PUSH2 0x153 PUSH2 0x183 CALLDATASIZE PUSH1 0x4 PUSH2 0xF9B JUMP JUMPDEST PUSH2 0x6BD JUMP JUMPDEST PUSH2 0x19B PUSH2 0x196 CALLDATASIZE PUSH1 0x4 PUSH2 0xF9B JUMP JUMPDEST PUSH2 0x727 JUMP JUMPDEST PUSH1 0x40 DUP1 MLOAD SWAP3 DUP4 MSTORE PUSH1 0x20 DUP4 ADD SWAP2 SWAP1 SWAP2 MSTORE ADD PUSH2 0x116 JUMP JUMPDEST PUSH2 0x173 PUSH2 0x1BE CALLDATASIZE PUSH1 0x4 PUSH2 0xF9B JUMP JUMPDEST PUSH2 0x9D6 JUMP JUMPDEST PUSH2 0x132 PUSH2 0x1D1 CALLDATASIZE PUSH1 0x4 PUSH2 0x1061 JUMP JUMPDEST PUSH2 0xA4A JUMP JUMPDEST PUSH2 0x132 PUSH2 0x1E4 CALLDATASIZE PUSH1 0x4 PUSH2 0x1061 JUMP JUMPDEST PUSH2 0xA7B JUMP JUMPDEST PUSH2 0x1FC PUSH2 0x1F7 CALLDATASIZE PUSH1 0x4 PUSH2 0x108B JUMP JUMPDEST PUSH2 0xA97 JUMP JUMPDEST PUSH1 0x40 MLOAD PUSH2 0x116 SWAP9 SWAP8 SWAP7 SWAP6 SWAP5 SWAP4 SWAP3 SWAP2 SWAP1 PUSH2 0x1122 JUMP JUMPDEST PUSH2 0x223 PUSH2 0x21E CALLDATASIZE PUSH1 0x4 PUSH2 0x108B JUMP JUMPDEST PUSH2 0xBFD JUMP JUMPDEST PUSH1 0x40 MLOAD PUSH2 0x116 SWAP2 SWAP1 PUSH2 0x1194 JUMP JUMPDEST PUSH1 0x0 PUSH2 0x132 JUMP JUMPDEST PUSH2 0x173 PUSH2 0x245 CALLDATASIZE PUSH1 0x4 PUSH2 0xF9B JUMP JUMPDEST PUSH2 0xDBC JUMP JUMPDEST PUSH1 0x0 SLOAD PUSH2 0x102 SWAP1 PUSH1 0x1 PUSH1 0x1 PUSH1 0xA0 SHL SUB AND DUP2 JUMP JUMPDEST PUSH1 0x1 SLOAD PUSH1 0x0 SWAP1 PUSH1 0x1 PUSH1 0x1 PUSH1 0xA0 SHL SUB AND CALLER EQ DUP1 ISZERO SWAP1 PUSH2 0x286 JUMPI POP PUSH1 0x0 SLOAD PUSH1 0x1 PUSH1 0x1 PUSH1 0xA0 SHL SUB AND CALLER EQ ISZERO JUMPDEST ISZERO PUSH2 0x2A4 JUMPI PUSH1 0x40 MLOAD PUSH4 0x6BBAA1C1 PUSH1 0xE0 SHL DUP2 MSTORE PUSH1 0x4 ADD PUSH1 0x40 MLOAD DUP1 SWAP2 SUB SWAP1 REVERT JUMPDEST PUSH1 0x1 PUSH1 0x1 PUSH1 0xA0 SHL SUB DUP7 AND ISZERO DUP1 PUSH2 0x2C1 JUMPI POP PUSH1 0x1 PUSH1 0x1 PUSH1 0xA0 SHL SUB DUP6 AND ISZERO JUMPDEST ISZERO PUSH2 0x2DF JUMPI PUSH1 0x40 MLOAD PUSH4 0xE6C4247B PUSH1 0xE0 SHL DUP2 MSTORE PUSH1 0x4 ADD PUSH1 0x40 MLOAD DUP1 SWAP2 SUB SWAP1 REVERT JUMPDEST DUP4 PUSH1 0x0 SUB PUSH2 0x300 JUMPI PUSH1 0x40 MLOAD PUSH4 0x162908E3 PUSH1 0xE1 SHL DUP2 MSTORE PUSH1 0x4 ADD PUSH1 0x40 MLOAD DUP1 SWAP2 SUB SWAP1 REVERT JUMPDEST PUSH1 0x5 DUP1 SLOAD SWAP1 PUSH1 0x0 PUSH2 0x310 DUP4 PUSH2 0x124F JUMP JUMPDEST SWAP1 SWAP2 SSTORE POP POP PUSH1 0x5 SLOAD PUSH1 0x40 MLOAD PUSH12 0xFFFFFFFFFFFFFFFFFFFFFFFF NOT PUSH1 0x60 DUP10 DUP2 SHL DUP3 AND PUSH1 0x20 DUP5 ADD MSTORE DUP9 SWAP1 SHL AND PUSH1 0x34 DUP3 ADD MSTORE PUSH1 0x48 DUP2 ADD DUP7 SWAP1 MSTORE TIMESTAMP PUSH1 0x68 DUP3 ADD MSTORE PUSH1 0x88 DUP2 ADD SWAP2 SWAP1 SWAP2 MSTORE PUSH1 0xA8 ADD PUSH1 0x40 MLOAD PUSH1 0x20 DUP2 DUP4 SUB SUB DUP2 MSTORE SWAP1 PUSH1 0x40 MSTORE DUP1 MLOAD SWAP1 PUSH1 0x20 ADD KECCAK256 SWAP1 POP PUSH1 0x0 DUP5 PUSH1 0x53 PUSH2 0x37D SWAP2 SWAP1 PUSH2 0x1268 JUMP JUMPDEST SWAP1 POP PUSH1 0x40 MLOAD DUP1 PUSH2 0x100 ADD PUSH1 0x40 MSTORE DUP1 DUP9 PUSH1 0x1 PUSH1 0x1 PUSH1 0xA0 SHL SUB AND DUP2 MSTORE PUSH1 0x20 ADD DUP8 PUSH1 0x1 PUSH1 0x1 PUSH1 0xA0 SHL SUB AND DUP2 MSTORE PUSH1 0x20 ADD DUP7 DUP2 MSTORE PUSH1 0x20 ADD DUP3 DUP2 MSTORE PUSH1 0x20 ADD DUP6 DUP6 DUP1 DUP1 PUSH1 0x1F ADD PUSH1 0x20 DUP1 SWAP2 DIV MUL PUSH1 0x20 ADD PUSH1 0x40 MLOAD SWAP1 DUP2 ADD PUSH1 0x40 MSTORE DUP1 SWAP4 SWAP3 SWAP2 SWAP1 DUP2 DUP2 MSTORE PUSH1 0x20 ADD DUP4 DUP4 DUP1 DUP3 DUP5 CALLDATACOPY PUSH1 0x0 SWAP3 ADD DUP3 SWAP1 MSTORE POP SWAP4 DUP6 MSTORE POP POP PUSH1 0x40 DUP1 MLOAD PUSH1 0x20 DUP2 DUP2 ADD DUP4 MSTORE DUP5 DUP3 MSTORE DUP6 ADD MSTORE TIMESTAMP SWAP1 DUP5 ADD MSTORE POP PUSH1 0x60 SWAP1 SWAP2 ADD MSTORE PUSH1 0x0 DUP4 DUP2 MSTORE PUSH1 0x2 PUSH1 0x20 DUP2 DUP2 MSTORE PUSH1 0x40 SWAP3 DUP4 SWAP1 KECCAK256 DUP5 MLOAD DUP2 SLOAD PUSH1 0x1 PUSH1 0x1 PUSH1 0xA0 SHL SUB NOT SWAP1 DUP2 AND PUSH1 0x1 PUSH1 0x1 PUSH1 0xA0 SHL SUB SWAP3 DUP4 AND OR DUP4 SSTORE SWAP3 DUP7 ADD MLOAD PUSH1 0x1 DUP4 ADD DUP1 SLOAD SWAP1 SWAP5 AND SWAP2 AND OR SWAP1 SWAP2 SSTORE SWAP2 DUP4 ADD MLOAD SWAP1 DUP3 ADD SSTORE PUSH1 0x60 DUP3 ADD MLOAD PUSH1 0x3 DUP3 ADD SSTORE PUSH1 0x80 DUP3 ADD MLOAD PUSH1 0x4 DUP3 ADD SWAP1 PUSH2 0x472 SWAP1 DUP3 PUSH2 0x1324 JUMP JUMPDEST POP PUSH1 0xA0 DUP3 ADD MLOAD PUSH1 0x5 DUP3 ADD SWAP1 PUSH2 0x487 SWAP1 DUP3 PUSH2 0x1324 JUMP JUMPDEST POP PUSH1 0xC0 DUP3 ADD MLOAD PUSH1 0x6 DUP3 ADD SSTORE PUSH1 0xE0 DUP3 ADD MLOAD PUSH1 0x7 DUP3 ADD DUP1 SLOAD PUSH1 0xFF NOT AND PUSH1 0x1 DUP4 PUSH1 0x3 DUP2 GT ISZERO PUSH2 0x4B5 JUMPI PUSH2 0x4B5 PUSH2 0x10EA JUMP JUMPDEST MUL OR SWAP1 SSTORE POP POP POP PUSH1 0x1 PUSH1 0x1 PUSH1 0xA0 SHL SUB DUP1 DUP9 AND PUSH1 0x0 DUP2 DUP2 MSTORE PUSH1 0x3 PUSH1 0x20 SWAP1 DUP2 MSTORE PUSH1 0x40 DUP1 DUP4 KECCAK256 DUP1 SLOAD PUSH1 0x1 DUP2 DUP2 ADD DUP4 SSTORE SWAP2 DUP6 MSTORE DUP4 DUP6 KECCAK256 ADD DUP9 SWAP1 SSTORE SWAP5 DUP12 AND DUP1 DUP5 MSTORE PUSH1 0x4 DUP4 MSTORE DUP2 DUP5 KECCAK256 DUP1 SLOAD SWAP7 DUP8 ADD DUP2 SSTORE DUP5 MSTORE SWAP2 SWAP1 SWAP3 KECCAK256 SWAP1 SWAP4 ADD DUP6 SWAP1 SSTORE MLOAD DUP5 SWAP1 PUSH32 0xCF9F2E570A1E9C0EBB1344AFE177ED0844273B1CAB8FF594FFAA89A3712F5568 SWAP1 PUSH2 0x541 SWAP1 DUP11 SWAP1 DUP8 SWAP1 DUP12 SWAP1 DUP12 SWAP1 PUSH2 0x140D JUMP JUMPDEST PUSH1 0x40 MLOAD DUP1 SWAP2 SUB SWAP1 LOG4 POP SWAP6 SWAP5 POP POP POP POP POP JUMP JUMPDEST PUSH1 0x1 PUSH1 0x1 PUSH1 0xA0 SHL SUB DUP2 AND PUSH1 0x0 SWAP1 DUP2 MSTORE PUSH1 0x3 PUSH1 0x20 SWAP1 DUP2 MSTORE PUSH1 0x40 SWAP2 DUP3 SWAP1 KECCAK256 DUP1 SLOAD DUP4 MLOAD DUP2 DUP5 MUL DUP2 ADD DUP5 ADD SWAP1 SWAP5 MSTORE DUP1 DUP5 MSTORE PUSH1 0x60 SWAP4 SWAP3 DUP4 ADD DUP3 DUP3 DUP1 ISZERO PUSH2 0x5B3 JUMPI PUSH1 0x20 MUL DUP3 ADD SWAP2 SWAP1 PUSH1 0x0 MSTORE PUSH1 0x20 PUSH1 0x0 KECCAK256 SWAP1 JUMPDEST DUP2 SLOAD DUP2 MSTORE PUSH1 0x20 ADD SWAP1 PUSH1 0x1 ADD SWAP1 DUP1 DUP4 GT PUSH2 0x59F JUMPI JUMPDEST POP POP POP POP POP SWAP1 POP SWAP2 SWAP1 POP JUMP JUMPDEST PUSH1 0x1 SLOAD PUSH1 0x1 PUSH1 0x1 PUSH1 0xA0 SHL SUB AND CALLER EQ DUP1 ISZERO SWAP1 PUSH2 0x5E5 JUMPI POP PUSH1 0x0 SLOAD PUSH1 0x1 PUSH1 0x1 PUSH1 0xA0 SHL SUB AND CALLER EQ ISZERO JUMPDEST ISZERO PUSH2 0x603 JUMPI PUSH1 0x40 MLOAD PUSH4 0x6BBAA1C1 PUSH1 0xE0 SHL DUP2 MSTORE PUSH1 0x4 ADD PUSH1 0x40 MLOAD DUP1 SWAP2 SUB SWAP1 REVERT JUMPDEST PUSH1 0x0 DUP5 DUP2 MSTORE PUSH1 0x2 PUSH1 0x20 MSTORE PUSH1 0x40 DUP2 KECCAK256 PUSH1 0x6 DUP2 ADD SLOAD SWAP1 SWAP2 SUB PUSH2 0x636 JUMPI PUSH1 0x40 MLOAD PUSH4 0x1C4BA4F5 PUSH1 0xE3 SHL DUP2 MSTORE PUSH1 0x4 ADD PUSH1 0x40 MLOAD DUP1 SWAP2 SUB SWAP1 REVERT JUMPDEST PUSH1 0x7 DUP2 ADD DUP1 SLOAD PUSH1 0xFF DUP2 AND SWAP2 DUP7 SWAP2 PUSH1 0xFF NOT AND PUSH1 0x1 DUP4 PUSH1 0x3 DUP2 GT ISZERO PUSH2 0x65B JUMPI PUSH2 0x65B PUSH2 0x10EA JUMP JUMPDEST MUL OR SWAP1 SSTORE POP DUP3 ISZERO PUSH2 0x677 JUMPI PUSH1 0x5 DUP3 ADD PUSH2 0x675 DUP5 DUP7 DUP4 PUSH2 0x1437 JUMP JUMPDEST POP JUMPDEST DUP6 PUSH32 0x329B2738F5BC357EDAFF38491B3416165306E9F3FF65470CBD2E9A9C2E9CEE56 DUP3 DUP8 DUP8 DUP8 PUSH1 0x40 MLOAD PUSH2 0x6AD SWAP5 SWAP4 SWAP3 SWAP2 SWAP1 PUSH2 0x14F8 JUMP JUMPDEST PUSH1 0x40 MLOAD DUP1 SWAP2 SUB SWAP1 LOG2 POP POP POP POP POP POP JUMP JUMPDEST PUSH1 0x1 PUSH1 0x1 PUSH1 0xA0 SHL SUB DUP2 AND PUSH1 0x0 SWAP1 DUP2 MSTORE PUSH1 0x4 PUSH1 0x20 SWAP1 DUP2 MSTORE PUSH1 0x40 SWAP2 DUP3 SWAP1 KECCAK256 DUP1 SLOAD DUP4 MLOAD DUP2 DUP5 MUL DUP2 ADD DUP5 ADD SWAP1 SWAP5 MSTORE DUP1 DUP5 MSTORE PUSH1 0x60 SWAP4 SWAP3 DUP4 ADD DUP3 DUP3 DUP1 ISZERO PUSH2 0x5B3 JUMPI PUSH1 0x20 MUL DUP3 ADD SWAP2 SWAP1 PUSH1 0x0 MSTORE PUSH1 0x20 PUSH1 0x0 KECCAK256 SWAP1 DUP2 SLOAD DUP2 MSTORE PUSH1 0x20 ADD SWAP1 PUSH1 0x1 ADD SWAP1 DUP1 DUP4 GT PUSH2 0x59F JUMPI POP POP POP POP POP SWAP1 POP SWAP2 SWAP1 POP JUMP JUMPDEST PUSH1 0x1 PUSH1 0x1 PUSH1 0xA0 SHL SUB DUP2 AND PUSH1 0x0 SWAP1 DUP2 MSTORE PUSH1 0x3 PUSH1 0x20 SWAP1 DUP2 MSTORE PUSH1 0x40 DUP1 DUP4 KECCAK256 DUP1 SLOAD DUP3 MLOAD DUP2 DUP6 MUL DUP2 ADD DUP6 ADD SWAP1 SWAP4 MSTORE DUP1 DUP4 MSTORE DUP5 SWAP4 DUP5 SWAP4 SWAP3 SWAP2 SWAP1 DUP4 ADD DUP3 DUP3 DUP1 ISZERO PUSH2 0x789 JUMPI PUSH1 0x20 MUL DUP3 ADD SWAP2 SWAP1 PUSH1 0x0 MSTORE PUSH1 0x20 PUSH1 0x0 KECCAK256 SWAP1 JUMPDEST DUP2 SLOAD DUP2 MSTORE PUSH1 0x20 ADD SWAP1 PUSH1 0x1 ADD SWAP1 DUP1 DUP4 GT PUSH2 0x775 JUMPI JUMPDEST POP POP POP POP POP SWAP1 POP PUSH1 0x0 JUMPDEST DUP2 MLOAD DUP2 LT ISZERO PUSH2 0x9B5 JUMPI PUSH1 0x0 PUSH1 0x2 PUSH1 0x0 DUP5 DUP5 DUP2 MLOAD DUP2 LT PUSH2 0x7B4 JUMPI PUSH2 0x7B4 PUSH2 0x1526 JUMP JUMPDEST PUSH1 0x20 SWAP1 DUP2 MUL SWAP2 SWAP1 SWAP2 ADD DUP2 ADD MLOAD DUP3 MSTORE DUP2 DUP2 ADD SWAP3 SWAP1 SWAP3 MSTORE PUSH1 0x40 SWAP1 DUP2 ADD PUSH1 0x0 KECCAK256 DUP2 MLOAD PUSH2 0x100 DUP2 ADD DUP4 MSTORE DUP2 SLOAD PUSH1 0x1 PUSH1 0x1 PUSH1 0xA0 SHL SUB SWAP1 DUP2 AND DUP3 MSTORE PUSH1 0x1 DUP4 ADD SLOAD AND SWAP4 DUP2 ADD SWAP4 SWAP1 SWAP4 MSTORE PUSH1 0x2 DUP2 ADD SLOAD SWAP2 DUP4 ADD SWAP2 SWAP1 SWAP2 MSTORE PUSH1 0x3 DUP2 ADD SLOAD PUSH1 0x60 DUP4 ADD MSTORE PUSH1 0x4 DUP2 ADD DUP1 SLOAD PUSH1 0x80 DUP5 ADD SWAP2 SWAP1 PUSH2 0x821 SWAP1 PUSH2 0x129B JUMP JUMPDEST DUP1 PUSH1 0x1F ADD PUSH1 0x20 DUP1 SWAP2 DIV MUL PUSH1 0x20 ADD PUSH1 0x40 MLOAD SWAP1 DUP2 ADD PUSH1 0x40 MSTORE DUP1 SWAP3 SWAP2 SWAP1 DUP2 DUP2 MSTORE PUSH1 0x20 ADD DUP3 DUP1 SLOAD PUSH2 0x84D SWAP1 PUSH2 0x129B JUMP JUMPDEST DUP1 ISZERO PUSH2 0x89A JUMPI DUP1 PUSH1 0x1F LT PUSH2 0x86F JUMPI PUSH2 0x100 DUP1 DUP4 SLOAD DIV MUL DUP4 MSTORE SWAP2 PUSH1 0x20 ADD SWAP2 PUSH2 0x89A JUMP JUMPDEST DUP3 ADD SWAP2 SWAP1 PUSH1 0x0 MSTORE PUSH1 0x20 PUSH1 0x0 KECCAK256 SWAP1 JUMPDEST DUP2 SLOAD DUP2 MSTORE SWAP1 PUSH1 0x1 ADD SWAP1 PUSH1 0x20 ADD DUP1 DUP4 GT PUSH2 0x87D JUMPI DUP3 SWAP1 SUB PUSH1 0x1F AND DUP3 ADD SWAP2 JUMPDEST POP POP POP POP POP DUP2 MSTORE PUSH1 0x20 ADD PUSH1 0x5 DUP3 ADD DUP1 SLOAD PUSH2 0x8B3 SWAP1 PUSH2 0x129B JUMP JUMPDEST DUP1 PUSH1 0x1F ADD PUSH1 0x20 DUP1 SWAP2 DIV MUL PUSH1 0x20 ADD PUSH1 0x40 MLOAD SWAP1 DUP2 ADD PUSH1 0x40 MSTORE DUP1 SWAP3 SWAP2 SWAP1 DUP2 DUP2 MSTORE PUSH1 0x20 ADD DUP3 DUP1 SLOAD PUSH2 0x8DF SWAP1 PUSH2 0x129B JUMP JUMPDEST DUP1 ISZERO PUSH2 0x92C JUMPI DUP1 PUSH1 0x1F LT PUSH2 0x901 JUMPI PUSH2 0x100 DUP1 DUP4 SLOAD DIV MUL DUP4 MSTORE SWAP2 PUSH1 0x20 ADD SWAP2 PUSH2 0x92C JUMP JUMPDEST DUP3 ADD SWAP2 SWAP1 PUSH1 0x0 MSTORE PUSH1 0x20 PUSH1 0x0 KECCAK256 SWAP1 JUMPDEST DUP2 SLOAD DUP2 MSTORE SWAP1 PUSH1 0x1 ADD SWAP1 PUSH1 0x20 ADD DUP1 DUP4 GT PUSH2 0x90F JUMPI DUP3 SWAP1 SUB PUSH1 0x1F AND DUP3 ADD SWAP2 JUMPDEST POP POP POP SWAP2 DUP4 MSTORE POP POP PUSH1 0x6 DUP3 ADD SLOAD PUSH1 0x20 DUP3 ADD MSTORE PUSH1 0x7 DUP3 ADD SLOAD PUSH1 0x40 SWAP1 SWAP2 ADD SWAP1 PUSH1 0xFF AND PUSH1 0x3 DUP2 GT ISZERO PUSH2 0x95D JUMPI PUSH2 0x95D PUSH2 0x10EA JUMP JUMPDEST PUSH1 0x3 DUP2 GT ISZERO PUSH2 0x96E JUMPI PUSH2 0x96E PUSH2 0x10EA JUMP JUMPDEST SWAP1 MSTORE POP SWAP1 POP PUSH1 0x2 DUP2 PUSH1 0xE0 ADD MLOAD PUSH1 0x3 DUP2 GT ISZERO PUSH2 0x98B JUMPI PUSH2 0x98B PUSH2 0x10EA JUMP JUMPDEST SUB PUSH2 0x9A2 JUMPI PUSH1 0x60 DUP2 ADD MLOAD PUSH2 0x99F SWAP1 DUP7 PUSH2 0x153C JUMP JUMPDEST SWAP5 POP JUMPDEST POP DUP1 PUSH2 0x9AD DUP2 PUSH2 0x124F JUMP JUMPDEST SWAP2 POP POP PUSH2 0x793 JUMP JUMPDEST POP PUSH2 0x2710 PUSH2 0x9C4 DUP5 PUSH1 0x64 PUSH2 0x1268 JUMP JUMPDEST PUSH2 0x9CE SWAP2 SWAP1 PUSH2 0x154F JUMP JUMPDEST SWAP2 POP POP SWAP2 POP SWAP2 JUMP JUMPDEST PUSH1 0x0 SLOAD PUSH1 0x1 PUSH1 0x1 PUSH1 0xA0 SHL SUB AND CALLER EQ PUSH2 0xA01 JUMPI PUSH1 0x40 MLOAD PUSH4 0x47556579 PUSH1 0xE0 SHL DUP2 MSTORE PUSH1 0x4 ADD PUSH1 0x40 MLOAD DUP1 SWAP2 SUB SWAP1 REVERT JUMPDEST PUSH1 0x1 PUSH1 0x1 PUSH1 0xA0 SHL SUB DUP2 AND PUSH2 0xA28 JUMPI PUSH1 0x40 MLOAD PUSH4 0xE6C4247B PUSH1 0xE0 SHL DUP2 MSTORE PUSH1 0x4 ADD PUSH1 0x40 MLOAD DUP1 SWAP2 SUB SWAP1 REVERT JUMPDEST PUSH1 0x0 DUP1 SLOAD PUSH1 0x1 PUSH1 0x1 PUSH1 0xA0 SHL SUB NOT AND PUSH1 0x1 PUSH1 0x1 PUSH1 0xA0 SHL SUB SWAP3 SWAP1 SWAP3 AND SWAP2 SWAP1 SWAP2 OR SWAP1 SSTORE JUMP JUMPDEST PUSH1 0x4 PUSH1 0x20 MSTORE DUP2 PUSH1 0x0 MSTORE PUSH1 0x40 PUSH1 0x0 KECCAK256 DUP2 DUP2 SLOAD DUP2 LT PUSH2 0xA66 JUMPI PUSH1 0x0 DUP1 REVERT JUMPDEST SWAP1 PUSH1 0x0 MSTORE PUSH1 0x20 PUSH1 0x0 KECCAK256 ADD PUSH1 0x0 SWAP2 POP SWAP2 POP POP SLOAD DUP2 JUMP JUMPDEST PUSH1 0x3 PUSH1 0x20 MSTORE DUP2 PUSH1 0x0 MSTORE PUSH1 0x40 PUSH1 0x0 KECCAK256 DUP2 DUP2 SLOAD DUP2 LT PUSH2 0xA66 JUMPI PUSH1 0x0 DUP1 REVERT JUMPDEST PUSH1 0x2 PUSH1 0x20 DUP2 SWAP1 MSTORE PUSH1 0x0 SWAP2 DUP3 MSTORE PUSH1 0x40 SWAP1 SWAP2 KECCAK256 DUP1 SLOAD PUSH1 0x1 DUP3 ADD SLOAD SWAP3 DUP3 ADD SLOAD PUSH1 0x3 DUP4 ADD SLOAD PUSH1 0x4 DUP5 ADD DUP1 SLOAD PUSH1 0x1 PUSH1 0x1 PUSH1 0xA0 SHL SUB SWAP5 DUP6 AND SWAP7 SWAP1 SWAP5 AND SWAP5 SWAP3 SWAP4 SWAP2 SWAP3 SWAP2 PUSH2 0xADC SWAP1 PUSH2 0x129B JUMP JUMPDEST DUP1 PUSH1 0x1F ADD PUSH1 0x20 DUP1 SWAP2 DIV MUL PUSH1 0x20 ADD PUSH1 0x40 MLOAD SWAP1 DUP2 ADD PUSH1 0x40 MSTORE DUP1 SWAP3 SWAP2 SWAP1 DUP2 DUP2 MSTORE PUSH1 0x20 ADD DUP3 DUP1 SLOAD PUSH2 0xB08 SWAP1 PUSH2 0x129B JUMP JUMPDEST DUP1 ISZERO PUSH2 0xB55 JUMPI DUP1 PUSH1 0x1F LT PUSH2 0xB2A JUMPI PUSH2 0x100 DUP1 DUP4 SLOAD DIV MUL DUP4 MSTORE SWAP2 PUSH1 0x20 ADD SWAP2 PUSH2 0xB55 JUMP JUMPDEST DUP3 ADD SWAP2 SWAP1 PUSH1 0x0 MSTORE PUSH1 0x20 PUSH1 0x0 KECCAK256 SWAP1 JUMPDEST DUP2 SLOAD DUP2 MSTORE SWAP1 PUSH1 0x1 ADD SWAP1 PUSH1 0x20 ADD DUP1 DUP4 GT PUSH2 0xB38 JUMPI DUP3 SWAP1 SUB PUSH1 0x1F AND DUP3 ADD SWAP2 JUMPDEST POP POP POP POP POP SWAP1 DUP1 PUSH1 0x5 ADD DUP1 SLOAD PUSH2 0xB6A SWAP1 PUSH2 0x129B JUMP JUMPDEST DUP1 PUSH1 0x1F ADD PUSH1 0x20 DUP1 SWAP2 DIV MUL PUSH1 0x20 ADD PUSH1 0x40 MLOAD SWAP1 DUP2 ADD PUSH1 0x40 MSTORE DUP1 SWAP3 SWAP2 SWAP1 DUP2 DUP2 MSTORE PUSH1 0x20 ADD DUP3 DUP1 SLOAD PUSH2 0xB96 SWAP1 PUSH2 0x129B JUMP JUMPDEST DUP1 ISZERO PUSH2 0xBE3 JUMPI DUP1 PUSH1 0x1F LT PUSH2 0xBB8 JUMPI PUSH2 0x100 DUP1 DUP4 SLOAD DIV MUL DUP4 MSTORE SWAP2 PUSH1 0x20 ADD SWAP2 PUSH2 0xBE3 JUMP JUMPDEST DUP3 ADD SWAP2 SWAP1 PUSH1 0x0 MSTORE PUSH1 0x20 PUSH1 0x0 KECCAK256 SWAP1 JUMPDEST DUP2 SLOAD DUP2 MSTORE SWAP1 PUSH1 0x1 ADD SWAP1 PUSH1 0x20 ADD DUP1 DUP4 GT PUSH2 0xBC6 JUMPI DUP3 SWAP1 SUB PUSH1 0x1F AND DUP3 ADD SWAP2 JUMPDEST POP POP POP POP PUSH1 0x6 DUP4 ADD SLOAD PUSH1 0x7 SWAP1 SWAP4 ADD SLOAD SWAP2 SWAP3 SWAP2 PUSH1 0xFF AND SWAP1 POP DUP9 JUMP JUMPDEST PUSH2 0xC05 PUSH2 0xE60 JUMP JUMPDEST PUSH1 0x0 DUP3 DUP2 MSTORE PUSH1 0x2 PUSH1 0x20 DUP2 DUP2 MSTORE PUSH1 0x40 SWAP3 DUP4 SWAP1 KECCAK256 DUP4 MLOAD PUSH2 0x100 DUP2 ADD DUP6 MSTORE DUP2 SLOAD PUSH1 0x1 PUSH1 0x1 PUSH1 0xA0 SHL SUB SWAP1 DUP2 AND DUP3 MSTORE PUSH1 0x1 DUP4 ADD SLOAD AND SWAP3 DUP2 ADD SWAP3 SWAP1 SWAP3 MSTORE SWAP2 DUP3 ADD SLOAD SWAP3 DUP2 ADD SWAP3 SWAP1 SWAP3 MSTORE PUSH1 0x3 DUP2 ADD SLOAD PUSH1 0x60 DUP4 ADD MSTORE PUSH1 0x4 DUP2 ADD DUP1 SLOAD PUSH1 0x80 DUP5 ADD SWAP2 SWAP1 PUSH2 0xC66 SWAP1 PUSH2 0x129B JUMP JUMPDEST DUP1 PUSH1 0x1F ADD PUSH1 0x20 DUP1 SWAP2 DIV MUL PUSH1 0x20 ADD PUSH1 0x40 MLOAD SWAP1 DUP2 ADD PUSH1 0x40 MSTORE DUP1 SWAP3 SWAP2 SWAP1 DUP2 DUP2 MSTORE PUSH1 0x20 ADD DUP3 DUP1 SLOAD PUSH2 0xC92 SWAP1 PUSH2 0x129B JUMP JUMPDEST DUP1 ISZERO PUSH2 0xCDF JUMPI DUP1 PUSH1 0x1F LT PUSH2 0xCB4 JUMPI PUSH2 0x100 DUP1 DUP4 SLOAD DIV MUL DUP4 MSTORE SWAP2 PUSH1 0x20 ADD SWAP2 PUSH2 0xCDF JUMP JUMPDEST DUP3 ADD SWAP2 SWAP1 PUSH1 0x0 MSTORE PUSH1 0x20 PUSH1 0x0 KECCAK256 SWAP1 JUMPDEST DUP2 SLOAD DUP2 MSTORE SWAP1 PUSH1 0x1 ADD SWAP1 PUSH1 0x20 ADD DUP1 DUP4 GT PUSH2 0xCC2 JUMPI DUP3 SWAP1 SUB PUSH1 0x1F AND DUP3 ADD SWAP2 JUMPDEST POP POP POP POP POP DUP2 MSTORE PUSH1 0x20 ADD PUSH1 0x5 DUP3 ADD DUP1 SLOAD PUSH2 0xCF8 SWAP1 PUSH2 0x129B JUMP JUMPDEST DUP1 PUSH1 0x1F ADD PUSH1 0x20 DUP1 SWAP2 DIV MUL PUSH1 0x20 ADD PUSH1 0x40 MLOAD SWAP1 DUP2 ADD PUSH1 0x40 MSTORE DUP1 SWAP3 SWAP2 SWAP1 DUP2 DUP2 MSTORE PUSH1 0x20 ADD DUP3 DUP1 SLOAD PUSH2 0xD24 SWAP1 PUSH2 0x129B JUMP JUMPDEST DUP1 ISZERO PUSH2 0xD71 JUMPI DUP1 PUSH1 0x1F LT PUSH2 0xD46 JUMPI PUSH2 0x100 DUP1 DUP4 SLOAD DIV MUL DUP4 MSTORE SWAP2 PUSH1 0x20 ADD SWAP2 PUSH2 0xD71 JUMP JUMPDEST DUP3 ADD SWAP2 SWAP1 PUSH1 0x0 MSTORE PUSH1 0x20 PUSH1 0x0 KECCAK256 SWAP1 JUMPDEST DUP2 SLOAD DUP2 MSTORE SWAP1 PUSH1 0x1 ADD SWAP1 PUSH1 0x20 ADD DUP1 DUP4 GT PUSH2 0xD54 JUMPI DUP3 SWAP1 SUB PUSH1 0x1F AND DUP3 ADD SWAP2 JUMPDEST POP POP POP SWAP2 DUP4 MSTORE POP POP PUSH1 0x6 DUP3 ADD SLOAD PUSH1 0x20 DUP3 ADD MSTORE PUSH1 0x7 DUP3 ADD SLOAD PUSH1 0x40 SWAP1 SWAP2 ADD SWAP1 PUSH1 0xFF AND PUSH1 0x3 DUP2 GT ISZERO PUSH2 0xDA2 JUMPI PUSH2 0xDA2 PUSH2 0x10EA JUMP JUMPDEST PUSH1 0x3 DUP2 GT ISZERO PUSH2 0xDB3 JUMPI PUSH2 0xDB3 PUSH2 0x10EA JUMP JUMPDEST SWAP1 MSTORE POP SWAP3 SWAP2 POP POP JUMP JUMPDEST PUSH1 0x0 SLOAD PUSH1 0x1 PUSH1 0x1 PUSH1 0xA0 SHL SUB AND CALLER EQ PUSH2 0xDE7 JUMPI PUSH1 0x40 MLOAD PUSH4 0x47556579 PUSH1 0xE0 SHL DUP2 MSTORE PUSH1 0x4 ADD PUSH1 0x40 MLOAD DUP1 SWAP2 SUB SWAP1 REVERT JUMPDEST PUSH1 0x1 PUSH1 0x1 PUSH1 0xA0 SHL SUB DUP2 AND PUSH2 0xE0E JUMPI PUSH1 0x40 MLOAD PUSH4 0xE6C4247B PUSH1 0xE0 SHL DUP2 MSTORE PUSH1 0x4 ADD PUSH1 0x40 MLOAD DUP1 SWAP2 SUB SWAP1 REVERT JUMPDEST PUSH1 0x1 DUP1 SLOAD PUSH1 0x1 PUSH1 0x1 PUSH1 0xA0 SHL SUB DUP4 DUP2 AND PUSH1 0x1 PUSH1 0x1 PUSH1 0xA0 SHL SUB NOT DUP4 AND DUP2 OR SWAP1 SWAP4 SSTORE PUSH1 0x40 MLOAD SWAP2 AND SWAP2 SWAP1 DUP3 SWAP1 PUSH32 0x37F6C561371BB449A598AAF7E5528FC87AD233E82669756CD67FEC9C5F665A7B SWAP1 PUSH1 0x0 SWAP1 LOG3 POP POP JUMP JUMPDEST PUSH1 0x40 MLOAD DUP1 PUSH2 0x100 ADD PUSH1 0x40 MSTORE DUP1 PUSH1 0x0 PUSH1 0x1 PUSH1 0x1 PUSH1 0xA0 SHL SUB AND DUP2 MSTORE PUSH1 0x20 ADD PUSH1 0x0 PUSH1 0x1 PUSH1 0x1 PUSH1 0xA0 SHL SUB AND DUP2 MSTORE PUSH1 0x20 ADD PUSH1 0x0 DUP2 MSTORE PUSH1 0x20 ADD PUSH1 0x0 DUP2 MSTORE PUSH1 0x20 ADD PUSH1 0x60 DUP2 MSTORE PUSH1 0x20 ADD PUSH1 0x60 DUP2 MSTORE PUSH1 0x20 ADD PUSH1 0x0 DUP2 MSTORE PUSH1 0x20 ADD PUSH1 0x0 PUSH1 0x3 DUP2 GT ISZERO PUSH2 0xEC2 JUMPI PUSH2 0xEC2 PUSH2 0x10EA JUMP JUMPDEST SWAP1 MSTORE SWAP1 JUMP JUMPDEST DUP1 CALLDATALOAD PUSH1 0x1 PUSH1 0x1 PUSH1 0xA0 SHL SUB DUP2 AND DUP2 EQ PUSH2 0xEDE JUMPI PUSH1 0x0 DUP1 REVERT JUMPDEST SWAP2 SWAP1 POP JUMP JUMPDEST PUSH1 0x0 DUP1 DUP4 PUSH1 0x1F DUP5 ADD SLT PUSH2 0xEF5 JUMPI PUSH1 0x0 DUP1 REVERT JUMPDEST POP DUP2 CALLDATALOAD PUSH8 0xFFFFFFFFFFFFFFFF DUP2 GT ISZERO PUSH2 0xF0D JUMPI PUSH1 0x0 DUP1 REVERT JUMPDEST PUSH1 0x20 DUP4 ADD SWAP2 POP DUP4 PUSH1 0x20 DUP3 DUP6 ADD ADD GT ISZERO PUSH2 0xF25 JUMPI PUSH1 0x0 DUP1 REVERT JUMPDEST SWAP3 POP SWAP3 SWAP1 POP JUMP JUMPDEST PUSH1 0x0 DUP1 PUSH1 0x0 DUP1 PUSH1 0x0 PUSH1 0x80 DUP7 DUP9 SUB SLT ISZERO PUSH2 0xF44 JUMPI PUSH1 0x0 DUP1 REVERT JUMPDEST PUSH2 0xF4D DUP7 PUSH2 0xEC7 JUMP JUMPDEST SWAP5 POP PUSH2 0xF5B PUSH1 0x20 DUP8 ADD PUSH2 0xEC7 JUMP JUMPDEST SWAP4 POP PUSH1 0x40 DUP7 ADD CALLDATALOAD SWAP3 POP PUSH1 0x60 DUP7 ADD CALLDATALOAD PUSH8 0xFFFFFFFFFFFFFFFF DUP2 GT ISZERO PUSH2 0xF7E JUMPI PUSH1 0x0 DUP1 REVERT JUMPDEST PUSH2 0xF8A DUP9 DUP3 DUP10 ADD PUSH2 0xEE3 JUMP JUMPDEST SWAP7 SWAP10 SWAP6 SWAP9 POP SWAP4 SWAP7 POP SWAP3 SWAP5 SWAP4 SWAP3 POP POP POP JUMP JUMPDEST PUSH1 0x0 PUSH1 0x20 DUP3 DUP5 SUB SLT ISZERO PUSH2 0xFAD JUMPI PUSH1 0x0 DUP1 REVERT JUMPDEST PUSH2 0xFB6 DUP3 PUSH2 0xEC7 JUMP JUMPDEST SWAP4 SWAP3 POP POP POP JUMP JUMPDEST PUSH1 0x20 DUP1 DUP3 MSTORE DUP3 MLOAD DUP3 DUP3 ADD DUP2 SWAP1 MSTORE PUSH1 0x0 SWAP2 SWAP1 DUP5 DUP3 ADD SWAP1 PUSH1 0x40 DUP6 ADD SWAP1 DUP5 JUMPDEST DUP2 DUP2 LT ISZERO PUSH2 0xFF5 JUMPI DUP4 MLOAD DUP4 MSTORE SWAP3 DUP5 ADD SWAP3 SWAP2 DUP5 ADD SWAP2 PUSH1 0x1 ADD PUSH2 0xFD9 JUMP JUMPDEST POP SWAP1 SWAP7 SWAP6 POP POP POP POP POP POP JUMP JUMPDEST PUSH1 0x0 DUP1 PUSH1 0x0 DUP1 PUSH1 0x60 DUP6 DUP8 SUB SLT ISZERO PUSH2 0x1017 JUMPI PUSH1 0x0 DUP1 REVERT JUMPDEST DUP5 CALLDATALOAD SWAP4 POP PUSH1 0x20 DUP6 ADD CALLDATALOAD PUSH1 0x4 DUP2 LT PUSH2 0x102D JUMPI PUSH1 0x0 DUP1 REVERT JUMPDEST SWAP3 POP PUSH1 0x40 DUP6 ADD CALLDATALOAD PUSH8 0xFFFFFFFFFFFFFFFF DUP2 GT ISZERO PUSH2 0x1049 JUMPI PUSH1 0x0 DUP1 REVERT JUMPDEST PUSH2 0x1055 DUP8 DUP3 DUP9 ADD PUSH2 0xEE3 JUMP JUMPDEST SWAP6 SWAP9 SWAP5 SWAP8 POP SWAP6 POP POP POP POP JUMP JUMPDEST PUSH1 0x0 DUP1 PUSH1 0x40 DUP4 DUP6 SUB SLT ISZERO PUSH2 0x1074 JUMPI PUSH1 0x0 DUP1 REVERT JUMPDEST PUSH2 0x107D DUP4 PUSH2 0xEC7 JUMP JUMPDEST SWAP5 PUSH1 0x20 SWAP4 SWAP1 SWAP4 ADD CALLDATALOAD SWAP4 POP POP POP JUMP JUMPDEST PUSH1 0x0 PUSH1 0x20 DUP3 DUP5 SUB SLT ISZERO PUSH2 0x109D JUMPI PUSH1 0x0 DUP1 REVERT JUMPDEST POP CALLDATALOAD SWAP2 SWAP1 POP JUMP JUMPDEST PUSH1 0x0 DUP2 MLOAD DUP1 DUP5 MSTORE PUSH1 0x0 JUMPDEST DUP2 DUP2 LT ISZERO PUSH2 0x10CA JUMPI PUSH1 0x20 DUP2 DUP6 ADD DUP2 ADD MLOAD DUP7 DUP4 ADD DUP3 ADD MSTORE ADD PUSH2 0x10AE JUMP JUMPDEST POP PUSH1 0x0 PUSH1 0x20 DUP3 DUP7 ADD ADD MSTORE PUSH1 0x20 PUSH1 0x1F NOT PUSH1 0x1F DUP4 ADD AND DUP6 ADD ADD SWAP2 POP POP SWAP3 SWAP2 POP POP JUMP JUMPDEST PUSH4 0x4E487B71 PUSH1 0xE0 SHL PUSH1 0x0 MSTORE PUSH1 0x21 PUSH1 0x4 MSTORE PUSH1 0x24 PUSH1 0x0 REVERT JUMPDEST PUSH1 0x4 DUP2 LT PUSH2 0x111E JUMPI PUSH4 0x4E487B71 PUSH1 0xE0 SHL PUSH1 0x0 MSTORE PUSH1 0x21 PUSH1 0x4 MSTORE PUSH1 0x24 PUSH1 0x0 REVERT JUMPDEST SWAP1 MSTORE JUMP JUMPDEST PUSH1 0x1 PUSH1 0x1 PUSH1 0xA0 SHL SUB DUP10 DUP2 AND DUP3 MSTORE DUP9 AND PUSH1 0x20 DUP3 ADD MSTORE PUSH1 0x40 DUP2 ADD DUP8 SWAP1 MSTORE PUSH1 0x60 DUP2 ADD DUP7 SWAP1 MSTORE PUSH2 0x100 PUSH1 0x80 DUP3 ADD DUP2 SWAP1 MSTORE PUSH1 0x0 SWAP1 PUSH2 0x115D DUP4 DUP3 ADD DUP9 PUSH2 0x10A4 JUMP JUMPDEST SWAP1 POP DUP3 DUP2 SUB PUSH1 0xA0 DUP5 ADD MSTORE PUSH2 0x1171 DUP2 DUP8 PUSH2 0x10A4 JUMP JUMPDEST SWAP2 POP POP DUP4 PUSH1 0xC0 DUP4 ADD MSTORE PUSH2 0x1187 PUSH1 0xE0 DUP4 ADD DUP5 PUSH2 0x1100 JUMP JUMPDEST SWAP10 SWAP9 POP POP POP POP POP POP POP POP POP JUMP JUMPDEST PUSH1 0x20 DUP1 DUP3 MSTORE DUP3 MLOAD PUSH1 0x1 PUSH1 0x1 PUSH1 0xA0 SHL SUB AND DUP3 DUP3 ADD MSTORE DUP3 ADD MLOAD PUSH1 0x0 SWAP1 PUSH2 0x11C3 PUSH1 0x40 DUP5 ADD DUP3 PUSH1 0x1 PUSH1 0x1 PUSH1 0xA0 SHL SUB AND SWAP1 MSTORE JUMP JUMPDEST POP PUSH1 0x40 DUP4 ADD MLOAD PUSH1 0x60 DUP4 ADD MSTORE PUSH1 0x60 DUP4 ADD MLOAD PUSH1 0x80 DUP4 ADD MSTORE PUSH1 0x80 DUP4 ADD MLOAD PUSH2 0x100 DUP1 PUSH1 0xA0 DUP6 ADD MSTORE PUSH2 0x11F4 PUSH2 0x120 DUP6 ADD DUP4 PUSH2 0x10A4 JUMP JUMPDEST SWAP2 POP PUSH1 0xA0 DUP6 ADD MLOAD PUSH1 0x1F NOT DUP6 DUP5 SUB ADD PUSH1 0xC0 DUP7 ADD MSTORE PUSH2 0x1211 DUP4 DUP3 PUSH2 0x10A4 JUMP JUMPDEST SWAP3 POP POP PUSH1 0xC0 DUP6 ADD MLOAD PUSH1 0xE0 DUP6 ADD MSTORE PUSH1 0xE0 DUP6 ADD MLOAD PUSH2 0x122F DUP3 DUP7 ADD DUP3 PUSH2 0x1100 JUMP JUMPDEST POP SWAP1 SWAP5 SWAP4 POP POP POP POP JUMP JUMPDEST PUSH4 0x4E487B71 PUSH1 0xE0 SHL PUSH1 0x0 MSTORE PUSH1 0x11 PUSH1 0x4 MSTORE PUSH1 0x24 PUSH1 0x0 REVERT JUMPDEST PUSH1 0x0 PUSH1 0x1 DUP3 ADD PUSH2 0x1261 JUMPI PUSH2 0x1261 PUSH2 0x1239 JUMP JUMPDEST POP PUSH1 0x1 ADD SWAP1 JUMP JUMPDEST DUP1 DUP3 MUL DUP2 ISZERO DUP3 DUP3 DIV DUP5 EQ OR PUSH2 0x127F JUMPI PUSH2 0x127F PUSH2 0x1239 JUMP JUMPDEST SWAP3 SWAP2 POP POP JUMP JUMPDEST PUSH4 0x4E487B71 PUSH1 0xE0 SHL PUSH1 0x0 MSTORE PUSH1 0x41 PUSH1 0x4 MSTORE PUSH1 0x24 PUSH1 0x0 REVERT JUMPDEST PUSH1 0x1 DUP2 DUP2 SHR SWAP1 DUP3 AND DUP1 PUSH2 0x12AF JUMPI PUSH1 0x7F DUP3 AND SWAP2 POP JUMPDEST PUSH1 0x20 DUP3 LT DUP2 SUB PUSH2 0x12CF JUMPI PUSH4 0x4E487B71 PUSH1 0xE0 SHL PUSH1 0x0 MSTORE PUSH1 0x22 PUSH1 0x4 MSTORE PUSH1 0x24 PUSH1 0x0 REVERT JUMPDEST POP SWAP2 SWAP1 POP JUMP JUMPDEST PUSH1 0x1F DUP3 GT ISZERO PUSH2 0x131F JUMPI PUSH1 0x0 DUP2 DUP2 MSTORE PUSH1 0x20 DUP2 KECCAK256 PUSH1 0x1F DUP6 ADD PUSH1 0x5 SHR DUP2 ADD PUSH1 0x20 DUP7 LT ISZERO PUSH2 0x12FC JUMPI POP DUP1 JUMPDEST PUSH1 0x1F DUP6 ADD PUSH1 0x5 SHR DUP3 ADD SWAP2 POP JUMPDEST DUP2 DUP2 LT ISZERO PUSH2 0x131B JUMPI DUP3 DUP2 SSTORE PUSH1 0x1 ADD PUSH2 0x1308 JUMP JUMPDEST POP POP POP JUMPDEST POP POP POP JUMP JUMPDEST DUP2 MLOAD PUSH8 0xFFFFFFFFFFFFFFFF DUP2 GT ISZERO PUSH2 0x133E JUMPI PUSH2 0x133E PUSH2 0x1285 JUMP JUMPDEST PUSH2 0x1352 DUP2 PUSH2 0x134C DUP5 SLOAD PUSH2 0x129B JUMP JUMPDEST DUP5 PUSH2 0x12D5 JUMP JUMPDEST PUSH1 0x20 DUP1 PUSH1 0x1F DUP4 GT PUSH1 0x1 DUP2 EQ PUSH2 0x1387 JUMPI PUSH1 0x0 DUP5 ISZERO PUSH2 0x136F JUMPI POP DUP6 DUP4 ADD MLOAD JUMPDEST PUSH1 0x0 NOT PUSH1 0x3 DUP7 SWAP1 SHL SHR NOT AND PUSH1 0x1 DUP6 SWAP1 SHL OR DUP6 SSTORE PUSH2 0x131B JUMP JUMPDEST PUSH1 0x0 DUP6 DUP2 MSTORE PUSH1 0x20 DUP2 KECCAK256 PUSH1 0x1F NOT DUP7 AND SWAP2 JUMPDEST DUP3 DUP2 LT ISZERO PUSH2 0x13B6 JUMPI DUP9 DUP7 ADD MLOAD DUP3 SSTORE SWAP5 DUP5 ADD SWAP5 PUSH1 0x1 SWAP1 SWAP2 ADD SWAP1 DUP5 ADD PUSH2 0x1397 JUMP JUMPDEST POP DUP6 DUP3 LT ISZERO PUSH2 0x13D4 JUMPI DUP8 DUP6 ADD MLOAD PUSH1 0x0 NOT PUSH1 0x3 DUP9 SWAP1 SHL PUSH1 0xF8 AND SHR NOT AND DUP2 SSTORE JUMPDEST POP POP POP POP POP PUSH1 0x1 SWAP1 DUP2 SHL ADD SWAP1 SSTORE POP JUMP JUMPDEST DUP2 DUP4 MSTORE DUP2 DUP2 PUSH1 0x20 DUP6 ADD CALLDATACOPY POP PUSH1 0x0 DUP3 DUP3 ADD PUSH1 0x20 SWAP1 DUP2 ADD SWAP2 SWAP1 SWAP2 MSTORE PUSH1 0x1F SWAP1 SWAP2 ADD PUSH1 0x1F NOT AND SWAP1 SWAP2 ADD ADD SWAP1 JUMP JUMPDEST DUP5 DUP2 MSTORE DUP4 PUSH1 0x20 DUP3 ADD MSTORE PUSH1 0x60 PUSH1 0x40 DUP3 ADD MSTORE PUSH1 0x0 PUSH2 0x142D PUSH1 0x60 DUP4 ADD DUP5 DUP7 PUSH2 0x13E4 JUMP JUMPDEST SWAP7 SWAP6 POP POP POP POP POP POP JUMP JUMPDEST PUSH8 0xFFFFFFFFFFFFFFFF DUP4 GT ISZERO PUSH2 0x144F JUMPI PUSH2 0x144F PUSH2 0x1285 JUMP JUMPDEST PUSH2 0x1463 DUP4 PUSH2 0x145D DUP4 SLOAD PUSH2 0x129B JUMP JUMPDEST DUP4 PUSH2 0x12D5 JUMP JUMPDEST PUSH1 0x0 PUSH1 0x1F DUP5 GT PUSH1 0x1 DUP2 EQ PUSH2 0x1497 JUMPI PUSH1 0x0 DUP6 ISZERO PUSH2 0x147F JUMPI POP DUP4 DUP3 ADD CALLDATALOAD JUMPDEST PUSH1 0x0 NOT PUSH1 0x3 DUP8 SWAP1 SHL SHR NOT AND PUSH1 0x1 DUP7 SWAP1 SHL OR DUP4 SSTORE PUSH2 0x14F1 JUMP JUMPDEST PUSH1 0x0 DUP4 DUP2 MSTORE PUSH1 0x20 SWAP1 KECCAK256 PUSH1 0x1F NOT DUP7 AND SWAP1 DUP4 JUMPDEST DUP3 DUP2 LT ISZERO PUSH2 0x14C8 JUMPI DUP7 DUP6 ADD CALLDATALOAD DUP3 SSTORE PUSH1 0x20 SWAP5 DUP6 ADD SWAP5 PUSH1 0x1 SWAP1 SWAP3 ADD SWAP2 ADD PUSH2 0x14A8 JUMP JUMPDEST POP DUP7 DUP3 LT ISZERO PUSH2 0x14E5 JUMPI PUSH1 0x0 NOT PUSH1 0xF8 DUP9 PUSH1 0x3 SHL AND SHR NOT DUP5 DUP8 ADD CALLDATALOAD AND DUP2 SSTORE JUMPDEST POP POP PUSH1 0x1 DUP6 PUSH1 0x1 SHL ADD DUP4 SSTORE JUMPDEST POP POP POP POP POP JUMP JUMPDEST PUSH2 0x1502 DUP2 DUP7 PUSH2 0x1100 JUMP JUMPDEST PUSH2 0x150F PUSH1 0x20 DUP3 ADD DUP6 PUSH2 0x1100 JUMP JUMPDEST PUSH1 0x60 PUSH1 0x40 DUP3 ADD MSTORE PUSH1 0x0 PUSH2 0x142D PUSH1 0x60 DUP4 ADD DUP5 DUP7 PUSH2 0x13E4 JUMP JUMPDEST PUSH4 0x4E487B71 PUSH1 0xE0 SHL PUSH1 0x0 MSTORE PUSH1 0x32 PUSH1 0x4 MSTORE PUSH1 0x24 PUSH1 0x0 REVERT JUMPDEST DUP1 DUP3 ADD DUP1 DUP3 GT ISZERO PUSH2 0x127F JUMPI PUSH2 0x127F PUSH2 0x1239 JUMP JUMPDEST PUSH1 0x0 DUP3 PUSH2 0x156C JUMPI PUSH4 0x4E487B71 PUSH1 0xE0 SHL PUSH1 0x0 MSTORE PUSH1 0x12 PUSH1 0x4 MSTORE PUSH1 0x24 PUSH1 0x0 REVERT JUMPDEST POP DIV SWAP1 JUMP INVALID LOG2 PUSH5 0x6970667358 0x22 SLT KECCAK256 SELFBALANCE JUMPI SWAP11 0xB2 PUSH24 0x4A6B050E16373AC25D61FD58932A56AF3434C180AA938A3F 0xCE PUSH2 0xC464 PUSH20 0x6F6C634300081400330000000000000000000000 "},"methodIdentifiers":{"admin()":"f851a440","backend()":"099e4133","beneficiaryPayouts(address,uint256)":"8e8364e5","getBeneficiaryPayouts(address)":"48b0a5ac","getPayout(bytes32)":"ce4e07d9","getPendingPayoutsCount()":"da44eadf","getTaxReport(address)":"64362c88","getVaultPayouts(address)":"19f687a1","payouts(bytes32)":"aeddb905","recordPayout(address,address,uint256,string)":"14fa752f","setBackend(address)":"da7fc24f","transferAdmin(address)":"75829def","updatePayoutStatus(bytes32,uint8,string)":"365e7e98","vaultPayouts(address,uint256)":"9a109664"}}}}}