{"contracts/AscendVault.sol":{"AscendVault":{"abi":[{"inputs":[{"internalType":"address","name":"_owner","type":"address"},{"internalType":"uint256","name":"_checkInPeriod","type":"uint256"},{"internalType":"uint256","name":"_gracePeriod","type":"uint256"}],"stateMutability":"nonpayable","type":"constructor"},{"inputs":[],"name":"BeneficiaryAlreadyExists","type":"error"},{"inputs":[],"name":"BeneficiaryNotFound","type":"error"},{"inputs":[],"name":"DeadlineNotReached","type":"error"},{"inputs":[],"name":"InvalidAddress","type":"error"},{"inputs":[],"name":"InvalidSharePercentage","type":"error"},{"inputs":[],"name":"NoBeneficiaries","type":"error"},{"inputs":[],"name":"NoFundsToDistribute","type":"error"},{"inputs":[],"name":"OnlyAfterTriggered","type":"error"},{"inputs":[],"name":"OnlyBeforeTriggered","type":"error"},{"inputs":[],"name":"OnlyOwner","type":"error"},{"inputs":[],"name":"ReentrancyGuardReentrantCall","type":"error"},{"inputs":[{"internalType":"address","name":"token","type":"address"}],"name":"SafeERC20FailedOperation","type":"error"},{"inputs":[],"name":"TotalShareExceeds100","type":"error"},{"anonymous":false,"inputs":[{"indexed":true,"internalType":"address","name":"beneficiary","type":"address"},{"indexed":false,"internalType":"uint256","name":"share","type":"uint256"}],"name":"BeneficiaryAdded","type":"event"},{"anonymous":false,"inputs":[{"indexed":true,"internalType":"address","name":"beneficiary","type":"address"}],"name":"BeneficiaryRemoved","type":"event"},{"anonymous":false,"inputs":[{"indexed":true,"internalType":"address","name":"beneficiary","type":"address"},{"indexed":false,"internalType":"uint256","name":"newShare","type":"uint256"}],"name":"BeneficiaryUpdated","type":"event"},{"anonymous":false,"inputs":[{"indexed":true,"internalType":"address","name":"owner","type":"address"},{"indexed":false,"internalType":"uint256","name":"newDeadline","type":"uint256"}],"name":"CheckedIn","type":"event"},{"anonymous":false,"inputs":[{"indexed":true,"internalType":"address","name":"token","type":"address"},{"indexed":false,"internalType":"uint256","name":"amount","type":"uint256"},{"indexed":true,"internalType":"address","name":"to","type":"address"}],"name":"EmergencyWithdrawal","type":"event"},{"anonymous":false,"inputs":[{"indexed":true,"internalType":"address","name":"beneficiary","type":"address"},{"indexed":false,"internalType":"uint256","name":"amount","type":"uint256"}],"name":"FundsDistributed","type":"event"},{"anonymous":false,"inputs":[{"indexed":true,"internalType":"address","name":"token","type":"address"},{"indexed":false,"internalType":"uint256","name":"amount","type":"uint256"}],"name":"TokenDeposited","type":"event"},{"anonymous":false,"inputs":[{"indexed":true,"internalType":"address","name":"owner","type":"address"},{"indexed":false,"internalType":"uint256","name":"triggeredAt","type":"uint256"}],"name":"VaultTriggered","type":"event"},{"inputs":[{"internalType":"address payable","name":"_beneficiary","type":"address"},{"internalType":"uint256","name":"_sharePercentage","type":"uint256"}],"name":"addBeneficiary","outputs":[],"stateMutability":"nonpayable","type":"function"},{"inputs":[],"name":"canTrigger","outputs":[{"internalType":"bool","name":"","type":"bool"}],"stateMutability":"view","type":"function"},{"inputs":[],"name":"checkIn","outputs":[],"stateMutability":"nonpayable","type":"function"},{"inputs":[],"name":"checkInPeriod","outputs":[{"internalType":"uint256","name":"","type":"uint256"}],"stateMutability":"view","type":"function"},{"inputs":[{"internalType":"address","name":"_usdcAddress","type":"address"}],"name":"distributeFunds","outputs":[],"stateMutability":"nonpayable","type":"function"},{"inputs":[{"internalType":"address","name":"_token","type":"address"}],"name":"emergencyWithdraw","outputs":[],"stateMutability":"nonpayable","type":"function"},{"inputs":[],"name":"getBeneficiaries","outputs":[{"components":[{"internalType":"address payable","name":"beneficiaryAddress","type":"address"},{"internalType":"uint256","name":"sharePercentage","type":"uint256"},{"internalType":"bool","name":"isActive","type":"bool"}],"internalType":"struct IAscendVault.Beneficiary[]","name":"","type":"tuple[]"}],"stateMutability":"view","type":"function"},{"inputs":[],"name":"getTimeRemaining","outputs":[{"internalType":"uint256","name":"","type":"uint256"}],"stateMutability":"view","type":"function"},{"inputs":[{"internalType":"address","name":"_token","type":"address"}],"name":"getVaultBalance","outputs":[{"internalType":"uint256","name":"","type":"uint256"}],"stateMutability":"view","type":"function"},{"inputs":[],"name":"gracePeriod","outputs":[{"internalType":"uint256","name":"","type":"uint256"}],"stateMutability":"view","type":"function"},{"inputs":[],"name":"isTriggered","outputs":[{"internalType":"bool","name":"","type":"bool"}],"stateMutability":"view","type":"function"},{"inputs":[],"name":"lastCheckIn","outputs":[{"internalType":"uint256","name":"","type":"uint256"}],"stateMutability":"view","type":"function"},{"inputs":[],"name":"owner","outputs":[{"internalType":"address","name":"","type":"address"}],"stateMutability":"view","type":"function"},{"inputs":[{"internalType":"address","name":"_beneficiary","type":"address"}],"name":"removeBeneficiary","outputs":[],"stateMutability":"nonpayable","type":"function"},{"inputs":[],"name":"trigger","outputs":[],"stateMutability":"nonpayable","type":"function"},{"inputs":[{"internalType":"address","name":"_beneficiary","type":"address"},{"internalType":"uint256","name":"_newShare","type":"uint256"}],"name":"updateBeneficiaryShare","outputs":[],"stateMutability":"nonpayable","type":"function"},{"stateMutability":"payable","type":"receive"}],"evm":{"bytecode":{"linkReferences":{},"object":"60e060405234801561001057600080fd5b5060405161165638038061165683398101604081905261002f916100a3565b60016000556001600160a01b03831661005b5760405163e6c4247b60e01b815260040160405180910390fd5b8160000361007c576040516359b3d7b760e01b815260040160405180910390fd5b6001600160a01b0390921660805260a05260c052426001556002805460ff191690556100e6565b6000806000606084860312156100b857600080fd5b83516001600160a01b03811681146100cf57600080fd5b602085015160409095015190969495509392505050565b60805160a05160c0516114d861017e600039600081816102c90152818161043901528181610b93015261110901526000818161030b0152818161045a01528181610bb4015261112a01526000818161021b01528181610383015281816103ee015281816106df0152818161091601528181610a2b01528181610a5201528181610b2d01528181610bfd0152610e4601526114d86000f3fe6080604052600436106100f75760003560e01c8063901d23901161008a578063a571409911610059578063a5714099146102f9578063d3d7c0021461032d578063dac6270d1461034d578063db78dabd1461036257600080fd5b8063901d239014610255578063913b722c1461027557806396074e7014610297578063a06db7dc146102b757600080fd5b80637d90c55b116100c65780637d90c55b146101b05780637fec8d38146101df57806387729fc8146101f45780638da5cb5b1461020957600080fd5b8063183ff0851461013957806343a2a0d51461015057806359633a1c146101705780636ff1c9bc1461019057600080fd5b36610134576040513481526000907fbc7c8a4d8049a3f99a02f2a20640c206a2e4d3f2fa54fd20da9f01fda3620cda9060200160405180910390a2005b600080fd5b34801561014557600080fd5b5061014e610378565b005b34801561015c57600080fd5b5061014e61016b36600461131b565b6104a4565b34801561017c57600080fd5b5061014e61018b36600461131b565b6106d4565b34801561019c57600080fd5b5061014e6101ab36600461131b565b61090b565b3480156101bc57600080fd5b506002546101ca9060ff1681565b60405190151581526020015b60405180910390f35b3480156101eb57600080fd5b5061014e610aca565b34801561020057600080fd5b506101ca610b7d565b34801561021557600080fd5b5061023d7f000000000000000000000000000000000000000000000000000000000000000081565b6040516001600160a01b0390911681526020016101d6565b34801561026157600080fd5b5061014e61027036600461133f565b610bf2565b34801561028157600080fd5b5061028a610db4565b6040516101d6919061136b565b3480156102a357600080fd5b5061014e6102b236600461133f565b610e3b565b3480156102c357600080fd5b506102eb7f000000000000000000000000000000000000000000000000000000000000000081565b6040519081526020016101d6565b34801561030557600080fd5b506102eb7f000000000000000000000000000000000000000000000000000000000000000081565b34801561033957600080fd5b506102eb61034836600461131b565b611080565b34801561035957600080fd5b506102eb6110f1565b34801561036e57600080fd5b506102eb60015481565b336001600160a01b037f000000000000000000000000000000000000000000000000000000000000000016146103c157604051635fc483c560e01b815260040160405180910390fd5b60025460ff16156103e557604051638765d69f60e01b815260040160405180910390fd5b426001819055507f00000000000000000000000000000000000000000000000000000000000000006001600160a01b03167fdddb6e14f7f2101397a6526aab95e964de7f1f44ed06aa47a1c9a0e6b99244567f00000000000000000000000000000000000000000000000000000000000000007f000000000000000000000000000000000000000000000000000000000000000060015461048691906113e5565b61049091906113e5565b6040519081526020015b60405180910390a2565b60025460ff166104c757604051631725eecb60e21b815260040160405180910390fd5b6104cf611181565b6001600160a01b0381166104f65760405163e6c4247b60e01b815260040160405180910390fd5b60035460000361051957604051630a6e387f60e31b815260040160405180910390fd5b6040516370a0823160e01b815230600482015281906000906001600160a01b038316906370a0823190602401602060405180830381865afa158015610562573d6000803e3d6000fd5b505050506040513d601f19601f8201168201806040525081019061058691906113f8565b9050806000036105a9576040516318f5992f60e21b815260040160405180910390fd5b60005b6003548110156106c4576000600382815481106105cb576105cb611411565b600091825260209182902060408051606081018252600390930290910180546001600160a01b0316835260018101549383019390935260029092015460ff16158015928201839052909250610624575060008160200151115b156106b157600061271082602001518561063e9190611427565b610648919061143e565b905080156106af578151610667906001600160a01b03871690836111ab565b81600001516001600160a01b03167f26536799ace2c3dbe12e638ec3ade6b4173dcf1289be0a58d51a5003015649bd826040516106a691815260200190565b60405180910390a25b505b50806106bc81611460565b9150506105ac565b5050506106d16001600055565b50565b336001600160a01b037f0000000000000000000000000000000000000000000000000000000000000000161461071d57604051635fc483c560e01b815260040160405180910390fd5b60025460ff161561074157604051638765d69f60e01b815260040160405180910390fd5b6001600160a01b0381166000908152600460205260408120549081900361077b5760405163694f351f60e01b815260040160405180910390fd5b6000610788600183611479565b60035490915060009061079d90600190611479565b905080821461087a576000600382815481106107bb576107bb611411565b600091825260209182902060408051606081018252600393840290920180546001600160a01b0316835260018101549483019490945260029093015460ff16151592810192909252805491925082918590811061081a5761081a611411565b6000918252602080832084516003939093020180546001600160a01b0319166001600160a01b039384161781558482015160018201556040948501516002909101805460ff19169115159190911790559351168152600490925290208390555b600380548061088b5761088b61148c565b6000828152602080822060036000199094019384020180546001600160a01b031916815560018101839055600201805460ff19169055919092556001600160a01b038616808352600490915260408083208390555190917f72977dad29432f655f11c2f0e72ef5124bb9ade7a512fb7a43a9f504df22342891a250505050565b336001600160a01b037f0000000000000000000000000000000000000000000000000000000000000000161461095457604051635fc483c560e01b815260040160405180910390fd5b60025460ff161561097857604051638765d69f60e01b815260040160405180910390fd5b610980611181565b6001600160a01b0381166109a75760405163e6c4247b60e01b815260040160405180910390fd5b6040516370a0823160e01b815230600482015281906000906001600160a01b038316906370a0823190602401602060405180830381865afa1580156109f0573d6000803e3d6000fd5b505050506040513d601f19601f82011682018060405250810190610a1491906113f8565b90508015610abe57610a506001600160a01b0383167f0000000000000000000000000000000000000000000000000000000000000000836111ab565b7f00000000000000000000000000000000000000000000000000000000000000006001600160a01b0316836001600160a01b03167f3ab9db27a4cdd8c603a752b62d5fbd93b4b3509fe2596708e9688e42bbac357683604051610ab591815260200190565b60405180910390a35b50506106d16001600055565b60025460ff1615610aee57604051638765d69f60e01b815260040160405180910390fd5b610af6610b7d565b610b1357604051633376277360e11b815260040160405180910390fd5b6002805460ff191660011790556040516001600160a01b037f000000000000000000000000000000000000000000000000000000000000000016907ffcc4435f9402aa94f1c01d3817e46d762ab7474ea31e6240d7578ec6c633e83e9061049a9042815260200190565b60025460009060ff1615610b915750600090565b7f00000000000000000000000000000000000000000000000000000000000000007f0000000000000000000000000000000000000000000000000000000000000000600154610be091906113e5565b610bea91906113e5565b421015905090565b336001600160a01b037f00000000000000000000000000000000000000000000000000000000000000001614610c3b57604051635fc483c560e01b815260040160405180910390fd5b60025460ff1615610c5f57604051638765d69f60e01b815260040160405180910390fd5b6001600160a01b03821660009081526004602052604081205490819003610c995760405163694f351f60e01b815260040160405180910390fd5b811580610ca7575061271082115b15610cc5576040516359b3d7b760e01b815260040160405180910390fd5b6000610cd2600183611479565b9050600060038281548110610ce957610ce9611411565b90600052602060002090600302016001015490506000610d07611202565b905061271085610d178484611479565b610d2191906113e5565b1115610d405760405163155d7f5560e11b815260040160405180910390fd5b8460038481548110610d5457610d54611411565b906000526020600020906003020160010181905550856001600160a01b03167f73d60fa978f046c1ccf0f85c6247b34d322ad63d5184881ef2f10bf3c70dde2186604051610da491815260200190565b60405180910390a2505050505050565b60606003805480602002602001604051908101604052809291908181526020016000905b82821015610e32576000848152602090819020604080516060810182526003860290920180546001600160a01b031683526001808201548486015260029091015460ff161515918301919091529083529092019101610dd8565b50505050905090565b336001600160a01b037f00000000000000000000000000000000000000000000000000000000000000001614610e8457604051635fc483c560e01b815260040160405180910390fd5b60025460ff1615610ea857604051638765d69f60e01b815260040160405180910390fd5b6001600160a01b038216610ecf5760405163e6c4247b60e01b815260040160405180910390fd5b801580610edd575061271081115b15610efb576040516359b3d7b760e01b815260040160405180910390fd5b6001600160a01b03821660009081526004602052604090205415610f3257604051635e6379d760e01b815260040160405180910390fd5b6000610f3c611202565b9050612710610f4b83836113e5565b1115610f6a5760405163155d7f5560e11b815260040160405180910390fd5b604080516060810182526001600160a01b0385811680835260208084018781526001858701818152600380549283018155600081815297517fc2575a0e9e593c00f959f8c92f12db2869c3395a3b0502d05e2516446f71f85b93820293840180546001600160a01b031916919098161790965591517fc2575a0e9e593c00f959f8c92f12db2869c3395a3b0502d05e2516446f71f85c82015590517fc2575a0e9e593c00f959f8c92f12db2869c3395a3b0502d05e2516446f71f85d909101805460ff19169115159190911790559154818452600483529284902092909255915184815290917fe6b83177f11971ba30369bb38b914ffba97d5969a3c857b286fa8fdbb150b3ba910160405180910390a2505050565b6040516370a0823160e01b81523060048201526000906001600160a01b038316906370a0823190602401602060405180830381865afa1580156110c7573d6000803e3d6000fd5b505050506040513d601f19601f820116820180604052508101906110eb91906113f8565b92915050565b60025460009060ff16156111055750600090565b60007f00000000000000000000000000000000000000000000000000000000000000007f000000000000000000000000000000000000000000000000000000000000000060015461115691906113e5565b61116091906113e5565b905080421061117157600091505090565b61117b4282611479565b91505090565b6002600054036111a457604051633ee5aeb560e01b815260040160405180910390fd5b6002600055565b604080516001600160a01b038416602482015260448082018490528251808303909101815260649091019091526020810180516001600160e01b031663a9059cbb60e01b1790526111fd90849061128b565b505050565b600080805b600354811015611285576003818154811061122457611224611411565b600091825260209091206002600390920201015460ff1615611273576003818154811061125357611253611411565b9060005260206000209060030201600101548261127091906113e5565b91505b8061127d81611460565b915050611207565b50919050565b600080602060008451602086016000885af1806112ae576040513d6000823e3d81fd5b50506000513d915081156112c65780600114156112d3565b6001600160a01b0384163b155b1561130057604051635274afe760e01b81526001600160a01b038516600482015260240160405180910390fd5b50505050565b6001600160a01b03811681146106d157600080fd5b60006020828403121561132d57600080fd5b813561133881611306565b9392505050565b6000806040838503121561135257600080fd5b823561135d81611306565b946020939093013593505050565b602080825282518282018190526000919060409081850190868401855b828110156113c257815180516001600160a01b03168552868101518786015285015115158585015260609093019290850190600101611388565b5091979650505050505050565b634e487b7160e01b600052601160045260246000fd5b808201808211156110eb576110eb6113cf565b60006020828403121561140a57600080fd5b5051919050565b634e487b7160e01b600052603260045260246000fd5b80820281158282048414176110eb576110eb6113cf565b60008261145b57634e487b7160e01b600052601260045260246000fd5b500490565b600060018201611472576114726113cf565b5060010190565b818103818111156110eb576110eb6113cf565b634e487b7160e01b600052603160045260246000fdfea2646970667358221220dc4c9b520eaaf5ec7d82754cdfbe61a4dae06aa1e03908868e0d9a9c23b744f464736f6c63430008140033","opcodes":"PUSH1 0xE0 PUSH1 0x40 MSTORE CALLVALUE DUP1 ISZERO PUSH2 0x10 JUMPI PUSH1 0x0 DUP1 REVERT JUMPDEST POP PUSH1 0x40 MLOAD PUSH2 0x1656 CODESIZE SUB DUP1 PUSH2 0x1656 DUP4 CODECOPY DUP2 ADD PUSH1 0x40 DUP2 SWAP1 MSTORE PUSH2 0x2F SWAP2 PUSH2 0xA3 JUMP JUMPDEST PUSH1 0x1 PUSH1 0x0 SSTORE PUSH1 0x1 PUSH1 0x1 PUSH1 0xA0 SHL SUB DUP4 AND PUSH2 0x5B JUMPI PUSH1 0x40 MLOAD PUSH4 0xE6C4247B PUSH1 0xE0 SHL DUP2 MSTORE PUSH1 0x4 ADD PUSH1 0x40 MLOAD DUP1 SWAP2 SUB SWAP1 REVERT JUMPDEST DUP2 PUSH1 0x0 SUB PUSH2 0x7C JUMPI PUSH1 0x40 MLOAD PUSH4 0x59B3D7B7 PUSH1 0xE0 SHL DUP2 MSTORE PUSH1 0x4 ADD PUSH1 0x40 MLOAD DUP1 SWAP2 SUB SWAP1 REVERT JUMPDEST PUSH1 0x1 PUSH1 0x1 PUSH1 0xA0 SHL SUB SWAP1 SWAP3 AND PUSH1 0x80 MSTORE PUSH1 0xA0 MSTORE PUSH1 0xC0 MSTORE TIMESTAMP PUSH1 0x1 SSTORE PUSH1 0x2 DUP1 SLOAD PUSH1 0xFF NOT AND SWAP1 SSTORE PUSH2 0xE6 JUMP JUMPDEST PUSH1 0x0 DUP1 PUSH1 0x0 PUSH1 0x60 DUP5 DUP7 SUB SLT ISZERO PUSH2 0xB8 JUMPI PUSH1 0x0 DUP1 REVERT JUMPDEST DUP4 MLOAD PUSH1 0x1 PUSH1 0x1 PUSH1 0xA0 SHL SUB DUP2 AND DUP2 EQ PUSH2 0xCF JUMPI PUSH1 0x0 DUP1 REVERT JUMPDEST PUSH1 0x20 DUP6 ADD MLOAD PUSH1 0x40 SWAP1 SWAP6 ADD MLOAD SWAP1 SWAP7 SWAP5 SWAP6 POP SWAP4 SWAP3 POP POP POP JUMP JUMPDEST PUSH1 0x80 MLOAD PUSH1 0xA0 MLOAD PUSH1 0xC0 MLOAD PUSH2 0x14D8 PUSH2 0x17E PUSH1 0x0 CODECOPY PUSH1 0x0 DUP2 DUP2 PUSH2 0x2C9 ADD MSTORE DUP2 DUP2 PUSH2 0x439 ADD MSTORE DUP2 DUP2 PUSH2 0xB93 ADD MSTORE PUSH2 0x1109 ADD MSTORE PUSH1 0x0 DUP2 DUP2 PUSH2 0x30B ADD MSTORE DUP2 DUP2 PUSH2 0x45A ADD MSTORE DUP2 DUP2 PUSH2 0xBB4 ADD MSTORE PUSH2 0x112A ADD MSTORE PUSH1 0x0 DUP2 DUP2 PUSH2 0x21B ADD MSTORE DUP2 DUP2 PUSH2 0x383 ADD MSTORE DUP2 DUP2 PUSH2 0x3EE ADD MSTORE DUP2 DUP2 PUSH2 0x6DF ADD MSTORE DUP2 DUP2 PUSH2 0x916 ADD MSTORE DUP2 DUP2 PUSH2 0xA2B ADD MSTORE DUP2 DUP2 PUSH2 0xA52 ADD MSTORE DUP2 DUP2 PUSH2 0xB2D ADD MSTORE DUP2 DUP2 PUSH2 0xBFD ADD MSTORE PUSH2 0xE46 ADD MSTORE PUSH2 0x14D8 PUSH1 0x0 RETURN INVALID PUSH1 0x80 PUSH1 0x40 MSTORE PUSH1 0x4 CALLDATASIZE LT PUSH2 0xF7 JUMPI PUSH1 0x0 CALLDATALOAD PUSH1 0xE0 SHR DUP1 PUSH4 0x901D2390 GT PUSH2 0x8A JUMPI DUP1 PUSH4 0xA5714099 GT PUSH2 0x59 JUMPI DUP1 PUSH4 0xA5714099 EQ PUSH2 0x2F9 JUMPI DUP1 PUSH4 0xD3D7C002 EQ PUSH2 0x32D JUMPI DUP1 PUSH4 0xDAC6270D EQ PUSH2 0x34D JUMPI DUP1 PUSH4 0xDB78DABD EQ PUSH2 0x362 JUMPI PUSH1 0x0 DUP1 REVERT JUMPDEST DUP1 PUSH4 0x901D2390 EQ PUSH2 0x255 JUMPI DUP1 PUSH4 0x913B722C EQ PUSH2 0x275 JUMPI DUP1 PUSH4 0x96074E70 EQ PUSH2 0x297 JUMPI DUP1 PUSH4 0xA06DB7DC EQ PUSH2 0x2B7 JUMPI PUSH1 0x0 DUP1 REVERT JUMPDEST DUP1 PUSH4 0x7D90C55B GT PUSH2 0xC6 JUMPI DUP1 PUSH4 0x7D90C55B EQ PUSH2 0x1B0 JUMPI DUP1 PUSH4 0x7FEC8D38 EQ PUSH2 0x1DF JUMPI DUP1 PUSH4 0x87729FC8 EQ PUSH2 0x1F4 JUMPI DUP1 PUSH4 0x8DA5CB5B EQ PUSH2 0x209 JUMPI PUSH1 0x0 DUP1 REVERT JUMPDEST DUP1 PUSH4 0x183FF085 EQ PUSH2 0x139 JUMPI DUP1 PUSH4 0x43A2A0D5 EQ PUSH2 0x150 JUMPI DUP1 PUSH4 0x59633A1C EQ PUSH2 0x170 JUMPI DUP1 PUSH4 0x6FF1C9BC EQ PUSH2 0x190 JUMPI PUSH1 0x0 DUP1 REVERT JUMPDEST CALLDATASIZE PUSH2 0x134 JUMPI PUSH1 0x40 MLOAD CALLVALUE DUP2 MSTORE PUSH1 0x0 SWAP1 PUSH32 0xBC7C8A4D8049A3F99A02F2A20640C206A2E4D3F2FA54FD20DA9F01FDA3620CDA SWAP1 PUSH1 0x20 ADD PUSH1 0x40 MLOAD DUP1 SWAP2 SUB SWAP1 LOG2 STOP JUMPDEST PUSH1 0x0 DUP1 REVERT JUMPDEST CALLVALUE DUP1 ISZERO PUSH2 0x145 JUMPI PUSH1 0x0 DUP1 REVERT JUMPDEST POP PUSH2 0x14E PUSH2 0x378 JUMP JUMPDEST STOP JUMPDEST CALLVALUE DUP1 ISZERO PUSH2 0x15C JUMPI PUSH1 0x0 DUP1 REVERT JUMPDEST POP PUSH2 0x14E PUSH2 0x16B CALLDATASIZE PUSH1 0x4 PUSH2 0x131B JUMP JUMPDEST PUSH2 0x4A4 JUMP JUMPDEST CALLVALUE DUP1 ISZERO PUSH2 0x17C JUMPI PUSH1 0x0 DUP1 REVERT JUMPDEST POP PUSH2 0x14E PUSH2 0x18B CALLDATASIZE PUSH1 0x4 PUSH2 0x131B JUMP JUMPDEST PUSH2 0x6D4 JUMP JUMPDEST CALLVALUE DUP1 ISZERO PUSH2 0x19C JUMPI PUSH1 0x0 DUP1 REVERT JUMPDEST POP PUSH2 0x14E PUSH2 0x1AB CALLDATASIZE PUSH1 0x4 PUSH2 0x131B JUMP JUMPDEST PUSH2 0x90B JUMP JUMPDEST CALLVALUE DUP1 ISZERO PUSH2 0x1BC JUMPI PUSH1 0x0 DUP1 REVERT JUMPDEST POP PUSH1 0x2 SLOAD PUSH2 0x1CA SWAP1 PUSH1 0xFF AND DUP2 JUMP JUMPDEST PUSH1 0x40 MLOAD SWAP1 ISZERO ISZERO DUP2 MSTORE PUSH1 0x20 ADD JUMPDEST PUSH1 0x40 MLOAD DUP1 SWAP2 SUB SWAP1 RETURN JUMPDEST CALLVALUE DUP1 ISZERO PUSH2 0x1EB JUMPI PUSH1 0x0 DUP1 REVERT JUMPDEST POP PUSH2 0x14E PUSH2 0xACA JUMP JUMPDEST CALLVALUE DUP1 ISZERO PUSH2 0x200 JUMPI PUSH1 0x0 DUP1 REVERT JUMPDEST POP PUSH2 0x1CA PUSH2 0xB7D JUMP JUMPDEST CALLVALUE DUP1 ISZERO PUSH2 0x215 JUMPI PUSH1 0x0 DUP1 REVERT JUMPDEST POP PUSH2 0x23D PUSH32 0x0 DUP2 JUMP JUMPDEST PUSH1 0x40 MLOAD PUSH1 0x1 PUSH1 0x1 PUSH1 0xA0 SHL SUB SWAP1 SWAP2 AND DUP2 MSTORE PUSH1 0x20 ADD PUSH2 0x1D6 JUMP JUMPDEST CALLVALUE DUP1 ISZERO PUSH2 0x261 JUMPI PUSH1 0x0 DUP1 REVERT JUMPDEST POP PUSH2 0x14E PUSH2 0x270 CALLDATASIZE PUSH1 0x4 PUSH2 0x133F JUMP JUMPDEST PUSH2 0xBF2 JUMP JUMPDEST CALLVALUE DUP1 ISZERO PUSH2 0x281 JUMPI PUSH1 0x0 DUP1 REVERT JUMPDEST POP PUSH2 0x28A PUSH2 0xDB4 JUMP JUMPDEST PUSH1 0x40 MLOAD PUSH2 0x1D6 SWAP2 SWAP1 PUSH2 0x136B JUMP JUMPDEST CALLVALUE DUP1 ISZERO PUSH2 0x2A3 JUMPI PUSH1 0x0 DUP1 REVERT JUMPDEST POP PUSH2 0x14E PUSH2 0x2B2 CALLDATASIZE PUSH1 0x4 PUSH2 0x133F JUMP JUMPDEST PUSH2 0xE3B JUMP JUMPDEST CALLVALUE DUP1 ISZERO PUSH2 0x2C3 JUMPI PUSH1 0x0 DUP1 REVERT JUMPDEST POP PUSH2 0x2EB PUSH32 0x0 DUP2 JUMP JUMPDEST PUSH1 0x40 MLOAD SWAP1 DUP2 MSTORE PUSH1 0x20 ADD PUSH2 0x1D6 JUMP JUMPDEST CALLVALUE DUP1 ISZERO PUSH2 0x305 JUMPI PUSH1 0x0 DUP1 REVERT JUMPDEST POP PUSH2 0x2EB PUSH32 0x0 DUP2 JUMP JUMPDEST CALLVALUE DUP1 ISZERO PUSH2 0x339 JUMPI PUSH1 0x0 DUP1 REVERT JUMPDEST POP PUSH2 0x2EB PUSH2 0x348 CALLDATASIZE PUSH1 0x4 PUSH2 0x131B JUMP JUMPDEST PUSH2 0x1080 JUMP JUMPDEST CALLVALUE DUP1 ISZERO PUSH2 0x359 JUMPI PUSH1 0x0 DUP1 REVERT JUMPDEST POP PUSH2 0x2EB PUSH2 0x10F1 JUMP JUMPDEST CALLVALUE DUP1 ISZERO PUSH2 0x36E JUMPI PUSH1 0x0 DUP1 REVERT JUMPDEST POP PUSH2 0x2EB PUSH1 0x1 SLOAD DUP2 JUMP JUMPDEST CALLER PUSH1 0x1 PUSH1 0x1 PUSH1 0xA0 SHL SUB PUSH32 0x0 AND EQ PUSH2 0x3C1 JUMPI PUSH1 0x40 MLOAD PUSH4 0x5FC483C5 PUSH1 0xE0 SHL DUP2 MSTORE PUSH1 0x4 ADD PUSH1 0x40 MLOAD DUP1 SWAP2 SUB SWAP1 REVERT JUMPDEST PUSH1 0x2 SLOAD PUSH1 0xFF AND ISZERO PUSH2 0x3E5 JUMPI PUSH1 0x40 MLOAD PUSH4 0x8765D69F PUSH1 0xE0 SHL DUP2 MSTORE PUSH1 0x4 ADD PUSH1 0x40 MLOAD DUP1 SWAP2 SUB SWAP1 REVERT JUMPDEST TIMESTAMP PUSH1 0x1 DUP2 SWAP1 SSTORE POP PUSH32 0x0 PUSH1 0x1 PUSH1 0x1 PUSH1 0xA0 SHL SUB AND PUSH32 0xDDDB6E14F7F2101397A6526AAB95E964DE7F1F44ED06AA47A1C9A0E6B9924456 PUSH32 0x0 PUSH32 0x0 PUSH1 0x1 SLOAD PUSH2 0x486 SWAP2 SWAP1 PUSH2 0x13E5 JUMP JUMPDEST PUSH2 0x490 SWAP2 SWAP1 PUSH2 0x13E5 JUMP JUMPDEST PUSH1 0x40 MLOAD SWAP1 DUP2 MSTORE PUSH1 0x20 ADD JUMPDEST PUSH1 0x40 MLOAD DUP1 SWAP2 SUB SWAP1 LOG2 JUMP JUMPDEST PUSH1 0x2 SLOAD PUSH1 0xFF AND PUSH2 0x4C7 JUMPI PUSH1 0x40 MLOAD PUSH4 0x1725EECB PUSH1 0xE2 SHL DUP2 MSTORE PUSH1 0x4 ADD PUSH1 0x40 MLOAD DUP1 SWAP2 SUB SWAP1 REVERT JUMPDEST PUSH2 0x4CF PUSH2 0x1181 JUMP JUMPDEST PUSH1 0x1 PUSH1 0x1 PUSH1 0xA0 SHL SUB DUP2 AND PUSH2 0x4F6 JUMPI PUSH1 0x40 MLOAD PUSH4 0xE6C4247B PUSH1 0xE0 SHL DUP2 MSTORE PUSH1 0x4 ADD PUSH1 0x40 MLOAD DUP1 SWAP2 SUB SWAP1 REVERT JUMPDEST PUSH1 0x3 SLOAD PUSH1 0x0 SUB PUSH2 0x519 JUMPI PUSH1 0x40 MLOAD PUSH4 0xA6E387F PUSH1 0xE3 SHL DUP2 MSTORE PUSH1 0x4 ADD PUSH1 0x40 MLOAD DUP1 SWAP2 SUB SWAP1 REVERT JUMPDEST PUSH1 0x40 MLOAD PUSH4 0x70A08231 PUSH1 0xE0 SHL DUP2 MSTORE ADDRESS PUSH1 0x4 DUP3 ADD MSTORE DUP2 SWAP1 PUSH1 0x0 SWAP1 PUSH1 0x1 PUSH1 0x1 PUSH1 0xA0 SHL SUB DUP4 AND SWAP1 PUSH4 0x70A08231 SWAP1 PUSH1 0x24 ADD PUSH1 0x20 PUSH1 0x40 MLOAD DUP1 DUP4 SUB DUP2 DUP7 GAS STATICCALL ISZERO DUP1 ISZERO PUSH2 0x562 JUMPI RETURNDATASIZE PUSH1 0x0 DUP1 RETURNDATACOPY RETURNDATASIZE PUSH1 0x0 REVERT JUMPDEST POP POP POP POP PUSH1 0x40 MLOAD RETURNDATASIZE PUSH1 0x1F NOT PUSH1 0x1F DUP3 ADD AND DUP3 ADD DUP1 PUSH1 0x40 MSTORE POP DUP2 ADD SWAP1 PUSH2 0x586 SWAP2 SWAP1 PUSH2 0x13F8 JUMP JUMPDEST SWAP1 POP DUP1 PUSH1 0x0 SUB PUSH2 0x5A9 JUMPI PUSH1 0x40 MLOAD PUSH4 0x18F5992F PUSH1 0xE2 SHL DUP2 MSTORE PUSH1 0x4 ADD PUSH1 0x40 MLOAD DUP1 SWAP2 SUB SWAP1 REVERT JUMPDEST PUSH1 0x0 JUMPDEST PUSH1 0x3 SLOAD DUP2 LT ISZERO PUSH2 0x6C4 JUMPI PUSH1 0x0 PUSH1 0x3 DUP3 DUP2 SLOAD DUP2 LT PUSH2 0x5CB JUMPI PUSH2 0x5CB PUSH2 0x1411 JUMP JUMPDEST PUSH1 0x0 SWAP2 DUP3 MSTORE PUSH1 0x20 SWAP2 DUP3 SWAP1 KECCAK256 PUSH1 0x40 DUP1 MLOAD PUSH1 0x60 DUP2 ADD DUP3 MSTORE PUSH1 0x3 SWAP1 SWAP4 MUL SWAP1 SWAP2 ADD DUP1 SLOAD PUSH1 0x1 PUSH1 0x1 PUSH1 0xA0 SHL SUB AND DUP4 MSTORE PUSH1 0x1 DUP2 ADD SLOAD SWAP4 DUP4 ADD SWAP4 SWAP1 SWAP4 MSTORE PUSH1 0x2 SWAP1 SWAP3 ADD SLOAD PUSH1 0xFF AND ISZERO DUP1 ISZERO SWAP3 DUP3 ADD DUP4 SWAP1 MSTORE SWAP1 SWAP3 POP PUSH2 0x624 JUMPI POP PUSH1 0x0 DUP2 PUSH1 0x20 ADD MLOAD GT JUMPDEST ISZERO PUSH2 0x6B1 JUMPI PUSH1 0x0 PUSH2 0x2710 DUP3 PUSH1 0x20 ADD MLOAD DUP6 PUSH2 0x63E SWAP2 SWAP1 PUSH2 0x1427 JUMP JUMPDEST PUSH2 0x648 SWAP2 SWAP1 PUSH2 0x143E JUMP JUMPDEST SWAP1 POP DUP1 ISZERO PUSH2 0x6AF JUMPI DUP2 MLOAD PUSH2 0x667 SWAP1 PUSH1 0x1 PUSH1 0x1 PUSH1 0xA0 SHL SUB DUP8 AND SWAP1 DUP4 PUSH2 0x11AB JUMP JUMPDEST DUP2 PUSH1 0x0 ADD MLOAD PUSH1 0x1 PUSH1 0x1 PUSH1 0xA0 SHL SUB AND PUSH32 0x26536799ACE2C3DBE12E638EC3ADE6B4173DCF1289BE0A58D51A5003015649BD DUP3 PUSH1 0x40 MLOAD PUSH2 0x6A6 SWAP2 DUP2 MSTORE PUSH1 0x20 ADD SWAP1 JUMP JUMPDEST PUSH1 0x40 MLOAD DUP1 SWAP2 SUB SWAP1 LOG2 JUMPDEST POP JUMPDEST POP DUP1 PUSH2 0x6BC DUP2 PUSH2 0x1460 JUMP JUMPDEST SWAP2 POP POP PUSH2 0x5AC JUMP JUMPDEST POP POP POP PUSH2 0x6D1 PUSH1 0x1 PUSH1 0x0 SSTORE JUMP JUMPDEST POP JUMP JUMPDEST CALLER PUSH1 0x1 PUSH1 0x1 PUSH1 0xA0 SHL SUB PUSH32 0x0 AND EQ PUSH2 0x71D JUMPI PUSH1 0x40 MLOAD PUSH4 0x5FC483C5 PUSH1 0xE0 SHL DUP2 MSTORE PUSH1 0x4 ADD PUSH1 0x40 MLOAD DUP1 SWAP2 SUB SWAP1 REVERT JUMPDEST PUSH1 0x2 SLOAD PUSH1 0xFF AND ISZERO PUSH2 0x741 JUMPI PUSH1 0x40 MLOAD PUSH4 0x8765D69F PUSH1 0xE0 SHL DUP2 MSTORE PUSH1 0x4 ADD PUSH1 0x40 MLOAD DUP1 SWAP2 SUB SWAP1 REVERT JUMPDEST PUSH1 0x1 PUSH1 0x1 PUSH1 0xA0 SHL SUB DUP2 AND PUSH1 0x0 SWAP1 DUP2 MSTORE PUSH1 0x4 PUSH1 0x20 MSTORE PUSH1 0x40 DUP2 KECCAK256 SLOAD SWAP1 DUP2 SWAP1 SUB PUSH2 0x77B JUMPI PUSH1 0x40 MLOAD PUSH4 0x694F351F PUSH1 0xE0 SHL DUP2 MSTORE PUSH1 0x4 ADD PUSH1 0x40 MLOAD DUP1 SWAP2 SUB SWAP1 REVERT JUMPDEST PUSH1 0x0 PUSH2 0x788 PUSH1 0x1 DUP4 PUSH2 0x1479 JUMP JUMPDEST PUSH1 0x3 SLOAD SWAP1 SWAP2 POP PUSH1 0x0 SWAP1 PUSH2 0x79D SWAP1 PUSH1 0x1 SWAP1 PUSH2 0x1479 JUMP JUMPDEST SWAP1 POP DUP1 DUP3 EQ PUSH2 0x87A JUMPI PUSH1 0x0 PUSH1 0x3 DUP3 DUP2 SLOAD DUP2 LT PUSH2 0x7BB JUMPI PUSH2 0x7BB PUSH2 0x1411 JUMP JUMPDEST PUSH1 0x0 SWAP2 DUP3 MSTORE PUSH1 0x20 SWAP2 DUP3 SWAP1 KECCAK256 PUSH1 0x40 DUP1 MLOAD PUSH1 0x60 DUP2 ADD DUP3 MSTORE PUSH1 0x3 SWAP4 DUP5 MUL SWAP1 SWAP3 ADD DUP1 SLOAD PUSH1 0x1 PUSH1 0x1 PUSH1 0xA0 SHL SUB AND DUP4 MSTORE PUSH1 0x1 DUP2 ADD SLOAD SWAP5 DUP4 ADD SWAP5 SWAP1 SWAP5 MSTORE PUSH1 0x2 SWAP1 SWAP4 ADD SLOAD PUSH1 0xFF AND ISZERO ISZERO SWAP3 DUP2 ADD SWAP3 SWAP1 SWAP3 MSTORE DUP1 SLOAD SWAP2 SWAP3 POP DUP3 SWAP2 DUP6 SWAP1 DUP2 LT PUSH2 0x81A JUMPI PUSH2 0x81A PUSH2 0x1411 JUMP JUMPDEST PUSH1 0x0 SWAP2 DUP3 MSTORE PUSH1 0x20 DUP1 DUP4 KECCAK256 DUP5 MLOAD PUSH1 0x3 SWAP4 SWAP1 SWAP4 MUL ADD DUP1 SLOAD PUSH1 0x1 PUSH1 0x1 PUSH1 0xA0 SHL SUB NOT AND PUSH1 0x1 PUSH1 0x1 PUSH1 0xA0 SHL SUB SWAP4 DUP5 AND OR DUP2 SSTORE DUP5 DUP3 ADD MLOAD PUSH1 0x1 DUP3 ADD SSTORE PUSH1 0x40 SWAP5 DUP6 ADD MLOAD PUSH1 0x2 SWAP1 SWAP2 ADD DUP1 SLOAD PUSH1 0xFF NOT AND SWAP2 ISZERO ISZERO SWAP2 SWAP1 SWAP2 OR SWAP1 SSTORE SWAP4 MLOAD AND DUP2 MSTORE PUSH1 0x4 SWAP1 SWAP3 MSTORE SWAP1 KECCAK256 DUP4 SWAP1 SSTORE JUMPDEST PUSH1 0x3 DUP1 SLOAD DUP1 PUSH2 0x88B JUMPI PUSH2 0x88B PUSH2 0x148C JUMP JUMPDEST PUSH1 0x0 DUP3 DUP2 MSTORE PUSH1 0x20 DUP1 DUP3 KECCAK256 PUSH1 0x3 PUSH1 0x0 NOT SWAP1 SWAP5 ADD SWAP4 DUP5 MUL ADD DUP1 SLOAD PUSH1 0x1 PUSH1 0x1 PUSH1 0xA0 SHL SUB NOT AND DUP2 SSTORE PUSH1 0x1 DUP2 ADD DUP4 SWAP1 SSTORE PUSH1 0x2 ADD DUP1 SLOAD PUSH1 0xFF NOT AND SWAP1 SSTORE SWAP2 SWAP1 SWAP3 SSTORE PUSH1 0x1 PUSH1 0x1 PUSH1 0xA0 SHL SUB DUP7 AND DUP1 DUP4 MSTORE PUSH1 0x4 SWAP1 SWAP2 MSTORE PUSH1 0x40 DUP1 DUP4 KECCAK256 DUP4 SWAP1 SSTORE MLOAD SWAP1 SWAP2 PUSH32 0x72977DAD29432F655F11C2F0E72EF5124BB9ADE7A512FB7A43A9F504DF223428 SWAP2 LOG2 POP POP POP POP JUMP JUMPDEST CALLER PUSH1 0x1 PUSH1 0x1 PUSH1 0xA0 SHL SUB PUSH32 0x0 AND EQ PUSH2 0x954 JUMPI PUSH1 0x40 MLOAD PUSH4 0x5FC483C5 PUSH1 0xE0 SHL DUP2 MSTORE PUSH1 0x4 ADD PUSH1 0x40 MLOAD DUP1 SWAP2 SUB SWAP1 REVERT JUMPDEST PUSH1 0x2 SLOAD PUSH1 0xFF AND ISZERO PUSH2 0x978 JUMPI PUSH1 0x40 MLOAD PUSH4 0x8765D69F PUSH1 0xE0 SHL DUP2 MSTORE PUSH1 0x4 ADD PUSH1 0x40 MLOAD DUP1 SWAP2 SUB SWAP1 REVERT JUMPDEST PUSH2 0x980 PUSH2 0x1181 JUMP JUMPDEST PUSH1 0x1 PUSH1 0x1 PUSH1 0xA0 SHL SUB DUP2 AND PUSH2 0x9A7 JUMPI PUSH1 0x40 MLOAD PUSH4 0xE6C4247B PUSH1 0xE0 SHL DUP2 MSTORE PUSH1 0x4 ADD PUSH1 0x40 MLOAD DUP1 SWAP2 SUB SWAP1 REVERT JUMPDEST PUSH1 0x40 MLOAD PUSH4 0x70A08231 PUSH1 0xE0 SHL DUP2 MSTORE ADDRESS PUSH1 0x4 DUP3 ADD MSTORE DUP2 SWAP1 PUSH1 0x0 SWAP1 PUSH1 0x1 PUSH1 0x1 PUSH1 0xA0 SHL SUB DUP4 AND SWAP1 PUSH4 0x70A08231 SWAP1 PUSH1 0x24 ADD PUSH1 0x20 PUSH1 0x40 MLOAD DUP1 DUP4 SUB DUP2 DUP7 GAS STATICCALL ISZERO DUP1 ISZERO PUSH2 0x9F0 JUMPI RETURNDATASIZE PUSH1 0x0 DUP1 RETURNDATACOPY RETURNDATASIZE PUSH1 0x0 REVERT JUMPDEST POP POP POP POP PUSH1 0x40 MLOAD RETURNDATASIZE PUSH1 0x1F NOT PUSH1 0x1F DUP3 ADD AND DUP3 ADD DUP1 PUSH1 0x40 MSTORE POP DUP2 ADD SWAP1 PUSH2 0xA14 SWAP2 SWAP1 PUSH2 0x13F8 JUMP JUMPDEST SWAP1 POP DUP1 ISZERO PUSH2 0xABE JUMPI PUSH2 0xA50 PUSH1 0x1 PUSH1 0x1 PUSH1 0xA0 SHL SUB DUP4 AND PUSH32 0x0 DUP4 PUSH2 0x11AB JUMP JUMPDEST PUSH32 0x0 PUSH1 0x1 PUSH1 0x1 PUSH1 0xA0 SHL SUB AND DUP4 PUSH1 0x1 PUSH1 0x1 PUSH1 0xA0 SHL SUB AND PUSH32 0x3AB9DB27A4CDD8C603A752B62D5FBD93B4B3509FE2596708E9688E42BBAC3576 DUP4 PUSH1 0x40 MLOAD PUSH2 0xAB5 SWAP2 DUP2 MSTORE PUSH1 0x20 ADD SWAP1 JUMP JUMPDEST PUSH1 0x40 MLOAD DUP1 SWAP2 SUB SWAP1 LOG3 JUMPDEST POP POP PUSH2 0x6D1 PUSH1 0x1 PUSH1 0x0 SSTORE JUMP JUMPDEST PUSH1 0x2 SLOAD PUSH1 0xFF AND ISZERO PUSH2 0xAEE JUMPI PUSH1 0x40 MLOAD PUSH4 0x8765D69F PUSH1 0xE0 SHL DUP2 MSTORE PUSH1 0x4 ADD PUSH1 0x40 MLOAD DUP1 SWAP2 SUB SWAP1 REVERT JUMPDEST PUSH2 0xAF6 PUSH2 0xB7D JUMP JUMPDEST PUSH2 0xB13 JUMPI PUSH1 0x40 MLOAD PUSH4 0x33762773 PUSH1 0xE1 SHL DUP2 MSTORE PUSH1 0x4 ADD PUSH1 0x40 MLOAD DUP1 SWAP2 SUB SWAP1 REVERT JUMPDEST PUSH1 0x2 DUP1 SLOAD PUSH1 0xFF NOT AND PUSH1 0x1 OR SWAP1 SSTORE PUSH1 0x40 MLOAD PUSH1 0x1 PUSH1 0x1 PUSH1 0xA0 SHL SUB PUSH32 0x0 AND SWAP1 PUSH32 0xFCC4435F9402AA94F1C01D3817E46D762AB7474EA31E6240D7578EC6C633E83E SWAP1 PUSH2 0x49A SWAP1 TIMESTAMP DUP2 MSTORE PUSH1 0x20 ADD SWAP1 JUMP JUMPDEST PUSH1 0x2 SLOAD PUSH1 0x0 SWAP1 PUSH1 0xFF AND ISZERO PUSH2 0xB91 JUMPI POP PUSH1 0x0 SWAP1 JUMP JUMPDEST PUSH32 0x0 PUSH32 0x0 PUSH1 0x1 SLOAD PUSH2 0xBE0 SWAP2 SWAP1 PUSH2 0x13E5 JUMP JUMPDEST PUSH2 0xBEA SWAP2 SWAP1 PUSH2 0x13E5 JUMP JUMPDEST TIMESTAMP LT ISZERO SWAP1 POP SWAP1 JUMP JUMPDEST CALLER PUSH1 0x1 PUSH1 0x1 PUSH1 0xA0 SHL SUB PUSH32 0x0 AND EQ PUSH2 0xC3B JUMPI PUSH1 0x40 MLOAD PUSH4 0x5FC483C5 PUSH1 0xE0 SHL DUP2 MSTORE PUSH1 0x4 ADD PUSH1 0x40 MLOAD DUP1 SWAP2 SUB SWAP1 REVERT JUMPDEST PUSH1 0x2 SLOAD PUSH1 0xFF AND ISZERO PUSH2 0xC5F JUMPI PUSH1 0x40 MLOAD PUSH4 0x8765D69F PUSH1 0xE0 SHL DUP2 MSTORE PUSH1 0x4 ADD PUSH1 0x40 MLOAD DUP1 SWAP2 SUB SWAP1 REVERT JUMPDEST PUSH1 0x1 PUSH1 0x1 PUSH1 0xA0 SHL SUB DUP3 AND PUSH1 0x0 SWAP1 DUP2 MSTORE PUSH1 0x4 PUSH1 0x20 MSTORE PUSH1 0x40 DUP2 KECCAK256 SLOAD SWAP1 DUP2 SWAP1 SUB PUSH2 0xC99 JUMPI PUSH1 0x40 MLOAD PUSH4 0x694F351F PUSH1 0xE0 SHL DUP2 MSTORE PUSH1 0x4 ADD PUSH1 0x40 MLOAD DUP1 SWAP2 SUB SWAP1 REVERT JUMPDEST DUP2 ISZERO DUP1 PUSH2 0xCA7 JUMPI POP PUSH2 0x2710 DUP3 GT JUMPDEST ISZERO PUSH2 0xCC5 JUMPI PUSH1 0x40 MLOAD PUSH4 0x59B3D7B7 PUSH1 0xE0 SHL DUP2 MSTORE PUSH1 0x4 ADD PUSH1 0x40 MLOAD DUP1 SWAP2 SUB SWAP1 REVERT JUMPDEST PUSH1 0x0 PUSH2 0xCD2 PUSH1 0x1 DUP4 PUSH2 0x1479 JUMP JUMPDEST SWAP1 POP PUSH1 0x0 PUSH1 0x3 DUP3 DUP2 SLOAD DUP2 LT PUSH2 0xCE9 JUMPI PUSH2 0xCE9 PUSH2 0x1411 JUMP JUMPDEST SWAP1 PUSH1 0x0 MSTORE PUSH1 0x20 PUSH1 0x0 KECCAK256 SWAP1 PUSH1 0x3 MUL ADD PUSH1 0x1 ADD SLOAD SWAP1 POP PUSH1 0x0 PUSH2 0xD07 PUSH2 0x1202 JUMP JUMPDEST SWAP1 POP PUSH2 0x2710 DUP6 PUSH2 0xD17 DUP5 DUP5 PUSH2 0x1479 JUMP JUMPDEST PUSH2 0xD21 SWAP2 SWAP1 PUSH2 0x13E5 JUMP JUMPDEST GT ISZERO PUSH2 0xD40 JUMPI PUSH1 0x40 MLOAD PUSH4 0x155D7F55 PUSH1 0xE1 SHL DUP2 MSTORE PUSH1 0x4 ADD PUSH1 0x40 MLOAD DUP1 SWAP2 SUB SWAP1 REVERT JUMPDEST DUP5 PUSH1 0x3 DUP5 DUP2 SLOAD DUP2 LT PUSH2 0xD54 JUMPI PUSH2 0xD54 PUSH2 0x1411 JUMP JUMPDEST SWAP1 PUSH1 0x0 MSTORE PUSH1 0x20 PUSH1 0x0 KECCAK256 SWAP1 PUSH1 0x3 MUL ADD PUSH1 0x1 ADD DUP2 SWAP1 SSTORE POP DUP6 PUSH1 0x1 PUSH1 0x1 PUSH1 0xA0 SHL SUB AND PUSH32 0x73D60FA978F046C1CCF0F85C6247B34D322AD63D5184881EF2F10BF3C70DDE21 DUP7 PUSH1 0x40 MLOAD PUSH2 0xDA4 SWAP2 DUP2 MSTORE PUSH1 0x20 ADD SWAP1 JUMP JUMPDEST PUSH1 0x40 MLOAD DUP1 SWAP2 SUB SWAP1 LOG2 POP POP POP POP POP POP JUMP JUMPDEST PUSH1 0x60 PUSH1 0x3 DUP1 SLOAD DUP1 PUSH1 0x20 MUL PUSH1 0x20 ADD PUSH1 0x40 MLOAD SWAP1 DUP2 ADD PUSH1 0x40 MSTORE DUP1 SWAP3 SWAP2 SWAP1 DUP2 DUP2 MSTORE PUSH1 0x20 ADD PUSH1 0x0 SWAP1 JUMPDEST DUP3 DUP3 LT ISZERO PUSH2 0xE32 JUMPI PUSH1 0x0 DUP5 DUP2 MSTORE PUSH1 0x20 SWAP1 DUP2 SWAP1 KECCAK256 PUSH1 0x40 DUP1 MLOAD PUSH1 0x60 DUP2 ADD DUP3 MSTORE PUSH1 0x3 DUP7 MUL SWAP1 SWAP3 ADD DUP1 SLOAD PUSH1 0x1 PUSH1 0x1 PUSH1 0xA0 SHL SUB AND DUP4 MSTORE PUSH1 0x1 DUP1 DUP3 ADD SLOAD DUP5 DUP7 ADD MSTORE PUSH1 0x2 SWAP1 SWAP2 ADD SLOAD PUSH1 0xFF AND ISZERO ISZERO SWAP2 DUP4 ADD SWAP2 SWAP1 SWAP2 MSTORE SWAP1 DUP4 MSTORE SWAP1 SWAP3 ADD SWAP2 ADD PUSH2 0xDD8 JUMP JUMPDEST POP POP POP POP SWAP1 POP SWAP1 JUMP JUMPDEST CALLER PUSH1 0x1 PUSH1 0x1 PUSH1 0xA0 SHL SUB PUSH32 0x0 AND EQ PUSH2 0xE84 JUMPI PUSH1 0x40 MLOAD PUSH4 0x5FC483C5 PUSH1 0xE0 SHL DUP2 MSTORE PUSH1 0x4 ADD PUSH1 0x40 MLOAD DUP1 SWAP2 SUB SWAP1 REVERT JUMPDEST PUSH1 0x2 SLOAD PUSH1 0xFF AND ISZERO PUSH2 0xEA8 JUMPI PUSH1 0x40 MLOAD PUSH4 0x8765D69F PUSH1 0xE0 SHL DUP2 MSTORE PUSH1 0x4 ADD PUSH1 0x40 MLOAD DUP1 SWAP2 SUB SWAP1 REVERT JUMPDEST PUSH1 0x1 PUSH1 0x1 PUSH1 0xA0 SHL SUB DUP3 AND PUSH2 0xECF JUMPI PUSH1 0x40 MLOAD PUSH4 0xE6C4247B PUSH1 0xE0 SHL DUP2 MSTORE PUSH1 0x4 ADD PUSH1 0x40 MLOAD DUP1 SWAP2 SUB SWAP1 REVERT JUMPDEST DUP1 ISZERO DUP1 PUSH2 0xEDD JUMPI POP PUSH2 0x2710 DUP2 GT JUMPDEST ISZERO PUSH2 0xEFB JUMPI PUSH1 0x40 MLOAD PUSH4 0x59B3D7B7 PUSH1 0xE0 SHL DUP2 MSTORE PUSH1 0x4 ADD PUSH1 0x40 MLOAD DUP1 SWAP2 SUB SWAP1 REVERT JUMPDEST PUSH1 0x1 PUSH1 0x1 PUSH1 0xA0 SHL SUB DUP3 AND PUSH1 0x0 SWAP1 DUP2 MSTORE PUSH1 0x4 PUSH1 0x20 MSTORE PUSH1 0x40 SWAP1 KECCAK256 SLOAD ISZERO PUSH2 0xF32 JUMPI PUSH1 0x40 MLOAD PUSH4 0x5E6379D7 PUSH1 0xE0 SHL DUP2 MSTORE PUSH1 0x4 ADD PUSH1 0x40 MLOAD DUP1 SWAP2 SUB SWAP1 REVERT JUMPDEST PUSH1 0x0 PUSH2 0xF3C PUSH2 0x1202 JUMP JUMPDEST SWAP1 POP PUSH2 0x2710 PUSH2 0xF4B DUP4 DUP4 PUSH2 0x13E5 JUMP JUMPDEST GT ISZERO PUSH2 0xF6A JUMPI PUSH1 0x40 MLOAD PUSH4 0x155D7F55 PUSH1 0xE1 SHL DUP2 MSTORE PUSH1 0x4 ADD PUSH1 0x40 MLOAD DUP1 SWAP2 SUB SWAP1 REVERT JUMPDEST PUSH1 0x40 DUP1 MLOAD PUSH1 0x60 DUP2 ADD DUP3 MSTORE PUSH1 0x1 PUSH1 0x1 PUSH1 0xA0 SHL SUB DUP6 DUP2 AND DUP1 DUP4 MSTORE PUSH1 0x20 DUP1 DUP5 ADD DUP8 DUP2 MSTORE PUSH1 0x1 DUP6 DUP8 ADD DUP2 DUP2 MSTORE PUSH1 0x3 DUP1 SLOAD SWAP3 DUP4 ADD DUP2 SSTORE PUSH1 0x0 DUP2 DUP2 MSTORE SWAP8 MLOAD PUSH32 0xC2575A0E9E593C00F959F8C92F12DB2869C3395A3B0502D05E2516446F71F85B SWAP4 DUP3 MUL SWAP4 DUP5 ADD DUP1 SLOAD PUSH1 0x1 PUSH1 0x1 PUSH1 0xA0 SHL SUB NOT AND SWAP2 SWAP1 SWAP9 AND OR SWAP1 SWAP7 SSTORE SWAP2 MLOAD PUSH32 0xC2575A0E9E593C00F959F8C92F12DB2869C3395A3B0502D05E2516446F71F85C DUP3 ADD SSTORE SWAP1 MLOAD PUSH32 0xC2575A0E9E593C00F959F8C92F12DB2869C3395A3B0502D05E2516446F71F85D SWAP1 SWAP2 ADD DUP1 SLOAD PUSH1 0xFF NOT AND SWAP2 ISZERO ISZERO SWAP2 SWAP1 SWAP2 OR SWAP1 SSTORE SWAP2 SLOAD DUP2 DUP5 MSTORE PUSH1 0x4 DUP4 MSTORE SWAP3 DUP5 SWAP1 KECCAK256 SWAP3 SWAP1 SWAP3 SSTORE SWAP2 MLOAD DUP5 DUP2 MSTORE SWAP1 SWAP2 PUSH32 0xE6B83177F11971BA30369BB38B914FFBA97D5969A3C857B286FA8FDBB150B3BA SWAP2 ADD PUSH1 0x40 MLOAD DUP1 SWAP2 SUB SWAP1 LOG2 POP POP POP JUMP JUMPDEST PUSH1 0x40 MLOAD PUSH4 0x70A08231 PUSH1 0xE0 SHL DUP2 MSTORE ADDRESS PUSH1 0x4 DUP3 ADD MSTORE PUSH1 0x0 SWAP1 PUSH1 0x1 PUSH1 0x1 PUSH1 0xA0 SHL SUB DUP4 AND SWAP1 PUSH4 0x70A08231 SWAP1 PUSH1 0x24 ADD PUSH1 0x20 PUSH1 0x40 MLOAD DUP1 DUP4 SUB DUP2 DUP7 GAS STATICCALL ISZERO DUP1 ISZERO PUSH2 0x10C7 JUMPI RETURNDATASIZE PUSH1 0x0 DUP1 RETURNDATACOPY RETURNDATASIZE PUSH1 0x0 REVERT JUMPDEST POP POP POP POP PUSH1 0x40 MLOAD RETURNDATASIZE PUSH1 0x1F NOT PUSH1 0x1F DUP3 ADD AND DUP3 ADD DUP1 PUSH1 0x40 MSTORE POP DUP2 ADD SWAP1 PUSH2 0x10EB SWAP2 SWAP1 PUSH2 0x13F8 JUMP JUMPDEST SWAP3 SWAP2 POP POP JUMP JUMPDEST PUSH1 0x2 SLOAD PUSH1 0x0 SWAP1 PUSH1 0xFF AND ISZERO PUSH2 0x1105 JUMPI POP PUSH1 0x0 SWAP1 JUMP JUMPDEST PUSH1 0x0 PUSH32 0x0 PUSH32 0x0 PUSH1 0x1 SLOAD PUSH2 0x1156 SWAP2 SWAP1 PUSH2 0x13E5 JUMP JUMPDEST PUSH2 0x1160 SWAP2 SWAP1 PUSH2 0x13E5 JUMP JUMPDEST SWAP1 POP DUP1 TIMESTAMP LT PUSH2 0x1171 JUMPI PUSH1 0x0 SWAP2 POP POP SWAP1 JUMP JUMPDEST PUSH2 0x117B TIMESTAMP DUP3 PUSH2 0x1479 JUMP JUMPDEST SWAP2 POP POP SWAP1 JUMP JUMPDEST PUSH1 0x2 PUSH1 0x0 SLOAD SUB PUSH2 0x11A4 JUMPI PUSH1 0x40 MLOAD PUSH4 0x3EE5AEB5 PUSH1 0xE0 SHL DUP2 MSTORE PUSH1 0x4 ADD PUSH1 0x40 MLOAD DUP1 SWAP2 SUB SWAP1 REVERT JUMPDEST PUSH1 0x2 PUSH1 0x0 SSTORE JUMP JUMPDEST PUSH1 0x40 DUP1 MLOAD PUSH1 0x1 PUSH1 0x1 PUSH1 0xA0 SHL SUB DUP5 AND PUSH1 0x24 DUP3 ADD MSTORE PUSH1 0x44 DUP1 DUP3 ADD DUP5 SWAP1 MSTORE DUP3 MLOAD DUP1 DUP4 SUB SWAP1 SWAP2 ADD DUP2 MSTORE PUSH1 0x64 SWAP1 SWAP2 ADD SWAP1 SWAP2 MSTORE PUSH1 0x20 DUP2 ADD DUP1 MLOAD PUSH1 0x1 PUSH1 0x1 PUSH1 0xE0 SHL SUB AND PUSH4 0xA9059CBB PUSH1 0xE0 SHL OR SWAP1 MSTORE PUSH2 0x11FD SWAP1 DUP5 SWAP1 PUSH2 0x128B JUMP JUMPDEST POP POP POP JUMP JUMPDEST PUSH1 0x0 DUP1 DUP1 JUMPDEST PUSH1 0x3 SLOAD DUP2 LT ISZERO PUSH2 0x1285 JUMPI PUSH1 0x3 DUP2 DUP2 SLOAD DUP2 LT PUSH2 0x1224 JUMPI PUSH2 0x1224 PUSH2 0x1411 JUMP JUMPDEST PUSH1 0x0 SWAP2 DUP3 MSTORE PUSH1 0x20 SWAP1 SWAP2 KECCAK256 PUSH1 0x2 PUSH1 0x3 SWAP1 SWAP3 MUL ADD ADD SLOAD PUSH1 0xFF AND ISZERO PUSH2 0x1273 JUMPI PUSH1 0x3 DUP2 DUP2 SLOAD DUP2 LT PUSH2 0x1253 JUMPI PUSH2 0x1253 PUSH2 0x1411 JUMP JUMPDEST SWAP1 PUSH1 0x0 MSTORE PUSH1 0x20 PUSH1 0x0 KECCAK256 SWAP1 PUSH1 0x3 MUL ADD PUSH1 0x1 ADD SLOAD DUP3 PUSH2 0x1270 SWAP2 SWAP1 PUSH2 0x13E5 JUMP JUMPDEST SWAP2 POP JUMPDEST DUP1 PUSH2 0x127D DUP2 PUSH2 0x1460 JUMP JUMPDEST SWAP2 POP POP PUSH2 0x1207 JUMP JUMPDEST POP SWAP2 SWAP1 POP JUMP JUMPDEST PUSH1 0x0 DUP1 PUSH1 0x20 PUSH1 0x0 DUP5 MLOAD PUSH1 0x20 DUP7 ADD PUSH1 0x0 DUP9 GAS CALL DUP1 PUSH2 0x12AE JUMPI PUSH1 0x40 MLOAD RETURNDATASIZE PUSH1 0x0 DUP3 RETURNDATACOPY RETURNDATASIZE DUP2 REVERT JUMPDEST POP POP PUSH1 0x0 MLOAD RETURNDATASIZE SWAP2 POP DUP2 ISZERO PUSH2 0x12C6 JUMPI DUP1 PUSH1 0x1 EQ ISZERO PUSH2 0x12D3 JUMP JUMPDEST PUSH1 0x1 PUSH1 0x1 PUSH1 0xA0 SHL SUB DUP5 AND EXTCODESIZE ISZERO JUMPDEST ISZERO PUSH2 0x1300 JUMPI PUSH1 0x40 MLOAD PUSH4 0x5274AFE7 PUSH1 0xE0 SHL DUP2 MSTORE PUSH1 0x1 PUSH1 0x1 PUSH1 0xA0 SHL SUB DUP6 AND PUSH1 0x4 DUP3 ADD MSTORE PUSH1 0x24 ADD PUSH1 0x40 MLOAD DUP1 SWAP2 SUB SWAP1 REVERT JUMPDEST POP POP POP POP JUMP JUMPDEST PUSH1 0x1 PUSH1 0x1 PUSH1 0xA0 SHL SUB DUP2 AND DUP2 EQ PUSH2 0x6D1 JUMPI PUSH1 0x0 DUP1 REVERT JUMPDEST PUSH1 0x0 PUSH1 0x20 DUP3 DUP5 SUB SLT ISZERO PUSH2 0x132D JUMPI PUSH1 0x0 DUP1 REVERT JUMPDEST DUP2 CALLDATALOAD PUSH2 0x1338 DUP2 PUSH2 0x1306 JUMP JUMPDEST SWAP4 SWAP3 POP POP POP JUMP JUMPDEST PUSH1 0x0 DUP1 PUSH1 0x40 DUP4 DUP6 SUB SLT ISZERO PUSH2 0x1352 JUMPI PUSH1 0x0 DUP1 REVERT JUMPDEST DUP3 CALLDATALOAD PUSH2 0x135D DUP2 PUSH2 0x1306 JUMP JUMPDEST SWAP5 PUSH1 0x20 SWAP4 SWAP1 SWAP4 ADD CALLDATALOAD SWAP4 POP POP POP JUMP JUMPDEST PUSH1 0x20 DUP1 DUP3 MSTORE DUP3 MLOAD DUP3 DUP3 ADD DUP2 SWAP1 MSTORE PUSH1 0x0 SWAP2 SWAP1 PUSH1 0x40 SWAP1 DUP2 DUP6 ADD SWAP1 DUP7 DUP5 ADD DUP6 JUMPDEST DUP3 DUP2 LT ISZERO PUSH2 0x13C2 JUMPI DUP2 MLOAD DUP1 MLOAD PUSH1 0x1 PUSH1 0x1 PUSH1 0xA0 SHL SUB AND DUP6 MSTORE DUP7 DUP2 ADD MLOAD DUP8 DUP7 ADD MSTORE DUP6 ADD MLOAD ISZERO ISZERO DUP6 DUP6 ADD MSTORE PUSH1 0x60 SWAP1 SWAP4 ADD SWAP3 SWAP1 DUP6 ADD SWAP1 PUSH1 0x1 ADD PUSH2 0x1388 JUMP JUMPDEST POP SWAP2 SWAP8 SWAP7 POP POP POP POP POP POP POP JUMP JUMPDEST PUSH4 0x4E487B71 PUSH1 0xE0 SHL PUSH1 0x0 MSTORE PUSH1 0x11 PUSH1 0x4 MSTORE PUSH1 0x24 PUSH1 0x0 REVERT JUMPDEST DUP1 DUP3 ADD DUP1 DUP3 GT ISZERO PUSH2 0x10EB JUMPI PUSH2 0x10EB PUSH2 0x13CF JUMP JUMPDEST PUSH1 0x0 PUSH1 0x20 DUP3 DUP5 SUB SLT ISZERO PUSH2 0x140A JUMPI PUSH1 0x0 DUP1 REVERT JUMPDEST POP MLOAD SWAP2 SWAP1 POP JUMP JUMPDEST PUSH4 0x4E487B71 PUSH1 0xE0 SHL PUSH1 0x0 MSTORE PUSH1 0x32 PUSH1 0x4 MSTORE PUSH1 0x24 PUSH1 0x0 REVERT JUMPDEST DUP1 DUP3 MUL DUP2 ISZERO DUP3 DUP3 DIV DUP5 EQ OR PUSH2 0x10EB JUMPI PUSH2 0x10EB PUSH2 0x13CF JUMP JUMPDEST PUSH1 0x0 DUP3 PUSH2 0x145B JUMPI PUSH4 0x4E487B71 PUSH1 0xE0 SHL PUSH1 0x0 MSTORE PUSH1 0x12 PUSH1 0x4 MSTORE PUSH1 0x24 PUSH1 0x0 REVERT JUMPDEST POP DIV SWAP1 JUMP JUMPDEST PUSH1 0x0 PUSH1 0x1 DUP3 ADD PUSH2 0x1472 JUMPI PUSH2 0x1472 PUSH2 0x13CF JUMP JUMPDEST POP PUSH1 0x1 ADD SWAP1 JUMP JUMPDEST DUP2 DUP2 SUB DUP2 DUP2 GT ISZERO PUSH2 0x10EB JUMPI PUSH2 0x10EB PUSH2 0x13CF JUMP JUMPDEST PUSH4 0x4E487B71 PUSH1 0xE0 SHL PUSH1 0x0 MSTORE PUSH1 0x31 PUSH1 0x4 MSTORE PUSH1 0x24 PUSH1 0x0 REVERT INVALID LOG2 PUSH5 0x6970667358 0x22 SLT KECCAK256 0xDC 0x4C SWAP12 MSTORE 0xE 0xAA CREATE2 0xEC PUSH30 0x82754CDFBE61A4DAE06AA1E03908868E0D9A9C23B744F464736F6C634300 ADDMOD EQ STOP CALLER "},"methodIdentifiers":{"addBeneficiary(address,uint256)":"96074e70","canTrigger()":"87729fc8","checkIn()":"183ff085","checkInPeriod()":"a5714099","distributeFunds(address)":"43a2a0d5","emergencyWithdraw(address)":"6ff1c9bc","getBeneficiaries()":"913b722c","getTimeRemaining()":"dac6270d","getVaultBalance(address)":"d3d7c002","gracePeriod()":"a06db7dc","isTriggered()":"7d90c55b","lastCheckIn()":"db78dabd","owner()":"8da5cb5b","removeBeneficiary(address)":"59633a1c","trigger()":"7fec8d38","updateBeneficiaryShare(address,uint256)":"901d2390"}}}}}