{"contracts/LiquidationEngineSepolia.sol":{"LiquidationEngineSepolia":{"abi":[{"inputs":[{"internalType":"address","name":"_uniswapRouter","type":"address"},{"internalType":"address","name":"_priceOracle","type":"address"},{"internalType":"address","name":"_usdcAddress","type":"address"},{"internalType":"address","name":"_wethAddress","type":"address"}],"stateMutability":"nonpayable","type":"constructor"},{"inputs":[],"name":"ExcessiveSlippage","type":"error"},{"inputs":[],"name":"InsufficientBalance","type":"error"},{"inputs":[],"name":"InsufficientOutputAmount","type":"error"},{"inputs":[],"name":"InvalidAddress","type":"error"},{"inputs":[],"name":"PriceOracleUnavailable","type":"error"},{"inputs":[],"name":"ReentrancyGuardReentrantCall","type":"error"},{"inputs":[{"internalType":"address","name":"token","type":"address"}],"name":"SafeERC20FailedOperation","type":"error"},{"inputs":[],"name":"SwapFailed","type":"error"},{"anonymous":false,"inputs":[{"indexed":false,"internalType":"address[]","name":"path","type":"address[]"}],"name":"SwapPathUsed","type":"event"},{"anonymous":false,"inputs":[{"indexed":true,"internalType":"address","name":"fromToken","type":"address"},{"indexed":true,"internalType":"address","name":"toToken","type":"address"},{"indexed":false,"internalType":"uint256","name":"amountIn","type":"uint256"},{"indexed":false,"internalType":"uint256","name":"amountOut","type":"uint256"},{"indexed":true,"internalType":"address","name":"recipient","type":"address"}],"name":"TokenLiquidated","type":"event"},{"inputs":[],"name":"MAX_SLIPPAGE","outputs":[{"internalType":"uint256","name":"","type":"uint256"}],"stateMutability":"view","type":"function"},{"inputs":[],"name":"MIN_LIQUIDITY_USD","outputs":[{"internalType":"uint256","name":"","type":"uint256"}],"stateMutability":"view","type":"function"},{"inputs":[{"internalType":"address[]","name":"_tokens","type":"address[]"},{"internalType":"uint256[]","name":"_amounts","type":"uint256[]"},{"internalType":"address","name":"_recipient","type":"address"}],"name":"batchLiquidate","outputs":[{"internalType":"uint256","name":"totalUSDC","type":"uint256"}],"stateMutability":"nonpayable","type":"function"},{"inputs":[{"internalType":"address","name":"_tokenAddress","type":"address"}],"name":"canLiquidateToken","outputs":[{"internalType":"bool","name":"canLiquidate","type":"bool"}],"stateMutability":"pure","type":"function"},{"inputs":[{"internalType":"address","name":"_tokenAddress","type":"address"},{"internalType":"uint256","name":"_amount","type":"uint256"},{"internalType":"address","name":"_recipient","type":"address"}],"name":"liquidateToUSDC","outputs":[{"internalType":"uint256","name":"usdcReceived","type":"uint256"}],"stateMutability":"nonpayable","type":"function"},{"inputs":[{"internalType":"address","name":"_tokenAddress","type":"address"},{"internalType":"uint256","name":"_amount","type":"uint256"}],"name":"previewSwap","outputs":[{"internalType":"uint256","name":"expectedOutput","type":"uint256"}],"stateMutability":"view","type":"function"},{"inputs":[],"name":"priceOracle","outputs":[{"internalType":"contract PriceOracle","name":"","type":"address"}],"stateMutability":"view","type":"function"},{"inputs":[],"name":"uniswapRouter","outputs":[{"internalType":"address","name":"","type":"address"}],"stateMutability":"view","type":"function"},{"inputs":[],"name":"usdcAddress","outputs":[{"internalType":"address","name":"","type":"address"}],"stateMutability":"view","type":"function"},{"inputs":[],"name":"wethAddress","outputs":[{"internalType":"address","name":"","type":"address"}],"stateMutability":"view","type":"function"}],"evm":{"bytecode":{"linkReferences":{},"object":"61010060405234801561001157600080fd5b5060405162000ed138038062000ed1833981016040819052610032916100d4565b60016000556001600160a01b038416158061005457506001600160a01b038316155b8061006657506001600160a01b038216155b8061007857506001600160a01b038116155b156100965760405163e6c4247b60e01b815260040160405180910390fd5b6001600160a01b0393841660805291831660a052821660c0521660e052610128565b80516001600160a01b03811681146100cf57600080fd5b919050565b600080600080608085870312156100ea57600080fd5b6100f3856100b8565b9350610101602086016100b8565b925061010f604086016100b8565b915061011d606086016100b8565b905092959194509250565b60805160a05160c05160e051610d31620001a0600039600061013f01526000818160a8015281816103b3015281816103f70152818161042b015281816105250152818161058f0152818161061b015261078001526000818161010501526107f201526000818161017901526104e50152610d316000f3fe608060405234801561001057600080fd5b506004361061009e5760003560e01c80635057e04b116100665780635057e04b14610161578063735de9f71461017457806390d728aa1461019b57806399144f44146101ae578063f9759518146101d157600080fd5b806302d45457146100a3578063166ebd9a146100e75780632630c12f14610100578063463c0760146101275780634f0e0ef31461013a575b600080fd5b6100ca7f000000000000000000000000000000000000000000000000000000000000000081565b6040516001600160a01b0390911681526020015b60405180910390f35b6100f2633b9aca0081565b6040519081526020016100de565b6100ca7f000000000000000000000000000000000000000000000000000000000000000081565b6100f2610135366004610aba565b6101da565b6100ca7f000000000000000000000000000000000000000000000000000000000000000081565b6100f261016f366004610b3b565b61034b565b6100ca7f000000000000000000000000000000000000000000000000000000000000000081565b6100f26101a9366004610b77565b610617565b6101c16101bc366004610ba1565b61066e565b60405190151581526020016100de565b6100f26101f481565b60006101e461068e565b8483146102045760405163e6c4247b60e01b815260040160405180910390fd5b6001600160a01b03821661022b5760405163e6c4247b60e01b815260040160405180910390fd5b60005b8581101561033757600085858381811061024a5761024a610bbc565b9050602002013511156103255730635057e04b88888481811061026f5761026f610bbc565b90506020020160208101906102849190610ba1565b87878581811061029657610296610bbc565b6040516001600160e01b031960e087901b1681526001600160a01b0394851660048201526020909102929092013560248301525090861660448201526064016020604051808303816000875af11580156102f4573d6000803e3d6000fd5b505050506040513d601f19601f820116820180604052508101906103189190610bd2565b6103229083610c01565b91505b8061032f81610c14565b91505061022e565b506103426001600055565b95945050505050565b600061035561068e565b6001600160a01b038416158061037257506001600160a01b038216155b156103905760405163e6c4247b60e01b815260040160405180910390fd5b826000036103b157604051631e9acf1760e31b815260040160405180910390fd5b7f00000000000000000000000000000000000000000000000000000000000000006001600160a01b0316846001600160a01b0316036104a65761041f6001600160a01b037f0000000000000000000000000000000000000000000000000000000000000000163384866106b8565b816001600160a01b03167f00000000000000000000000000000000000000000000000000000000000000006001600160a01b0316856001600160a01b03167fb817078069a6796e684afbee828acd4cc1c215888afdb0b8b4ee5d4a114a9cb58687604051610497929190918252602082015260400190565b60405180910390a45081610606565b6104bb6001600160a01b0385163330866106b8565b60006104c685610725565b905060006104d486866107d0565b905061050a6001600160a01b0387167f0000000000000000000000000000000000000000000000000000000000000000876108c8565b6105166103e886610c2d565b925061054c6001600160a01b037f0000000000000000000000000000000000000000000000000000000000000000168585610958565b7fe7b1f9e49bcaf9f800e6b63bdb7ecd223f61564d396622e84e38b90eaf1418818260405161057b9190610c4f565b60405180910390a1836001600160a01b03167f00000000000000000000000000000000000000000000000000000000000000006001600160a01b0316876001600160a01b03167fb817078069a6796e684afbee828acd4cc1c215888afdb0b8b4ee5d4a114a9cb588876040516105fb929190918252602082015260400190565b60405180910390a450505b6106106001600055565b9392505050565b60007f00000000000000000000000000000000000000000000000000000000000000006001600160a01b0316836001600160a01b031603610659575080610668565b6106656103e883610c2d565b90505b92915050565b60006001600160a01b03821661068657506000919050565b506001919050565b6002600054036106b157604051633ee5aeb560e01b815260040160405180910390fd5b6002600055565b6040516001600160a01b03848116602483015283811660448301526064820183905261071f9186918216906323b872dd906084015b604051602081830303815290604052915060e01b6020820180516001600160e01b03838183161783525050505061098e565b50505050565b60408051600280825260608083018452926000929190602083019080368337019050509050828160008151811061075e5761075e610bbc565b60200260200101906001600160a01b031690816001600160a01b0316815250507f0000000000000000000000000000000000000000000000000000000000000000816001815181106107b2576107b2610bbc565b6001600160a01b039092166020928302919091019091015292915050565b60405163078ebe8960e31b81526001600160a01b0383811660048301526000917f000000000000000000000000000000000000000000000000000000000000000090911690633c75f448906024016040805180830381865afa925050508015610856575060408051601f3d908101601f1916820190925261085391810190610c9c565b60015b156108bf578080156108685750600082115b156108bc57600068056bc75e2d631000006108838487610cd1565b61088d9190610c2d565b905061271061089e6101f482610ce8565b6108a89083610cd1565b6108b29190610c2d565b9350505050610668565b50505b50600092915050565b604080516001600160a01b038416602482015260448082018490528251808303909101815260649091019091526020810180516001600160e01b031663095ea7b360e01b1790526109198482610a03565b61071f576040516001600160a01b0384811660248301526000604483015261094e91869182169063095ea7b3906064016106ed565b61071f848261098e565b6040516001600160a01b0383811660248301526044820183905261098991859182169063a9059cbb906064016106ed565b505050565b600080602060008451602086016000885af1806109b1576040513d6000823e3d81fd5b50506000513d915081156109c95780600114156109d6565b6001600160a01b0384163b155b1561071f57604051635274afe760e01b81526001600160a01b038516600482015260240160405180910390fd5b6000806000806020600086516020880160008a5af192503d91506000519050828015610a4857508115610a395780600114610a48565b6000866001600160a01b03163b115b9695505050505050565b60008083601f840112610a6457600080fd5b50813567ffffffffffffffff811115610a7c57600080fd5b6020830191508360208260051b8501011115610a9757600080fd5b9250929050565b80356001600160a01b0381168114610ab557600080fd5b919050565b600080600080600060608688031215610ad257600080fd5b853567ffffffffffffffff80821115610aea57600080fd5b610af689838a01610a52565b90975095506020880135915080821115610b0f57600080fd5b50610b1c88828901610a52565b9094509250610b2f905060408701610a9e565b90509295509295909350565b600080600060608486031215610b5057600080fd5b610b5984610a9e565b925060208401359150610b6e60408501610a9e565b90509250925092565b60008060408385031215610b8a57600080fd5b610b9383610a9e565b946020939093013593505050565b600060208284031215610bb357600080fd5b61066582610a9e565b634e487b7160e01b600052603260045260246000fd5b600060208284031215610be457600080fd5b5051919050565b634e487b7160e01b600052601160045260246000fd5b8082018082111561066857610668610beb565b600060018201610c2657610c26610beb565b5060010190565b600082610c4a57634e487b7160e01b600052601260045260246000fd5b500490565b6020808252825182820181905260009190848201906040850190845b81811015610c905783516001600160a01b031683529284019291840191600101610c6b565b50909695505050505050565b60008060408385031215610caf57600080fd5b8251915060208301518015158114610cc657600080fd5b809150509250929050565b808202811582820484141761066857610668610beb565b8181038181111561066857610668610beb56fea2646970667358221220512ae51ecbd7278d18bfc81fcab691761d9ee7cf6090cd71e5a88277caace1af64736f6c63430008140033","opcodes":"PUSH2 0x100 PUSH1 0x40 MSTORE CALLVALUE DUP1 ISZERO PUSH2 0x11 JUMPI PUSH1 0x0 DUP1 REVERT JUMPDEST POP PUSH1 0x40 MLOAD PUSH3 0xED1 CODESIZE SUB DUP1 PUSH3 0xED1 DUP4 CODECOPY DUP2 ADD PUSH1 0x40 DUP2 SWAP1 MSTORE PUSH2 0x32 SWAP2 PUSH2 0xD4 JUMP JUMPDEST PUSH1 0x1 PUSH1 0x0 SSTORE PUSH1 0x1 PUSH1 0x1 PUSH1 0xA0 SHL SUB DUP5 AND ISZERO DUP1 PUSH2 0x54 JUMPI POP PUSH1 0x1 PUSH1 0x1 PUSH1 0xA0 SHL SUB DUP4 AND ISZERO JUMPDEST DUP1 PUSH2 0x66 JUMPI POP PUSH1 0x1 PUSH1 0x1 PUSH1 0xA0 SHL SUB DUP3 AND ISZERO JUMPDEST DUP1 PUSH2 0x78 JUMPI POP PUSH1 0x1 PUSH1 0x1 PUSH1 0xA0 SHL SUB DUP2 AND ISZERO JUMPDEST ISZERO PUSH2 0x96 JUMPI PUSH1 0x40 MLOAD PUSH4 0xE6C4247B PUSH1 0xE0 SHL DUP2 MSTORE PUSH1 0x4 ADD PUSH1 0x40 MLOAD DUP1 SWAP2 SUB SWAP1 REVERT JUMPDEST PUSH1 0x1 PUSH1 0x1 PUSH1 0xA0 SHL SUB SWAP4 DUP5 AND PUSH1 0x80 MSTORE SWAP2 DUP4 AND PUSH1 0xA0 MSTORE DUP3 AND PUSH1 0xC0 MSTORE AND PUSH1 0xE0 MSTORE PUSH2 0x128 JUMP JUMPDEST DUP1 MLOAD PUSH1 0x1 PUSH1 0x1 PUSH1 0xA0 SHL SUB DUP2 AND DUP2 EQ PUSH2 0xCF JUMPI PUSH1 0x0 DUP1 REVERT JUMPDEST SWAP2 SWAP1 POP JUMP JUMPDEST PUSH1 0x0 DUP1 PUSH1 0x0 DUP1 PUSH1 0x80 DUP6 DUP8 SUB SLT ISZERO PUSH2 0xEA JUMPI PUSH1 0x0 DUP1 REVERT JUMPDEST PUSH2 0xF3 DUP6 PUSH2 0xB8 JUMP JUMPDEST SWAP4 POP PUSH2 0x101 PUSH1 0x20 DUP7 ADD PUSH2 0xB8 JUMP JUMPDEST SWAP3 POP PUSH2 0x10F PUSH1 0x40 DUP7 ADD PUSH2 0xB8 JUMP JUMPDEST SWAP2 POP PUSH2 0x11D PUSH1 0x60 DUP7 ADD PUSH2 0xB8 JUMP JUMPDEST SWAP1 POP SWAP3 SWAP6 SWAP2 SWAP5 POP SWAP3 POP JUMP JUMPDEST PUSH1 0x80 MLOAD PUSH1 0xA0 MLOAD PUSH1 0xC0 MLOAD PUSH1 0xE0 MLOAD PUSH2 0xD31 PUSH3 0x1A0 PUSH1 0x0 CODECOPY PUSH1 0x0 PUSH2 0x13F ADD MSTORE PUSH1 0x0 DUP2 DUP2 PUSH1 0xA8 ADD MSTORE DUP2 DUP2 PUSH2 0x3B3 ADD MSTORE DUP2 DUP2 PUSH2 0x3F7 ADD MSTORE DUP2 DUP2 PUSH2 0x42B ADD MSTORE DUP2 DUP2 PUSH2 0x525 ADD MSTORE DUP2 DUP2 PUSH2 0x58F ADD MSTORE DUP2 DUP2 PUSH2 0x61B ADD MSTORE PUSH2 0x780 ADD MSTORE PUSH1 0x0 DUP2 DUP2 PUSH2 0x105 ADD MSTORE PUSH2 0x7F2 ADD MSTORE PUSH1 0x0 DUP2 DUP2 PUSH2 0x179 ADD MSTORE PUSH2 0x4E5 ADD MSTORE PUSH2 0xD31 PUSH1 0x0 RETURN INVALID PUSH1 0x80 PUSH1 0x40 MSTORE CALLVALUE DUP1 ISZERO PUSH2 0x10 JUMPI PUSH1 0x0 DUP1 REVERT JUMPDEST POP PUSH1 0x4 CALLDATASIZE LT PUSH2 0x9E JUMPI PUSH1 0x0 CALLDATALOAD PUSH1 0xE0 SHR DUP1 PUSH4 0x5057E04B GT PUSH2 0x66 JUMPI DUP1 PUSH4 0x5057E04B EQ PUSH2 0x161 JUMPI DUP1 PUSH4 0x735DE9F7 EQ PUSH2 0x174 JUMPI DUP1 PUSH4 0x90D728AA EQ PUSH2 0x19B JUMPI DUP1 PUSH4 0x99144F44 EQ PUSH2 0x1AE JUMPI DUP1 PUSH4 0xF9759518 EQ PUSH2 0x1D1 JUMPI PUSH1 0x0 DUP1 REVERT JUMPDEST DUP1 PUSH4 0x2D45457 EQ PUSH2 0xA3 JUMPI DUP1 PUSH4 0x166EBD9A EQ PUSH2 0xE7 JUMPI DUP1 PUSH4 0x2630C12F EQ PUSH2 0x100 JUMPI DUP1 PUSH4 0x463C0760 EQ PUSH2 0x127 JUMPI DUP1 PUSH4 0x4F0E0EF3 EQ PUSH2 0x13A JUMPI JUMPDEST PUSH1 0x0 DUP1 REVERT JUMPDEST PUSH2 0xCA PUSH32 0x0 DUP2 JUMP JUMPDEST PUSH1 0x40 MLOAD PUSH1 0x1 PUSH1 0x1 PUSH1 0xA0 SHL SUB SWAP1 SWAP2 AND DUP2 MSTORE PUSH1 0x20 ADD JUMPDEST PUSH1 0x40 MLOAD DUP1 SWAP2 SUB SWAP1 RETURN JUMPDEST PUSH2 0xF2 PUSH4 0x3B9ACA00 DUP2 JUMP JUMPDEST PUSH1 0x40 MLOAD SWAP1 DUP2 MSTORE PUSH1 0x20 ADD PUSH2 0xDE JUMP JUMPDEST PUSH2 0xCA PUSH32 0x0 DUP2 JUMP JUMPDEST PUSH2 0xF2 PUSH2 0x135 CALLDATASIZE PUSH1 0x4 PUSH2 0xABA JUMP JUMPDEST PUSH2 0x1DA JUMP JUMPDEST PUSH2 0xCA PUSH32 0x0 DUP2 JUMP JUMPDEST PUSH2 0xF2 PUSH2 0x16F CALLDATASIZE PUSH1 0x4 PUSH2 0xB3B JUMP JUMPDEST PUSH2 0x34B JUMP JUMPDEST PUSH2 0xCA PUSH32 0x0 DUP2 JUMP JUMPDEST PUSH2 0xF2 PUSH2 0x1A9 CALLDATASIZE PUSH1 0x4 PUSH2 0xB77 JUMP JUMPDEST PUSH2 0x617 JUMP JUMPDEST PUSH2 0x1C1 PUSH2 0x1BC CALLDATASIZE PUSH1 0x4 PUSH2 0xBA1 JUMP JUMPDEST PUSH2 0x66E JUMP JUMPDEST PUSH1 0x40 MLOAD SWAP1 ISZERO ISZERO DUP2 MSTORE PUSH1 0x20 ADD PUSH2 0xDE JUMP JUMPDEST PUSH2 0xF2 PUSH2 0x1F4 DUP2 JUMP JUMPDEST PUSH1 0x0 PUSH2 0x1E4 PUSH2 0x68E JUMP JUMPDEST DUP5 DUP4 EQ PUSH2 0x204 JUMPI PUSH1 0x40 MLOAD PUSH4 0xE6C4247B PUSH1 0xE0 SHL DUP2 MSTORE PUSH1 0x4 ADD PUSH1 0x40 MLOAD DUP1 SWAP2 SUB SWAP1 REVERT JUMPDEST PUSH1 0x1 PUSH1 0x1 PUSH1 0xA0 SHL SUB DUP3 AND PUSH2 0x22B JUMPI PUSH1 0x40 MLOAD PUSH4 0xE6C4247B PUSH1 0xE0 SHL DUP2 MSTORE PUSH1 0x4 ADD PUSH1 0x40 MLOAD DUP1 SWAP2 SUB SWAP1 REVERT JUMPDEST PUSH1 0x0 JUMPDEST DUP6 DUP2 LT ISZERO PUSH2 0x337 JUMPI PUSH1 0x0 DUP6 DUP6 DUP4 DUP2 DUP2 LT PUSH2 0x24A JUMPI PUSH2 0x24A PUSH2 0xBBC JUMP JUMPDEST SWAP1 POP PUSH1 0x20 MUL ADD CALLDATALOAD GT ISZERO PUSH2 0x325 JUMPI ADDRESS PUSH4 0x5057E04B DUP9 DUP9 DUP5 DUP2 DUP2 LT PUSH2 0x26F JUMPI PUSH2 0x26F PUSH2 0xBBC JUMP JUMPDEST SWAP1 POP PUSH1 0x20 MUL ADD PUSH1 0x20 DUP2 ADD SWAP1 PUSH2 0x284 SWAP2 SWAP1 PUSH2 0xBA1 JUMP JUMPDEST DUP8 DUP8 DUP6 DUP2 DUP2 LT PUSH2 0x296 JUMPI PUSH2 0x296 PUSH2 0xBBC JUMP JUMPDEST PUSH1 0x40 MLOAD PUSH1 0x1 PUSH1 0x1 PUSH1 0xE0 SHL SUB NOT PUSH1 0xE0 DUP8 SWAP1 SHL AND DUP2 MSTORE PUSH1 0x1 PUSH1 0x1 PUSH1 0xA0 SHL SUB SWAP5 DUP6 AND PUSH1 0x4 DUP3 ADD MSTORE PUSH1 0x20 SWAP1 SWAP2 MUL SWAP3 SWAP1 SWAP3 ADD CALLDATALOAD PUSH1 0x24 DUP4 ADD MSTORE POP SWAP1 DUP7 AND PUSH1 0x44 DUP3 ADD MSTORE PUSH1 0x64 ADD PUSH1 0x20 PUSH1 0x40 MLOAD DUP1 DUP4 SUB DUP2 PUSH1 0x0 DUP8 GAS CALL ISZERO DUP1 ISZERO PUSH2 0x2F4 JUMPI RETURNDATASIZE PUSH1 0x0 DUP1 RETURNDATACOPY RETURNDATASIZE PUSH1 0x0 REVERT JUMPDEST POP POP POP POP PUSH1 0x40 MLOAD RETURNDATASIZE PUSH1 0x1F NOT PUSH1 0x1F DUP3 ADD AND DUP3 ADD DUP1 PUSH1 0x40 MSTORE POP DUP2 ADD SWAP1 PUSH2 0x318 SWAP2 SWAP1 PUSH2 0xBD2 JUMP JUMPDEST PUSH2 0x322 SWAP1 DUP4 PUSH2 0xC01 JUMP JUMPDEST SWAP2 POP JUMPDEST DUP1 PUSH2 0x32F DUP2 PUSH2 0xC14 JUMP JUMPDEST SWAP2 POP POP PUSH2 0x22E JUMP JUMPDEST POP PUSH2 0x342 PUSH1 0x1 PUSH1 0x0 SSTORE JUMP JUMPDEST SWAP6 SWAP5 POP POP POP POP POP JUMP JUMPDEST PUSH1 0x0 PUSH2 0x355 PUSH2 0x68E JUMP JUMPDEST PUSH1 0x1 PUSH1 0x1 PUSH1 0xA0 SHL SUB DUP5 AND ISZERO DUP1 PUSH2 0x372 JUMPI POP PUSH1 0x1 PUSH1 0x1 PUSH1 0xA0 SHL SUB DUP3 AND ISZERO JUMPDEST ISZERO PUSH2 0x390 JUMPI PUSH1 0x40 MLOAD PUSH4 0xE6C4247B PUSH1 0xE0 SHL DUP2 MSTORE PUSH1 0x4 ADD PUSH1 0x40 MLOAD DUP1 SWAP2 SUB SWAP1 REVERT JUMPDEST DUP3 PUSH1 0x0 SUB PUSH2 0x3B1 JUMPI PUSH1 0x40 MLOAD PUSH4 0x1E9ACF17 PUSH1 0xE3 SHL DUP2 MSTORE PUSH1 0x4 ADD PUSH1 0x40 MLOAD DUP1 SWAP2 SUB SWAP1 REVERT JUMPDEST PUSH32 0x0 PUSH1 0x1 PUSH1 0x1 PUSH1 0xA0 SHL SUB AND DUP5 PUSH1 0x1 PUSH1 0x1 PUSH1 0xA0 SHL SUB AND SUB PUSH2 0x4A6 JUMPI PUSH2 0x41F PUSH1 0x1 PUSH1 0x1 PUSH1 0xA0 SHL SUB PUSH32 0x0 AND CALLER DUP5 DUP7 PUSH2 0x6B8 JUMP JUMPDEST DUP2 PUSH1 0x1 PUSH1 0x1 PUSH1 0xA0 SHL SUB AND PUSH32 0x0 PUSH1 0x1 PUSH1 0x1 PUSH1 0xA0 SHL SUB AND DUP6 PUSH1 0x1 PUSH1 0x1 PUSH1 0xA0 SHL SUB AND PUSH32 0xB817078069A6796E684AFBEE828ACD4CC1C215888AFDB0B8B4EE5D4A114A9CB5 DUP7 DUP8 PUSH1 0x40 MLOAD PUSH2 0x497 SWAP3 SWAP2 SWAP1 SWAP2 DUP3 MSTORE PUSH1 0x20 DUP3 ADD MSTORE PUSH1 0x40 ADD SWAP1 JUMP JUMPDEST PUSH1 0x40 MLOAD DUP1 SWAP2 SUB SWAP1 LOG4 POP DUP2 PUSH2 0x606 JUMP JUMPDEST PUSH2 0x4BB PUSH1 0x1 PUSH1 0x1 PUSH1 0xA0 SHL SUB DUP6 AND CALLER ADDRESS DUP7 PUSH2 0x6B8 JUMP JUMPDEST PUSH1 0x0 PUSH2 0x4C6 DUP6 PUSH2 0x725 JUMP JUMPDEST SWAP1 POP PUSH1 0x0 PUSH2 0x4D4 DUP7 DUP7 PUSH2 0x7D0 JUMP JUMPDEST SWAP1 POP PUSH2 0x50A PUSH1 0x1 PUSH1 0x1 PUSH1 0xA0 SHL SUB DUP8 AND PUSH32 0x0 DUP8 PUSH2 0x8C8 JUMP JUMPDEST PUSH2 0x516 PUSH2 0x3E8 DUP7 PUSH2 0xC2D JUMP JUMPDEST SWAP3 POP PUSH2 0x54C PUSH1 0x1 PUSH1 0x1 PUSH1 0xA0 SHL SUB PUSH32 0x0 AND DUP6 DUP6 PUSH2 0x958 JUMP JUMPDEST PUSH32 0xE7B1F9E49BCAF9F800E6B63BDB7ECD223F61564D396622E84E38B90EAF141881 DUP3 PUSH1 0x40 MLOAD PUSH2 0x57B SWAP2 SWAP1 PUSH2 0xC4F JUMP JUMPDEST PUSH1 0x40 MLOAD DUP1 SWAP2 SUB SWAP1 LOG1 DUP4 PUSH1 0x1 PUSH1 0x1 PUSH1 0xA0 SHL SUB AND PUSH32 0x0 PUSH1 0x1 PUSH1 0x1 PUSH1 0xA0 SHL SUB AND DUP8 PUSH1 0x1 PUSH1 0x1 PUSH1 0xA0 SHL SUB AND PUSH32 0xB817078069A6796E684AFBEE828ACD4CC1C215888AFDB0B8B4EE5D4A114A9CB5 DUP9 DUP8 PUSH1 0x40 MLOAD PUSH2 0x5FB SWAP3 SWAP2 SWAP1 SWAP2 DUP3 MSTORE PUSH1 0x20 DUP3 ADD MSTORE PUSH1 0x40 ADD SWAP1 JUMP JUMPDEST PUSH1 0x40 MLOAD DUP1 SWAP2 SUB SWAP1 LOG4 POP POP JUMPDEST PUSH2 0x610 PUSH1 0x1 PUSH1 0x0 SSTORE JUMP JUMPDEST SWAP4 SWAP3 POP POP POP JUMP JUMPDEST PUSH1 0x0 PUSH32 0x0 PUSH1 0x1 PUSH1 0x1 PUSH1 0xA0 SHL SUB AND DUP4 PUSH1 0x1 PUSH1 0x1 PUSH1 0xA0 SHL SUB AND SUB PUSH2 0x659 JUMPI POP DUP1 PUSH2 0x668 JUMP JUMPDEST PUSH2 0x665 PUSH2 0x3E8 DUP4 PUSH2 0xC2D JUMP JUMPDEST SWAP1 POP JUMPDEST SWAP3 SWAP2 POP POP JUMP JUMPDEST PUSH1 0x0 PUSH1 0x1 PUSH1 0x1 PUSH1 0xA0 SHL SUB DUP3 AND PUSH2 0x686 JUMPI POP PUSH1 0x0 SWAP2 SWAP1 POP JUMP JUMPDEST POP PUSH1 0x1 SWAP2 SWAP1 POP JUMP JUMPDEST PUSH1 0x2 PUSH1 0x0 SLOAD SUB PUSH2 0x6B1 JUMPI PUSH1 0x40 MLOAD PUSH4 0x3EE5AEB5 PUSH1 0xE0 SHL DUP2 MSTORE PUSH1 0x4 ADD PUSH1 0x40 MLOAD DUP1 SWAP2 SUB SWAP1 REVERT JUMPDEST PUSH1 0x2 PUSH1 0x0 SSTORE JUMP JUMPDEST PUSH1 0x40 MLOAD PUSH1 0x1 PUSH1 0x1 PUSH1 0xA0 SHL SUB DUP5 DUP2 AND PUSH1 0x24 DUP4 ADD MSTORE DUP4 DUP2 AND PUSH1 0x44 DUP4 ADD MSTORE PUSH1 0x64 DUP3 ADD DUP4 SWAP1 MSTORE PUSH2 0x71F SWAP2 DUP7 SWAP2 DUP3 AND SWAP1 PUSH4 0x23B872DD SWAP1 PUSH1 0x84 ADD JUMPDEST PUSH1 0x40 MLOAD PUSH1 0x20 DUP2 DUP4 SUB SUB DUP2 MSTORE SWAP1 PUSH1 0x40 MSTORE SWAP2 POP PUSH1 0xE0 SHL PUSH1 0x20 DUP3 ADD DUP1 MLOAD PUSH1 0x1 PUSH1 0x1 PUSH1 0xE0 SHL SUB DUP4 DUP2 DUP4 AND OR DUP4 MSTORE POP POP POP POP PUSH2 0x98E JUMP JUMPDEST POP POP POP POP JUMP JUMPDEST PUSH1 0x40 DUP1 MLOAD PUSH1 0x2 DUP1 DUP3 MSTORE PUSH1 0x60 DUP1 DUP4 ADD DUP5 MSTORE SWAP3 PUSH1 0x0 SWAP3 SWAP2 SWAP1 PUSH1 0x20 DUP4 ADD SWAP1 DUP1 CALLDATASIZE DUP4 CALLDATACOPY ADD SWAP1 POP POP SWAP1 POP DUP3 DUP2 PUSH1 0x0 DUP2 MLOAD DUP2 LT PUSH2 0x75E JUMPI PUSH2 0x75E PUSH2 0xBBC JUMP JUMPDEST PUSH1 0x20 MUL PUSH1 0x20 ADD ADD SWAP1 PUSH1 0x1 PUSH1 0x1 PUSH1 0xA0 SHL SUB AND SWAP1 DUP2 PUSH1 0x1 PUSH1 0x1 PUSH1 0xA0 SHL SUB AND DUP2 MSTORE POP POP PUSH32 0x0 DUP2 PUSH1 0x1 DUP2 MLOAD DUP2 LT PUSH2 0x7B2 JUMPI PUSH2 0x7B2 PUSH2 0xBBC JUMP JUMPDEST PUSH1 0x1 PUSH1 0x1 PUSH1 0xA0 SHL SUB SWAP1 SWAP3 AND PUSH1 0x20 SWAP3 DUP4 MUL SWAP2 SWAP1 SWAP2 ADD SWAP1 SWAP2 ADD MSTORE SWAP3 SWAP2 POP POP JUMP JUMPDEST PUSH1 0x40 MLOAD PUSH4 0x78EBE89 PUSH1 0xE3 SHL DUP2 MSTORE PUSH1 0x1 PUSH1 0x1 PUSH1 0xA0 SHL SUB DUP4 DUP2 AND PUSH1 0x4 DUP4 ADD MSTORE PUSH1 0x0 SWAP2 PUSH32 0x0 SWAP1 SWAP2 AND SWAP1 PUSH4 0x3C75F448 SWAP1 PUSH1 0x24 ADD PUSH1 0x40 DUP1 MLOAD DUP1 DUP4 SUB DUP2 DUP7 GAS STATICCALL SWAP3 POP POP POP DUP1 ISZERO PUSH2 0x856 JUMPI POP PUSH1 0x40 DUP1 MLOAD PUSH1 0x1F RETURNDATASIZE SWAP1 DUP2 ADD PUSH1 0x1F NOT AND DUP3 ADD SWAP1 SWAP3 MSTORE PUSH2 0x853 SWAP2 DUP2 ADD SWAP1 PUSH2 0xC9C JUMP JUMPDEST PUSH1 0x1 JUMPDEST ISZERO PUSH2 0x8BF JUMPI DUP1 DUP1 ISZERO PUSH2 0x868 JUMPI POP PUSH1 0x0 DUP3 GT JUMPDEST ISZERO PUSH2 0x8BC JUMPI PUSH1 0x0 PUSH9 0x56BC75E2D63100000 PUSH2 0x883 DUP5 DUP8 PUSH2 0xCD1 JUMP JUMPDEST PUSH2 0x88D SWAP2 SWAP1 PUSH2 0xC2D JUMP JUMPDEST SWAP1 POP PUSH2 0x2710 PUSH2 0x89E PUSH2 0x1F4 DUP3 PUSH2 0xCE8 JUMP JUMPDEST PUSH2 0x8A8 SWAP1 DUP4 PUSH2 0xCD1 JUMP JUMPDEST PUSH2 0x8B2 SWAP2 SWAP1 PUSH2 0xC2D JUMP JUMPDEST SWAP4 POP POP POP POP PUSH2 0x668 JUMP JUMPDEST POP POP JUMPDEST POP PUSH1 0x0 SWAP3 SWAP2 POP POP JUMP JUMPDEST PUSH1 0x40 DUP1 MLOAD PUSH1 0x1 PUSH1 0x1 PUSH1 0xA0 SHL SUB DUP5 AND PUSH1 0x24 DUP3 ADD MSTORE PUSH1 0x44 DUP1 DUP3 ADD DUP5 SWAP1 MSTORE DUP3 MLOAD DUP1 DUP4 SUB SWAP1 SWAP2 ADD DUP2 MSTORE PUSH1 0x64 SWAP1 SWAP2 ADD SWAP1 SWAP2 MSTORE PUSH1 0x20 DUP2 ADD DUP1 MLOAD PUSH1 0x1 PUSH1 0x1 PUSH1 0xE0 SHL SUB AND PUSH4 0x95EA7B3 PUSH1 0xE0 SHL OR SWAP1 MSTORE PUSH2 0x919 DUP5 DUP3 PUSH2 0xA03 JUMP JUMPDEST PUSH2 0x71F JUMPI PUSH1 0x40 MLOAD PUSH1 0x1 PUSH1 0x1 PUSH1 0xA0 SHL SUB DUP5 DUP2 AND PUSH1 0x24 DUP4 ADD MSTORE PUSH1 0x0 PUSH1 0x44 DUP4 ADD MSTORE PUSH2 0x94E SWAP2 DUP7 SWAP2 DUP3 AND SWAP1 PUSH4 0x95EA7B3 SWAP1 PUSH1 0x64 ADD PUSH2 0x6ED JUMP JUMPDEST PUSH2 0x71F DUP5 DUP3 PUSH2 0x98E JUMP JUMPDEST PUSH1 0x40 MLOAD PUSH1 0x1 PUSH1 0x1 PUSH1 0xA0 SHL SUB DUP4 DUP2 AND PUSH1 0x24 DUP4 ADD MSTORE PUSH1 0x44 DUP3 ADD DUP4 SWAP1 MSTORE PUSH2 0x989 SWAP2 DUP6 SWAP2 DUP3 AND SWAP1 PUSH4 0xA9059CBB SWAP1 PUSH1 0x64 ADD PUSH2 0x6ED JUMP JUMPDEST POP POP POP JUMP JUMPDEST PUSH1 0x0 DUP1 PUSH1 0x20 PUSH1 0x0 DUP5 MLOAD PUSH1 0x20 DUP7 ADD PUSH1 0x0 DUP9 GAS CALL DUP1 PUSH2 0x9B1 JUMPI PUSH1 0x40 MLOAD RETURNDATASIZE PUSH1 0x0 DUP3 RETURNDATACOPY RETURNDATASIZE DUP2 REVERT JUMPDEST POP POP PUSH1 0x0 MLOAD RETURNDATASIZE SWAP2 POP DUP2 ISZERO PUSH2 0x9C9 JUMPI DUP1 PUSH1 0x1 EQ ISZERO PUSH2 0x9D6 JUMP JUMPDEST PUSH1 0x1 PUSH1 0x1 PUSH1 0xA0 SHL SUB DUP5 AND EXTCODESIZE ISZERO JUMPDEST ISZERO PUSH2 0x71F JUMPI PUSH1 0x40 MLOAD PUSH4 0x5274AFE7 PUSH1 0xE0 SHL DUP2 MSTORE PUSH1 0x1 PUSH1 0x1 PUSH1 0xA0 SHL SUB DUP6 AND PUSH1 0x4 DUP3 ADD MSTORE PUSH1 0x24 ADD PUSH1 0x40 MLOAD DUP1 SWAP2 SUB SWAP1 REVERT JUMPDEST PUSH1 0x0 DUP1 PUSH1 0x0 DUP1 PUSH1 0x20 PUSH1 0x0 DUP7 MLOAD PUSH1 0x20 DUP9 ADD PUSH1 0x0 DUP11 GAS CALL SWAP3 POP RETURNDATASIZE SWAP2 POP PUSH1 0x0 MLOAD SWAP1 POP DUP3 DUP1 ISZERO PUSH2 0xA48 JUMPI POP DUP2 ISZERO PUSH2 0xA39 JUMPI DUP1 PUSH1 0x1 EQ PUSH2 0xA48 JUMP JUMPDEST PUSH1 0x0 DUP7 PUSH1 0x1 PUSH1 0x1 PUSH1 0xA0 SHL SUB AND EXTCODESIZE GT JUMPDEST SWAP7 SWAP6 POP POP POP POP POP POP JUMP JUMPDEST PUSH1 0x0 DUP1 DUP4 PUSH1 0x1F DUP5 ADD SLT PUSH2 0xA64 JUMPI PUSH1 0x0 DUP1 REVERT JUMPDEST POP DUP2 CALLDATALOAD PUSH8 0xFFFFFFFFFFFFFFFF DUP2 GT ISZERO PUSH2 0xA7C JUMPI PUSH1 0x0 DUP1 REVERT JUMPDEST PUSH1 0x20 DUP4 ADD SWAP2 POP DUP4 PUSH1 0x20 DUP3 PUSH1 0x5 SHL DUP6 ADD ADD GT ISZERO PUSH2 0xA97 JUMPI PUSH1 0x0 DUP1 REVERT JUMPDEST SWAP3 POP SWAP3 SWAP1 POP JUMP JUMPDEST DUP1 CALLDATALOAD PUSH1 0x1 PUSH1 0x1 PUSH1 0xA0 SHL SUB DUP2 AND DUP2 EQ PUSH2 0xAB5 JUMPI PUSH1 0x0 DUP1 REVERT JUMPDEST SWAP2 SWAP1 POP JUMP JUMPDEST PUSH1 0x0 DUP1 PUSH1 0x0 DUP1 PUSH1 0x0 PUSH1 0x60 DUP7 DUP9 SUB SLT ISZERO PUSH2 0xAD2 JUMPI PUSH1 0x0 DUP1 REVERT JUMPDEST DUP6 CALLDATALOAD PUSH8 0xFFFFFFFFFFFFFFFF DUP1 DUP3 GT ISZERO PUSH2 0xAEA JUMPI PUSH1 0x0 DUP1 REVERT JUMPDEST PUSH2 0xAF6 DUP10 DUP4 DUP11 ADD PUSH2 0xA52 JUMP JUMPDEST SWAP1 SWAP8 POP SWAP6 POP PUSH1 0x20 DUP9 ADD CALLDATALOAD SWAP2 POP DUP1 DUP3 GT ISZERO PUSH2 0xB0F JUMPI PUSH1 0x0 DUP1 REVERT JUMPDEST POP PUSH2 0xB1C DUP9 DUP3 DUP10 ADD PUSH2 0xA52 JUMP JUMPDEST SWAP1 SWAP5 POP SWAP3 POP PUSH2 0xB2F SWAP1 POP PUSH1 0x40 DUP8 ADD PUSH2 0xA9E JUMP JUMPDEST SWAP1 POP SWAP3 SWAP6 POP SWAP3 SWAP6 SWAP1 SWAP4 POP JUMP JUMPDEST PUSH1 0x0 DUP1 PUSH1 0x0 PUSH1 0x60 DUP5 DUP7 SUB SLT ISZERO PUSH2 0xB50 JUMPI PUSH1 0x0 DUP1 REVERT JUMPDEST PUSH2 0xB59 DUP5 PUSH2 0xA9E JUMP JUMPDEST SWAP3 POP PUSH1 0x20 DUP5 ADD CALLDATALOAD SWAP2 POP PUSH2 0xB6E PUSH1 0x40 DUP6 ADD PUSH2 0xA9E JUMP JUMPDEST SWAP1 POP SWAP3 POP SWAP3 POP SWAP3 JUMP JUMPDEST PUSH1 0x0 DUP1 PUSH1 0x40 DUP4 DUP6 SUB SLT ISZERO PUSH2 0xB8A JUMPI PUSH1 0x0 DUP1 REVERT JUMPDEST PUSH2 0xB93 DUP4 PUSH2 0xA9E JUMP JUMPDEST SWAP5 PUSH1 0x20 SWAP4 SWAP1 SWAP4 ADD CALLDATALOAD SWAP4 POP POP POP JUMP JUMPDEST PUSH1 0x0 PUSH1 0x20 DUP3 DUP5 SUB SLT ISZERO PUSH2 0xBB3 JUMPI PUSH1 0x0 DUP1 REVERT JUMPDEST PUSH2 0x665 DUP3 PUSH2 0xA9E JUMP JUMPDEST PUSH4 0x4E487B71 PUSH1 0xE0 SHL PUSH1 0x0 MSTORE PUSH1 0x32 PUSH1 0x4 MSTORE PUSH1 0x24 PUSH1 0x0 REVERT JUMPDEST PUSH1 0x0 PUSH1 0x20 DUP3 DUP5 SUB SLT ISZERO PUSH2 0xBE4 JUMPI PUSH1 0x0 DUP1 REVERT JUMPDEST POP MLOAD SWAP2 SWAP1 POP JUMP JUMPDEST PUSH4 0x4E487B71 PUSH1 0xE0 SHL PUSH1 0x0 MSTORE PUSH1 0x11 PUSH1 0x4 MSTORE PUSH1 0x24 PUSH1 0x0 REVERT JUMPDEST DUP1 DUP3 ADD DUP1 DUP3 GT ISZERO PUSH2 0x668 JUMPI PUSH2 0x668 PUSH2 0xBEB JUMP JUMPDEST PUSH1 0x0 PUSH1 0x1 DUP3 ADD PUSH2 0xC26 JUMPI PUSH2 0xC26 PUSH2 0xBEB JUMP JUMPDEST POP PUSH1 0x1 ADD SWAP1 JUMP JUMPDEST PUSH1 0x0 DUP3 PUSH2 0xC4A JUMPI PUSH4 0x4E487B71 PUSH1 0xE0 SHL PUSH1 0x0 MSTORE PUSH1 0x12 PUSH1 0x4 MSTORE PUSH1 0x24 PUSH1 0x0 REVERT JUMPDEST POP DIV SWAP1 JUMP JUMPDEST PUSH1 0x20 DUP1 DUP3 MSTORE DUP3 MLOAD DUP3 DUP3 ADD DUP2 SWAP1 MSTORE PUSH1 0x0 SWAP2 SWAP1 DUP5 DUP3 ADD SWAP1 PUSH1 0x40 DUP6 ADD SWAP1 DUP5 JUMPDEST DUP2 DUP2 LT ISZERO PUSH2 0xC90 JUMPI DUP4 MLOAD PUSH1 0x1 PUSH1 0x1 PUSH1 0xA0 SHL SUB AND DUP4 MSTORE SWAP3 DUP5 ADD SWAP3 SWAP2 DUP5 ADD SWAP2 PUSH1 0x1 ADD PUSH2 0xC6B JUMP JUMPDEST POP SWAP1 SWAP7 SWAP6 POP POP POP POP POP POP JUMP JUMPDEST PUSH1 0x0 DUP1 PUSH1 0x40 DUP4 DUP6 SUB SLT ISZERO PUSH2 0xCAF JUMPI PUSH1 0x0 DUP1 REVERT JUMPDEST DUP3 MLOAD SWAP2 POP PUSH1 0x20 DUP4 ADD MLOAD DUP1 ISZERO ISZERO DUP2 EQ PUSH2 0xCC6 JUMPI PUSH1 0x0 DUP1 REVERT JUMPDEST DUP1 SWAP2 POP POP SWAP3 POP SWAP3 SWAP1 POP JUMP JUMPDEST DUP1 DUP3 MUL DUP2 ISZERO DUP3 DUP3 DIV DUP5 EQ OR PUSH2 0x668 JUMPI PUSH2 0x668 PUSH2 0xBEB JUMP JUMPDEST DUP2 DUP2 SUB DUP2 DUP2 GT ISZERO PUSH2 0x668 JUMPI PUSH2 0x668 PUSH2 0xBEB JUMP INVALID LOG2 PUSH5 0x6970667358 0x22 SLT KECCAK256 MLOAD 0x2A 0xE5 0x1E 0xCB 0xD7 0x27 DUP14 XOR 0xBF 0xC8 0x1F 0xCA 0xB6 SWAP2 PUSH23 0x1D9EE7CF6090CD71E5A88277CAACE1AF64736F6C634300 ADDMOD EQ STOP CALLER "},"methodIdentifiers":{"MAX_SLIPPAGE()":"f9759518","MIN_LIQUIDITY_USD()":"166ebd9a","batchLiquidate(address[],uint256[],address)":"463c0760","canLiquidateToken(address)":"99144f44","liquidateToUSDC(address,uint256,address)":"5057e04b","previewSwap(address,uint256)":"90d728aa","priceOracle()":"2630c12f","uniswapRouter()":"735de9f7","usdcAddress()":"02d45457","wethAddress()":"4f0e0ef3"}}}}}