{
  "_format": "hh-sol-artifact-1",
  "contractName": "LiquidationEngineSepolia",
  "sourceName": "contracts/LiquidationEngineSepolia.sol",
  "abi": [
    {
      "inputs": [
        {
          "internalType": "address",
          "name": "_uniswapRouter",
          "type": "address"
        },
        {
          "internalType": "address",
          "name": "_priceOracle",
          "type": "address"
        },
        {
          "internalType": "address",
          "name": "_usdcAddress",
          "type": "address"
        },
        {
          "internalType": "address",
          "name": "_wethAddress",
          "type": "address"
        }
      ],
      "stateMutability": "nonpayable",
      "type": "constructor"
    },
    {
      "inputs": [],
      "name": "ExcessiveSlippage",
      "type": "error"
    },
    {
      "inputs": [],
      "name": "InsufficientBalance",
      "type": "error"
    },
    {
      "inputs": [],
      "name": "InsufficientOutputAmount",
      "type": "error"
    },
    {
      "inputs": [],
      "name": "InvalidAddress",
      "type": "error"
    },
    {
      "inputs": [],
      "name": "PriceOracleUnavailable",
      "type": "error"
    },
    {
      "inputs": [],
      "name": "ReentrancyGuardReentrantCall",
      "type": "error"
    },
    {
      "inputs": [
        {
          "internalType": "address",
          "name": "token",
          "type": "address"
        }
      ],
      "name": "SafeERC20FailedOperation",
      "type": "error"
    },
    {
      "inputs": [],
      "name": "SwapFailed",
      "type": "error"
    },
    {
      "anonymous": false,
      "inputs": [
        {
          "indexed": false,
          "internalType": "address[]",
          "name": "path",
          "type": "address[]"
        }
      ],
      "name": "SwapPathUsed",
      "type": "event"
    },
    {
      "anonymous": false,
      "inputs": [
        {
          "indexed": true,
          "internalType": "address",
          "name": "fromToken",
          "type": "address"
        },
        {
          "indexed": true,
          "internalType": "address",
          "name": "toToken",
          "type": "address"
        },
        {
          "indexed": false,
          "internalType": "uint256",
          "name": "amountIn",
          "type": "uint256"
        },
        {
          "indexed": false,
          "internalType": "uint256",
          "name": "amountOut",
          "type": "uint256"
        },
        {
          "indexed": true,
          "internalType": "address",
          "name": "recipient",
          "type": "address"
        }
      ],
      "name": "TokenLiquidated",
      "type": "event"
    },
    {
      "inputs": [],
      "name": "MAX_SLIPPAGE",
      "outputs": [
        {
          "internalType": "uint256",
          "name": "",
          "type": "uint256"
        }
      ],
      "stateMutability": "view",
      "type": "function"
    },
    {
      "inputs": [],
      "name": "MIN_LIQUIDITY_USD",
      "outputs": [
        {
          "internalType": "uint256",
          "name": "",
          "type": "uint256"
        }
      ],
      "stateMutability": "view",
      "type": "function"
    },
    {
      "inputs": [
        {
          "internalType": "address[]",
          "name": "_tokens",
          "type": "address[]"
        },
        {
          "internalType": "uint256[]",
          "name": "_amounts",
          "type": "uint256[]"
        },
        {
          "internalType": "address",
          "name": "_recipient",
          "type": "address"
        }
      ],
      "name": "batchLiquidate",
      "outputs": [
        {
          "internalType": "uint256",
          "name": "totalUSDC",
          "type": "uint256"
        }
      ],
      "stateMutability": "nonpayable",
      "type": "function"
    },
    {
      "inputs": [
        {
          "internalType": "address",
          "name": "_tokenAddress",
          "type": "address"
        }
      ],
      "name": "canLiquidateToken",
      "outputs": [
        {
          "internalType": "bool",
          "name": "canLiquidate",
          "type": "bool"
        }
      ],
      "stateMutability": "pure",
      "type": "function"
    },
    {
      "inputs": [
        {
          "internalType": "address",
          "name": "_tokenAddress",
          "type": "address"
        },
        {
          "internalType": "uint256",
          "name": "_amount",
          "type": "uint256"
        },
        {
          "internalType": "address",
          "name": "_recipient",
          "type": "address"
        }
      ],
      "name": "liquidateToUSDC",
      "outputs": [
        {
          "internalType": "uint256",
          "name": "usdcReceived",
          "type": "uint256"
        }
      ],
      "stateMutability": "nonpayable",
      "type": "function"
    },
    {
      "inputs": [
        {
          "internalType": "address",
          "name": "_tokenAddress",
          "type": "address"
        },
        {
          "internalType": "uint256",
          "name": "_amount",
          "type": "uint256"
        }
      ],
      "name": "previewSwap",
      "outputs": [
        {
          "internalType": "uint256",
          "name": "expectedOutput",
          "type": "uint256"
        }
      ],
      "stateMutability": "view",
      "type": "function"
    },
    {
      "inputs": [],
      "name": "priceOracle",
      "outputs": [
        {
          "internalType": "contract PriceOracle",
          "name": "",
          "type": "address"
        }
      ],
      "stateMutability": "view",
      "type": "function"
    },
    {
      "inputs": [],
      "name": "uniswapRouter",
      "outputs": [
        {
          "internalType": "address",
          "name": "",
          "type": "address"
        }
      ],
      "stateMutability": "view",
      "type": "function"
    },
    {
      "inputs": [],
      "name": "usdcAddress",
      "outputs": [
        {
          "internalType": "address",
          "name": "",
          "type": "address"
        }
      ],
      "stateMutability": "view",
      "type": "function"
    },
    {
      "inputs": [],
      "name": "wethAddress",
      "outputs": [
        {
          "internalType": "address",
          "name": "",
          "type": "address"
        }
      ],
      "stateMutability": "view",
      "type": "function"
    }
  ],
  "bytecode": "0x61010060405234801561001157600080fd5b5060405162000ed138038062000ed1833981016040819052610032916100d4565b60016000556001600160a01b038416158061005457506001600160a01b038316155b8061006657506001600160a01b038216155b8061007857506001600160a01b038116155b156100965760405163e6c4247b60e01b815260040160405180910390fd5b6001600160a01b0393841660805291831660a052821660c0521660e052610128565b80516001600160a01b03811681146100cf57600080fd5b919050565b600080600080608085870312156100ea57600080fd5b6100f3856100b8565b9350610101602086016100b8565b925061010f604086016100b8565b915061011d606086016100b8565b905092959194509250565b60805160a05160c05160e051610d31620001a0600039600061013f01526000818160a8015281816103b3015281816103f70152818161042b015281816105250152818161058f0152818161061b015261078001526000818161010501526107f201526000818161017901526104e50152610d316000f3fe608060405234801561001057600080fd5b506004361061009e5760003560e01c80635057e04b116100665780635057e04b14610161578063735de9f71461017457806390d728aa1461019b57806399144f44146101ae578063f9759518146101d157600080fd5b806302d45457146100a3578063166ebd9a146100e75780632630c12f14610100578063463c0760146101275780634f0e0ef31461013a575b600080fd5b6100ca7f000000000000000000000000000000000000000000000000000000000000000081565b6040516001600160a01b0390911681526020015b60405180910390f35b6100f2633b9aca0081565b6040519081526020016100de565b6100ca7f000000000000000000000000000000000000000000000000000000000000000081565b6100f2610135366004610aba565b6101da565b6100ca7f000000000000000000000000000000000000000000000000000000000000000081565b6100f261016f366004610b3b565b61034b565b6100ca7f000000000000000000000000000000000000000000000000000000000000000081565b6100f26101a9366004610b77565b610617565b6101c16101bc366004610ba1565b61066e565b60405190151581526020016100de565b6100f26101f481565b60006101e461068e565b8483146102045760405163e6c4247b60e01b815260040160405180910390fd5b6001600160a01b03821661022b5760405163e6c4247b60e01b815260040160405180910390fd5b60005b8581101561033757600085858381811061024a5761024a610bbc565b9050602002013511156103255730635057e04b88888481811061026f5761026f610bbc565b90506020020160208101906102849190610ba1565b87878581811061029657610296610bbc565b6040516001600160e01b031960e087901b1681526001600160a01b0394851660048201526020909102929092013560248301525090861660448201526064016020604051808303816000875af11580156102f4573d6000803e3d6000fd5b505050506040513d601f19601f820116820180604052508101906103189190610bd2565b6103229083610c01565b91505b8061032f81610c14565b91505061022e565b506103426001600055565b95945050505050565b600061035561068e565b6001600160a01b038416158061037257506001600160a01b038216155b156103905760405163e6c4247b60e01b815260040160405180910390fd5b826000036103b157604051631e9acf1760e31b815260040160405180910390fd5b7f00000000000000000000000000000000000000000000000000000000000000006001600160a01b0316846001600160a01b0316036104a65761041f6001600160a01b037f0000000000000000000000000000000000000000000000000000000000000000163384866106b8565b816001600160a01b03167f00000000000000000000000000000000000000000000000000000000000000006001600160a01b0316856001600160a01b03167fb817078069a6796e684afbee828acd4cc1c215888afdb0b8b4ee5d4a114a9cb58687604051610497929190918252602082015260400190565b60405180910390a45081610606565b6104bb6001600160a01b0385163330866106b8565b60006104c685610725565b905060006104d486866107d0565b905061050a6001600160a01b0387167f0000000000000000000000000000000000000000000000000000000000000000876108c8565b6105166103e886610c2d565b925061054c6001600160a01b037f0000000000000000000000000000000000000000000000000000000000000000168585610958565b7fe7b1f9e49bcaf9f800e6b63bdb7ecd223f61564d396622e84e38b90eaf1418818260405161057b9190610c4f565b60405180910390a1836001600160a01b03167f00000000000000000000000000000000000000000000000000000000000000006001600160a01b0316876001600160a01b03167fb817078069a6796e684afbee828acd4cc1c215888afdb0b8b4ee5d4a114a9cb588876040516105fb929190918252602082015260400190565b60405180910390a450505b6106106001600055565b9392505050565b60007f00000000000000000000000000000000000000000000000000000000000000006001600160a01b0316836001600160a01b031603610659575080610668565b6106656103e883610c2d565b90505b92915050565b60006001600160a01b03821661068657506000919050565b506001919050565b6002600054036106b157604051633ee5aeb560e01b815260040160405180910390fd5b6002600055565b6040516001600160a01b03848116602483015283811660448301526064820183905261071f9186918216906323b872dd906084015b604051602081830303815290604052915060e01b6020820180516001600160e01b03838183161783525050505061098e565b50505050565b60408051600280825260608083018452926000929190602083019080368337019050509050828160008151811061075e5761075e610bbc565b60200260200101906001600160a01b031690816001600160a01b0316815250507f0000000000000000000000000000000000000000000000000000000000000000816001815181106107b2576107b2610bbc565b6001600160a01b039092166020928302919091019091015292915050565b60405163078ebe8960e31b81526001600160a01b0383811660048301526000917f000000000000000000000000000000000000000000000000000000000000000090911690633c75f448906024016040805180830381865afa925050508015610856575060408051601f3d908101601f1916820190925261085391810190610c9c565b60015b156108bf578080156108685750600082115b156108bc57600068056bc75e2d631000006108838487610cd1565b61088d9190610c2d565b905061271061089e6101f482610ce8565b6108a89083610cd1565b6108b29190610c2d565b9350505050610668565b50505b50600092915050565b604080516001600160a01b038416602482015260448082018490528251808303909101815260649091019091526020810180516001600160e01b031663095ea7b360e01b1790526109198482610a03565b61071f576040516001600160a01b0384811660248301526000604483015261094e91869182169063095ea7b3906064016106ed565b61071f848261098e565b6040516001600160a01b0383811660248301526044820183905261098991859182169063a9059cbb906064016106ed565b505050565b600080602060008451602086016000885af1806109b1576040513d6000823e3d81fd5b50506000513d915081156109c95780600114156109d6565b6001600160a01b0384163b155b1561071f57604051635274afe760e01b81526001600160a01b038516600482015260240160405180910390fd5b6000806000806020600086516020880160008a5af192503d91506000519050828015610a4857508115610a395780600114610a48565b6000866001600160a01b03163b115b9695505050505050565b60008083601f840112610a6457600080fd5b50813567ffffffffffffffff811115610a7c57600080fd5b6020830191508360208260051b8501011115610a9757600080fd5b9250929050565b80356001600160a01b0381168114610ab557600080fd5b919050565b600080600080600060608688031215610ad257600080fd5b853567ffffffffffffffff80821115610aea57600080fd5b610af689838a01610a52565b90975095506020880135915080821115610b0f57600080fd5b50610b1c88828901610a52565b9094509250610b2f905060408701610a9e565b90509295509295909350565b600080600060608486031215610b5057600080fd5b610b5984610a9e565b925060208401359150610b6e60408501610a9e565b90509250925092565b60008060408385031215610b8a57600080fd5b610b9383610a9e565b946020939093013593505050565b600060208284031215610bb357600080fd5b61066582610a9e565b634e487b7160e01b600052603260045260246000fd5b600060208284031215610be457600080fd5b5051919050565b634e487b7160e01b600052601160045260246000fd5b8082018082111561066857610668610beb565b600060018201610c2657610c26610beb565b5060010190565b600082610c4a57634e487b7160e01b600052601260045260246000fd5b500490565b6020808252825182820181905260009190848201906040850190845b81811015610c905783516001600160a01b031683529284019291840191600101610c6b565b50909695505050505050565b60008060408385031215610caf57600080fd5b8251915060208301518015158114610cc657600080fd5b809150509250929050565b808202811582820484141761066857610668610beb565b8181038181111561066857610668610beb56fea2646970667358221220512ae51ecbd7278d18bfc81fcab691761d9ee7cf6090cd71e5a88277caace1af64736f6c63430008140033",
  "linkReferences": {},
  "deployedLinkReferences": {}
}