{
  "_format": "hh-sol-artifact-1",
  "contractName": "LiquidationEngine",
  "sourceName": "contracts/LiquidationEngine.sol",
  "abi": [
    {
      "inputs": [
        {
          "internalType": "address",
          "name": "_quickSwapRouter",
          "type": "address"
        },
        {
          "internalType": "address",
          "name": "_priceOracle",
          "type": "address"
        },
        {
          "internalType": "address",
          "name": "_usdcAddress",
          "type": "address"
        },
        {
          "internalType": "address",
          "name": "_wmaticAddress",
          "type": "address"
        }
      ],
      "stateMutability": "nonpayable",
      "type": "constructor"
    },
    {
      "inputs": [],
      "name": "ExcessiveSlippage",
      "type": "error"
    },
    {
      "inputs": [],
      "name": "InsufficientBalance",
      "type": "error"
    },
    {
      "inputs": [],
      "name": "InsufficientOutputAmount",
      "type": "error"
    },
    {
      "inputs": [],
      "name": "InvalidAddress",
      "type": "error"
    },
    {
      "inputs": [],
      "name": "PriceOracleUnavailable",
      "type": "error"
    },
    {
      "inputs": [],
      "name": "ReentrancyGuardReentrantCall",
      "type": "error"
    },
    {
      "inputs": [
        {
          "internalType": "address",
          "name": "token",
          "type": "address"
        }
      ],
      "name": "SafeERC20FailedOperation",
      "type": "error"
    },
    {
      "inputs": [],
      "name": "SwapFailed",
      "type": "error"
    },
    {
      "anonymous": false,
      "inputs": [
        {
          "indexed": false,
          "internalType": "address[]",
          "name": "path",
          "type": "address[]"
        }
      ],
      "name": "SwapPathUsed",
      "type": "event"
    },
    {
      "anonymous": false,
      "inputs": [
        {
          "indexed": true,
          "internalType": "address",
          "name": "fromToken",
          "type": "address"
        },
        {
          "indexed": true,
          "internalType": "address",
          "name": "toToken",
          "type": "address"
        },
        {
          "indexed": false,
          "internalType": "uint256",
          "name": "amountIn",
          "type": "uint256"
        },
        {
          "indexed": false,
          "internalType": "uint256",
          "name": "amountOut",
          "type": "uint256"
        },
        {
          "indexed": true,
          "internalType": "address",
          "name": "recipient",
          "type": "address"
        }
      ],
      "name": "TokenLiquidated",
      "type": "event"
    },
    {
      "inputs": [],
      "name": "MAX_SLIPPAGE",
      "outputs": [
        {
          "internalType": "uint256",
          "name": "",
          "type": "uint256"
        }
      ],
      "stateMutability": "view",
      "type": "function"
    },
    {
      "inputs": [],
      "name": "MIN_LIQUIDITY_USD",
      "outputs": [
        {
          "internalType": "uint256",
          "name": "",
          "type": "uint256"
        }
      ],
      "stateMutability": "view",
      "type": "function"
    },
    {
      "inputs": [
        {
          "internalType": "address[]",
          "name": "_tokens",
          "type": "address[]"
        },
        {
          "internalType": "uint256[]",
          "name": "_amounts",
          "type": "uint256[]"
        },
        {
          "internalType": "address",
          "name": "_recipient",
          "type": "address"
        }
      ],
      "name": "batchLiquidate",
      "outputs": [
        {
          "internalType": "uint256",
          "name": "totalUSDC",
          "type": "uint256"
        }
      ],
      "stateMutability": "nonpayable",
      "type": "function"
    },
    {
      "inputs": [
        {
          "internalType": "address",
          "name": "_tokenAddress",
          "type": "address"
        }
      ],
      "name": "canLiquidateToken",
      "outputs": [
        {
          "internalType": "bool",
          "name": "canLiquidate",
          "type": "bool"
        }
      ],
      "stateMutability": "view",
      "type": "function"
    },
    {
      "inputs": [
        {
          "internalType": "address",
          "name": "_tokenAddress",
          "type": "address"
        },
        {
          "internalType": "uint256",
          "name": "_amount",
          "type": "uint256"
        },
        {
          "internalType": "address",
          "name": "_recipient",
          "type": "address"
        }
      ],
      "name": "liquidateToUSDC",
      "outputs": [
        {
          "internalType": "uint256",
          "name": "usdcReceived",
          "type": "uint256"
        }
      ],
      "stateMutability": "nonpayable",
      "type": "function"
    },
    {
      "inputs": [
        {
          "internalType": "address",
          "name": "_tokenAddress",
          "type": "address"
        },
        {
          "internalType": "uint256",
          "name": "_amount",
          "type": "uint256"
        }
      ],
      "name": "previewSwap",
      "outputs": [
        {
          "internalType": "uint256",
          "name": "expectedOutput",
          "type": "uint256"
        }
      ],
      "stateMutability": "view",
      "type": "function"
    },
    {
      "inputs": [],
      "name": "priceOracle",
      "outputs": [
        {
          "internalType": "contract PriceOracle",
          "name": "",
          "type": "address"
        }
      ],
      "stateMutability": "view",
      "type": "function"
    },
    {
      "inputs": [],
      "name": "quickSwapRouter",
      "outputs": [
        {
          "internalType": "contract IQuickSwapRouter",
          "name": "",
          "type": "address"
        }
      ],
      "stateMutability": "view",
      "type": "function"
    },
    {
      "inputs": [],
      "name": "usdcAddress",
      "outputs": [
        {
          "internalType": "address",
          "name": "",
          "type": "address"
        }
      ],
      "stateMutability": "view",
      "type": "function"
    },
    {
      "inputs": [],
      "name": "wmaticAddress",
      "outputs": [
        {
          "internalType": "address",
          "name": "",
          "type": "address"
        }
      ],
      "stateMutability": "view",
      "type": "function"
    }
  ],
  "bytecode": "0x6101006040523480156200001257600080fd5b5060405162001456380380620014568339810160408190526200003591620000dd565b60016000556001600160a01b03841615806200005857506001600160a01b038316155b806200006b57506001600160a01b038216155b806200007e57506001600160a01b038116155b156200009d5760405163e6c4247b60e01b815260040160405180910390fd5b6001600160a01b0393841660805291831660a052821660c0521660e0526200013a565b80516001600160a01b0381168114620000d857600080fd5b919050565b60008060008060808587031215620000f457600080fd5b620000ff85620000c0565b93506200010f60208601620000c0565b92506200011f60408601620000c0565b91506200012f60608601620000c0565b905092959194509250565b60805160a05160c05160e05161127a620001dc600039600081816101880152610b7301526000818160a8015281816103b3015281816103f70152818161042b01528181610657015281816106e40152818161080001528181610a130152610bc70152600081816101050152610c3a0152600081816101af015281816104e50152818161051601528181610747015281816108640152610a6a015261127a6000f3fe608060405234801561001057600080fd5b506004361061009e5760003560e01c806390d728aa1161006657806390d728aa1461014d57806399144f4414610160578063db4b7eee14610183578063e189eb42146101aa578063f9759518146101d157600080fd5b806302d45457146100a3578063166ebd9a146100e75780632630c12f14610100578063463c0760146101275780635057e04b1461013a575b600080fd5b6100ca7f000000000000000000000000000000000000000000000000000000000000000081565b6040516001600160a01b0390911681526020015b60405180910390f35b6100f2633b9aca0081565b6040519081526020016100de565b6100ca7f000000000000000000000000000000000000000000000000000000000000000081565b6100f2610135366004610ec8565b6101da565b6100f2610148366004610f49565b61034b565b6100f261015b366004610f85565b6106e0565b61017361016e366004610faf565b6107fc565b60405190151581526020016100de565b6100ca7f000000000000000000000000000000000000000000000000000000000000000081565b6100ca7f000000000000000000000000000000000000000000000000000000000000000081565b6100f26101f481565b60006101e4610921565b8483146102045760405163e6c4247b60e01b815260040160405180910390fd5b6001600160a01b03821661022b5760405163e6c4247b60e01b815260040160405180910390fd5b60005b8581101561033757600085858381811061024a5761024a610fca565b9050602002013511156103255730635057e04b88888481811061026f5761026f610fca565b90506020020160208101906102849190610faf565b87878581811061029657610296610fca565b6040516001600160e01b031960e087901b1681526001600160a01b0394851660048201526020909102929092013560248301525090861660448201526064016020604051808303816000875af11580156102f4573d6000803e3d6000fd5b505050506040513d601f19601f820116820180604052508101906103189190610fe0565b610322908361100f565b91505b8061032f81611022565b91505061022e565b506103426001600055565b95945050505050565b6000610355610921565b6001600160a01b038416158061037257506001600160a01b038216155b156103905760405163e6c4247b60e01b815260040160405180910390fd5b826000036103b157604051631e9acf1760e31b815260040160405180910390fd5b7f00000000000000000000000000000000000000000000000000000000000000006001600160a01b0316846001600160a01b0316036104a65761041f6001600160a01b037f00000000000000000000000000000000000000000000000000000000000000001633848661094b565b816001600160a01b03167f00000000000000000000000000000000000000000000000000000000000000006001600160a01b0316856001600160a01b03167fb817078069a6796e684afbee828acd4cc1c215888afdb0b8b4ee5d4a114a9cb58687604051610497929190918252602082015260400190565b60405180910390a450816106cf565b6104bb6001600160a01b03851633308661094b565b60006104c6856109b8565b905060006104d48686610c18565b905061050a6001600160a01b0387167f000000000000000000000000000000000000000000000000000000000000000087610d10565b60606001600160a01b037f0000000000000000000000000000000000000000000000000000000000000000166338ed17398784868961054b4261012c61100f565b6040518663ffffffff1660e01b815260040161056b95949392919061107f565b6000604051808303816000875af19250505080156105ab57506040513d6000823e601f3d908101601f191682016040526105a891908101906110d1565b60015b6105c85760405163081ceff360e41b815260040160405180910390fd5b905080600182516105d9919061118f565b815181106105e9576105e9610fca565b6020026020010151935081841015610614576040516342301c2360e01b815260040160405180910390fd5b7fe7b1f9e49bcaf9f800e6b63bdb7ecd223f61564d396622e84e38b90eaf1418818360405161064391906111a2565b60405180910390a1846001600160a01b03167f00000000000000000000000000000000000000000000000000000000000000006001600160a01b0316886001600160a01b03167fb817078069a6796e684afbee828acd4cc1c215888afdb0b8b4ee5d4a114a9cb589886040516106c3929190918252602082015260400190565b60405180910390a45050505b6106d96001600055565b9392505050565b60007f00000000000000000000000000000000000000000000000000000000000000006001600160a01b0316836001600160a01b0316036107225750806107f6565b600061072d846109b8565b60405163d06ca61f60e01b81529091506001600160a01b037f0000000000000000000000000000000000000000000000000000000000000000169063d06ca61f9061077e90869085906004016111b5565b600060405180830381865afa9250505080156107bc57506040513d6000823e601f3d908101601f191682016040526107b991908101906110d1565b60015b6107ca5760009150506107f6565b80600182516107d9919061118f565b815181106107e9576107e9610fca565b6020026020010151925050505b92915050565b60007f00000000000000000000000000000000000000000000000000000000000000006001600160a01b0316826001600160a01b03160361083f57506001919050565b600061084a836109b8565b60405163d06ca61f60e01b81529091506001600160a01b037f0000000000000000000000000000000000000000000000000000000000000000169063d06ca61f906108a390670de0b6b3a76400009085906004016111b5565b600060405180830381865afa9250505080156108e157506040513d6000823e601f3d908101601f191682016040526108de91908101906110d1565b60015b6108ee5750600092915050565b600081600183516108ff919061118f565b8151811061090f5761090f610fca565b60200260200101511192505050919050565b60026000540361094457604051633ee5aeb560e01b815260040160405180910390fd5b6002600055565b6040516001600160a01b0384811660248301528381166044830152606482018390526109b29186918216906323b872dd906084015b604051602081830303815290604052915060e01b6020820180516001600160e01b038381831617835250505050610d9c565b50505050565b6040805160028082526060808301845292600092919060208301908036833701905050905082816000815181106109f1576109f1610fca565b60200260200101906001600160a01b031690816001600160a01b0316815250507f000000000000000000000000000000000000000000000000000000000000000081600181518110610a4557610a45610fca565b6001600160a01b03928316602091820292909201015260405163d06ca61f60e01b81527f00000000000000000000000000000000000000000000000000000000000000009091169063d06ca61f90610aab90670de0b6b3a76400009085906004016111b5565b600060405180830381865afa925050508015610ae957506040513d6000823e601f3d908101601f19168201604052610ae691908101906110d1565b60015b15610b1a57600081600181518110610b0357610b03610fca565b60200260200101511115610b18575092915050565b505b60408051600380825260808201909252600091602082016060803683370190505090508381600081518110610b5157610b51610fca565b60200260200101906001600160a01b031690816001600160a01b0316815250507f000000000000000000000000000000000000000000000000000000000000000081600181518110610ba557610ba5610fca565b60200260200101906001600160a01b031690816001600160a01b0316815250507f000000000000000000000000000000000000000000000000000000000000000081600281518110610bf957610bf9610fca565b6001600160a01b03909216602092830291909101909101529392505050565b60405163078ebe8960e31b81526001600160a01b0383811660048301526000917f000000000000000000000000000000000000000000000000000000000000000090911690633c75f448906024016040805180830381865afa925050508015610c9e575060408051601f3d908101601f19168201909252610c9b918101906111d6565b60015b15610d0757808015610cb05750600082115b15610d0457600068056bc75e2d63100000610ccb848761120b565b610cd59190611222565b9050612710610ce66101f48261118f565b610cf0908361120b565b610cfa9190611222565b93505050506107f6565b50505b50600092915050565b604080516001600160a01b038416602482015260448082018490528251808303909101815260649091019091526020810180516001600160e01b031663095ea7b360e01b179052610d618482610e11565b6109b2576040516001600160a01b03848116602483015260006044830152610d9691869182169063095ea7b390606401610980565b6109b284825b600080602060008451602086016000885af180610dbf576040513d6000823e3d81fd5b50506000513d91508115610dd7578060011415610de4565b6001600160a01b0384163b155b156109b257604051635274afe760e01b81526001600160a01b038516600482015260240160405180910390fd5b6000806000806020600086516020880160008a5af192503d91506000519050828015610e5657508115610e475780600114610e56565b6000866001600160a01b03163b115b9695505050505050565b60008083601f840112610e7257600080fd5b50813567ffffffffffffffff811115610e8a57600080fd5b6020830191508360208260051b8501011115610ea557600080fd5b9250929050565b80356001600160a01b0381168114610ec357600080fd5b919050565b600080600080600060608688031215610ee057600080fd5b853567ffffffffffffffff80821115610ef857600080fd5b610f0489838a01610e60565b90975095506020880135915080821115610f1d57600080fd5b50610f2a88828901610e60565b9094509250610f3d905060408701610eac565b90509295509295909350565b600080600060608486031215610f5e57600080fd5b610f6784610eac565b925060208401359150610f7c60408501610eac565b90509250925092565b60008060408385031215610f9857600080fd5b610fa183610eac565b946020939093013593505050565b600060208284031215610fc157600080fd5b6106d982610eac565b634e487b7160e01b600052603260045260246000fd5b600060208284031215610ff257600080fd5b5051919050565b634e487b7160e01b600052601160045260246000fd5b808201808211156107f6576107f6610ff9565b60006001820161103457611034610ff9565b5060010190565b600081518084526020808501945080840160005b838110156110745781516001600160a01b03168752958201959082019060010161104f565b509495945050505050565b85815284602082015260a06040820152600061109e60a083018661103b565b6001600160a01b0394909416606083015250608001529392505050565b634e487b7160e01b600052604160045260246000fd5b600060208083850312156110e457600080fd5b825167ffffffffffffffff808211156110fc57600080fd5b818501915085601f83011261111057600080fd5b815181811115611122576111226110bb565b8060051b604051601f19603f83011681018181108582111715611147576111476110bb565b60405291825284820192508381018501918883111561116557600080fd5b938501935b828510156111835784518452938501939285019261116a565b98975050505050505050565b818103818111156107f6576107f6610ff9565b6020815260006106d9602083018461103b565b8281526040602082015260006111ce604083018461103b565b949350505050565b600080604083850312156111e957600080fd5b825191506020830151801515811461120057600080fd5b809150509250929050565b80820281158282048414176107f6576107f6610ff9565b60008261123f57634e487b7160e01b600052601260045260246000fd5b50049056fea2646970667358221220ea2fe4613218b235fcce6252b23b962f61728e540bc1091ad9eb1a93a1009f8e64736f6c63430008140033",
  "linkReferences": {},
  "deployedLinkReferences": {}
}