{
  "_format": "hh-sol-artifact-1",
  "contractName": "UPIBridge",
  "sourceName": "contracts/UPIBridge.sol",
  "abi": [
    {
      "inputs": [],
      "stateMutability": "nonpayable",
      "type": "constructor"
    },
    {
      "inputs": [],
      "name": "InvalidAddress",
      "type": "error"
    },
    {
      "inputs": [],
      "name": "InvalidAmount",
      "type": "error"
    },
    {
      "inputs": [],
      "name": "OnlyAdmin",
      "type": "error"
    },
    {
      "inputs": [],
      "name": "OnlyBackend",
      "type": "error"
    },
    {
      "inputs": [],
      "name": "PayoutNotFound",
      "type": "error"
    },
    {
      "anonymous": false,
      "inputs": [
        {
          "indexed": true,
          "internalType": "address",
          "name": "oldBackend",
          "type": "address"
        },
        {
          "indexed": true,
          "internalType": "address",
          "name": "newBackend",
          "type": "address"
        }
      ],
      "name": "BackendUpdated",
      "type": "event"
    },
    {
      "anonymous": false,
      "inputs": [
        {
          "indexed": true,
          "internalType": "bytes32",
          "name": "payoutId",
          "type": "bytes32"
        },
        {
          "indexed": true,
          "internalType": "address",
          "name": "vaultAddress",
          "type": "address"
        },
        {
          "indexed": true,
          "internalType": "address",
          "name": "beneficiary",
          "type": "address"
        },
        {
          "indexed": false,
          "internalType": "uint256",
          "name": "usdcAmount",
          "type": "uint256"
        },
        {
          "indexed": false,
          "internalType": "uint256",
          "name": "inrAmount",
          "type": "uint256"
        },
        {
          "indexed": false,
          "internalType": "string",
          "name": "upiId",
          "type": "string"
        }
      ],
      "name": "PayoutRecorded",
      "type": "event"
    },
    {
      "anonymous": false,
      "inputs": [
        {
          "indexed": true,
          "internalType": "bytes32",
          "name": "payoutId",
          "type": "bytes32"
        },
        {
          "indexed": false,
          "internalType": "enum UPIBridge.PayoutStatus",
          "name": "oldStatus",
          "type": "uint8"
        },
        {
          "indexed": false,
          "internalType": "enum UPIBridge.PayoutStatus",
          "name": "newStatus",
          "type": "uint8"
        },
        {
          "indexed": false,
          "internalType": "string",
          "name": "razorpayPaymentId",
          "type": "string"
        }
      ],
      "name": "PayoutStatusUpdated",
      "type": "event"
    },
    {
      "inputs": [],
      "name": "admin",
      "outputs": [
        {
          "internalType": "address",
          "name": "",
          "type": "address"
        }
      ],
      "stateMutability": "view",
      "type": "function"
    },
    {
      "inputs": [],
      "name": "backend",
      "outputs": [
        {
          "internalType": "address",
          "name": "",
          "type": "address"
        }
      ],
      "stateMutability": "view",
      "type": "function"
    },
    {
      "inputs": [
        {
          "internalType": "address",
          "name": "",
          "type": "address"
        },
        {
          "internalType": "uint256",
          "name": "",
          "type": "uint256"
        }
      ],
      "name": "beneficiaryPayouts",
      "outputs": [
        {
          "internalType": "bytes32",
          "name": "",
          "type": "bytes32"
        }
      ],
      "stateMutability": "view",
      "type": "function"
    },
    {
      "inputs": [
        {
          "internalType": "address",
          "name": "_beneficiary",
          "type": "address"
        }
      ],
      "name": "getBeneficiaryPayouts",
      "outputs": [
        {
          "internalType": "bytes32[]",
          "name": "",
          "type": "bytes32[]"
        }
      ],
      "stateMutability": "view",
      "type": "function"
    },
    {
      "inputs": [
        {
          "internalType": "bytes32",
          "name": "_payoutId",
          "type": "bytes32"
        }
      ],
      "name": "getPayout",
      "outputs": [
        {
          "components": [
            {
              "internalType": "address",
              "name": "vaultAddress",
              "type": "address"
            },
            {
              "internalType": "address",
              "name": "beneficiary",
              "type": "address"
            },
            {
              "internalType": "uint256",
              "name": "usdcAmount",
              "type": "uint256"
            },
            {
              "internalType": "uint256",
              "name": "inrAmount",
              "type": "uint256"
            },
            {
              "internalType": "string",
              "name": "upiId",
              "type": "string"
            },
            {
              "internalType": "string",
              "name": "razorpayPaymentId",
              "type": "string"
            },
            {
              "internalType": "uint256",
              "name": "timestamp",
              "type": "uint256"
            },
            {
              "internalType": "enum UPIBridge.PayoutStatus",
              "name": "status",
              "type": "uint8"
            }
          ],
          "internalType": "struct UPIBridge.PayoutRecord",
          "name": "",
          "type": "tuple"
        }
      ],
      "stateMutability": "view",
      "type": "function"
    },
    {
      "inputs": [],
      "name": "getPendingPayoutsCount",
      "outputs": [
        {
          "internalType": "uint256",
          "name": "count",
          "type": "uint256"
        }
      ],
      "stateMutability": "view",
      "type": "function"
    },
    {
      "inputs": [
        {
          "internalType": "address",
          "name": "_vaultAddress",
          "type": "address"
        }
      ],
      "name": "getTaxReport",
      "outputs": [
        {
          "internalType": "uint256",
          "name": "totalPayouts",
          "type": "uint256"
        },
        {
          "internalType": "uint256",
          "name": "tdsAmount",
          "type": "uint256"
        }
      ],
      "stateMutability": "view",
      "type": "function"
    },
    {
      "inputs": [
        {
          "internalType": "address",
          "name": "_vaultAddress",
          "type": "address"
        }
      ],
      "name": "getVaultPayouts",
      "outputs": [
        {
          "internalType": "bytes32[]",
          "name": "",
          "type": "bytes32[]"
        }
      ],
      "stateMutability": "view",
      "type": "function"
    },
    {
      "inputs": [
        {
          "internalType": "bytes32",
          "name": "",
          "type": "bytes32"
        }
      ],
      "name": "payouts",
      "outputs": [
        {
          "internalType": "address",
          "name": "vaultAddress",
          "type": "address"
        },
        {
          "internalType": "address",
          "name": "beneficiary",
          "type": "address"
        },
        {
          "internalType": "uint256",
          "name": "usdcAmount",
          "type": "uint256"
        },
        {
          "internalType": "uint256",
          "name": "inrAmount",
          "type": "uint256"
        },
        {
          "internalType": "string",
          "name": "upiId",
          "type": "string"
        },
        {
          "internalType": "string",
          "name": "razorpayPaymentId",
          "type": "string"
        },
        {
          "internalType": "uint256",
          "name": "timestamp",
          "type": "uint256"
        },
        {
          "internalType": "enum UPIBridge.PayoutStatus",
          "name": "status",
          "type": "uint8"
        }
      ],
      "stateMutability": "view",
      "type": "function"
    },
    {
      "inputs": [
        {
          "internalType": "address",
          "name": "_vaultAddress",
          "type": "address"
        },
        {
          "internalType": "address",
          "name": "_beneficiary",
          "type": "address"
        },
        {
          "internalType": "uint256",
          "name": "_usdcAmount",
          "type": "uint256"
        },
        {
          "internalType": "string",
          "name": "_upiId",
          "type": "string"
        }
      ],
      "name": "recordPayout",
      "outputs": [
        {
          "internalType": "bytes32",
          "name": "payoutId",
          "type": "bytes32"
        }
      ],
      "stateMutability": "nonpayable",
      "type": "function"
    },
    {
      "inputs": [
        {
          "internalType": "address",
          "name": "_newBackend",
          "type": "address"
        }
      ],
      "name": "setBackend",
      "outputs": [],
      "stateMutability": "nonpayable",
      "type": "function"
    },
    {
      "inputs": [
        {
          "internalType": "address",
          "name": "_newAdmin",
          "type": "address"
        }
      ],
      "name": "transferAdmin",
      "outputs": [],
      "stateMutability": "nonpayable",
      "type": "function"
    },
    {
      "inputs": [
        {
          "internalType": "bytes32",
          "name": "_payoutId",
          "type": "bytes32"
        },
        {
          "internalType": "enum UPIBridge.PayoutStatus",
          "name": "_newStatus",
          "type": "uint8"
        },
        {
          "internalType": "string",
          "name": "_razorpayPaymentId",
          "type": "string"
        }
      ],
      "name": "updatePayoutStatus",
      "outputs": [],
      "stateMutability": "nonpayable",
      "type": "function"
    },
    {
      "inputs": [
        {
          "internalType": "address",
          "name": "",
          "type": "address"
        },
        {
          "internalType": "uint256",
          "name": "",
          "type": "uint256"
        }
      ],
      "name": "vaultPayouts",
      "outputs": [
        {
          "internalType": "bytes32",
          "name": "",
          "type": "bytes32"
        }
      ],
      "stateMutability": "view",
      "type": "function"
    }
  ],
  "bytecode": "0x608060405234801561001057600080fd5b5060008054336001600160a01b031991821681178355600180549092161790556115a790819061004090396000f3fe608060405234801561001057600080fd5b50600436106100ea5760003560e01c80638e8364e51161008c578063ce4e07d911610066578063ce4e07d914610210578063da44eadf14610230578063da7fc24f14610237578063f851a4401461024a57600080fd5b80638e8364e5146101c35780639a109664146101d6578063aeddb905146101e957600080fd5b8063365e7e98116100c8578063365e7e981461016057806348b0a5ac1461017557806364362c881461018857806375829def146101b057600080fd5b8063099e4133146100ef57806314fa752f1461011f57806319f687a114610140575b600080fd5b600154610102906001600160a01b031681565b6040516001600160a01b0390911681526020015b60405180910390f35b61013261012d366004610f2c565b61025d565b604051908152602001610116565b61015361014e366004610f9b565b610553565b6040516101169190610fbd565b61017361016e366004611001565b6105bf565b005b610153610183366004610f9b565b6106bd565b61019b610196366004610f9b565b610727565b60408051928352602083019190915201610116565b6101736101be366004610f9b565b6109d6565b6101326101d1366004611061565b610a4a565b6101326101e4366004611061565b610a7b565b6101fc6101f736600461108b565b610a97565b604051610116989796959493929190611122565b61022361021e36600461108b565b610bfd565b6040516101169190611194565b6000610132565b610173610245366004610f9b565b610dbc565b600054610102906001600160a01b031681565b6001546000906001600160a01b0316331480159061028657506000546001600160a01b03163314155b156102a457604051636bbaa1c160e01b815260040160405180910390fd5b6001600160a01b03861615806102c157506001600160a01b038516155b156102df5760405163e6c4247b60e01b815260040160405180910390fd5b836000036103005760405163162908e360e11b815260040160405180910390fd5b600580549060006103108361124f565b90915550506005546040516bffffffffffffffffffffffff19606089811b8216602084015288901b16603482015260488101869052426068820152608881019190915260a801604051602081830303815290604052805190602001209050600084605361037d9190611268565b9050604051806101000160405280886001600160a01b03168152602001876001600160a01b0316815260200186815260200182815260200185858080601f016020809104026020016040519081016040528093929190818152602001838380828437600092018290525093855250506040805160208181018352848252850152429084015250606090910152600083815260026020818152604092839020845181546001600160a01b03199081166001600160a01b0392831617835592860151600183018054909416911617909155918301519082015560608201516003820155608082015160048201906104729082611324565b5060a082015160058201906104879082611324565b5060c0820151600682015560e082015160078201805460ff191660018360038111156104b5576104b56110ea565b021790555050506001600160a01b03808816600081815260036020908152604080832080546001818101835591855283852001889055948b1680845260048352818420805496870181558452919092209093018590555184907fcf9f2e570a1e9c0ebb1344afe177ed0844273b1cab8ff594ffaa89a3712f556890610541908a9087908b908b9061140d565b60405180910390a45095945050505050565b6001600160a01b0381166000908152600360209081526040918290208054835181840281018401909452808452606093928301828280156105b357602002820191906000526020600020905b81548152602001906001019080831161059f575b50505050509050919050565b6001546001600160a01b031633148015906105e557506000546001600160a01b03163314155b1561060357604051636bbaa1c160e01b815260040160405180910390fd5b6000848152600260205260408120600681015490910361063657604051631c4ba4f560e31b815260040160405180910390fd5b60078101805460ff811691869160ff1916600183600381111561065b5761065b6110ea565b021790555082156106775760058201610675848683611437565b505b857f329b2738f5bc357edaff38491b3416165306e9f3ff65470cbd2e9a9c2e9cee56828787876040516106ad94939291906114f8565b60405180910390a2505050505050565b6001600160a01b0381166000908152600460209081526040918290208054835181840281018401909452808452606093928301828280156105b3576020028201919060005260206000209081548152602001906001019080831161059f5750505050509050919050565b6001600160a01b038116600090815260036020908152604080832080548251818502810185019093528083528493849392919083018282801561078957602002820191906000526020600020905b815481526020019060010190808311610775575b5050505050905060005b81518110156109b5576000600260008484815181106107b4576107b4611526565b602090810291909101810151825281810192909252604090810160002081516101008101835281546001600160a01b03908116825260018301541693810193909352600281015491830191909152600381015460608301526004810180546080840191906108219061129b565b80601f016020809104026020016040519081016040528092919081815260200182805461084d9061129b565b801561089a5780601f1061086f5761010080835404028352916020019161089a565b820191906000526020600020905b81548152906001019060200180831161087d57829003601f168201915b505050505081526020016005820180546108b39061129b565b80601f01602080910402602001604051908101604052809291908181526020018280546108df9061129b565b801561092c5780601f106109015761010080835404028352916020019161092c565b820191906000526020600020905b81548152906001019060200180831161090f57829003601f168201915b505050918352505060068201546020820152600782015460409091019060ff16600381111561095d5761095d6110ea565b600381111561096e5761096e6110ea565b905250905060028160e00151600381111561098b5761098b6110ea565b036109a257606081015161099f908661153c565b94505b50806109ad8161124f565b915050610793565b506127106109c4846064611268565b6109ce919061154f565b915050915091565b6000546001600160a01b03163314610a0157604051634755657960e01b815260040160405180910390fd5b6001600160a01b038116610a285760405163e6c4247b60e01b815260040160405180910390fd5b600080546001600160a01b0319166001600160a01b0392909216919091179055565b60046020528160005260406000208181548110610a6657600080fd5b90600052602060002001600091509150505481565b60036020528160005260406000208181548110610a6657600080fd5b6002602081905260009182526040909120805460018201549282015460038301546004840180546001600160a01b0394851696909416949293919291610adc9061129b565b80601f0160208091040260200160405190810160405280929190818152602001828054610b089061129b565b8015610b555780601f10610b2a57610100808354040283529160200191610b55565b820191906000526020600020905b815481529060010190602001808311610b3857829003601f168201915b505050505090806005018054610b6a9061129b565b80601f0160208091040260200160405190810160405280929190818152602001828054610b969061129b565b8015610be35780601f10610bb857610100808354040283529160200191610be3565b820191906000526020600020905b815481529060010190602001808311610bc657829003601f168201915b50505050600683015460079093015491929160ff16905088565b610c05610e60565b60008281526002602081815260409283902083516101008101855281546001600160a01b03908116825260018301541692810192909252918201549281019290925260038101546060830152600481018054608084019190610c669061129b565b80601f0160208091040260200160405190810160405280929190818152602001828054610c929061129b565b8015610cdf5780601f10610cb457610100808354040283529160200191610cdf565b820191906000526020600020905b815481529060010190602001808311610cc257829003601f168201915b50505050508152602001600582018054610cf89061129b565b80601f0160208091040260200160405190810160405280929190818152602001828054610d249061129b565b8015610d715780601f10610d4657610100808354040283529160200191610d71565b820191906000526020600020905b815481529060010190602001808311610d5457829003601f168201915b505050918352505060068201546020820152600782015460409091019060ff166003811115610da257610da26110ea565b6003811115610db357610db36110ea565b90525092915050565b6000546001600160a01b03163314610de757604051634755657960e01b815260040160405180910390fd5b6001600160a01b038116610e0e5760405163e6c4247b60e01b815260040160405180910390fd5b600180546001600160a01b038381166001600160a01b0319831681179093556040519116919082907f37f6c561371bb449a598aaf7e5528fc87ad233e82669756cd67fec9c5f665a7b90600090a35050565b60405180610100016040528060006001600160a01b0316815260200160006001600160a01b03168152602001600081526020016000815260200160608152602001606081526020016000815260200160006003811115610ec257610ec26110ea565b905290565b80356001600160a01b0381168114610ede57600080fd5b919050565b60008083601f840112610ef557600080fd5b50813567ffffffffffffffff811115610f0d57600080fd5b602083019150836020828501011115610f2557600080fd5b9250929050565b600080600080600060808688031215610f4457600080fd5b610f4d86610ec7565b9450610f5b60208701610ec7565b935060408601359250606086013567ffffffffffffffff811115610f7e57600080fd5b610f8a88828901610ee3565b969995985093965092949392505050565b600060208284031215610fad57600080fd5b610fb682610ec7565b9392505050565b6020808252825182820181905260009190848201906040850190845b81811015610ff557835183529284019291840191600101610fd9565b50909695505050505050565b6000806000806060858703121561101757600080fd5b8435935060208501356004811061102d57600080fd5b9250604085013567ffffffffffffffff81111561104957600080fd5b61105587828801610ee3565b95989497509550505050565b6000806040838503121561107457600080fd5b61107d83610ec7565b946020939093013593505050565b60006020828403121561109d57600080fd5b5035919050565b6000815180845260005b818110156110ca576020818501810151868301820152016110ae565b506000602082860101526020601f19601f83011685010191505092915050565b634e487b7160e01b600052602160045260246000fd5b6004811061111e57634e487b7160e01b600052602160045260246000fd5b9052565b6001600160a01b0389811682528816602082015260408101879052606081018690526101006080820181905260009061115d838201886110a4565b905082810360a084015261117181876110a4565b9150508360c083015261118760e0830184611100565b9998505050505050505050565b602080825282516001600160a01b0316828201528201516000906111c360408401826001600160a01b03169052565b50604083015160608301526060830151608083015260808301516101008060a08501526111f46101208501836110a4565b915060a0850151601f198584030160c086015261121183826110a4565b92505060c085015160e085015260e085015161122f82860182611100565b5090949350505050565b634e487b7160e01b600052601160045260246000fd5b60006001820161126157611261611239565b5060010190565b808202811582820484141761127f5761127f611239565b92915050565b634e487b7160e01b600052604160045260246000fd5b600181811c908216806112af57607f821691505b6020821081036112cf57634e487b7160e01b600052602260045260246000fd5b50919050565b601f82111561131f57600081815260208120601f850160051c810160208610156112fc5750805b601f850160051c820191505b8181101561131b57828155600101611308565b5050505b505050565b815167ffffffffffffffff81111561133e5761133e611285565b6113528161134c845461129b565b846112d5565b602080601f831160018114611387576000841561136f5750858301515b600019600386901b1c1916600185901b17855561131b565b600085815260208120601f198616915b828110156113b657888601518255948401946001909101908401611397565b50858210156113d45787850151600019600388901b60f8161c191681555b5050505050600190811b01905550565b81835281816020850137506000828201602090810191909152601f909101601f19169091010190565b84815283602082015260606040820152600061142d6060830184866113e4565b9695505050505050565b67ffffffffffffffff83111561144f5761144f611285565b6114638361145d835461129b565b836112d5565b6000601f841160018114611497576000851561147f5750838201355b600019600387901b1c1916600186901b1783556114f1565b600083815260209020601f19861690835b828110156114c857868501358255602094850194600190920191016114a8565b50868210156114e55760001960f88860031b161c19848701351681555b505060018560011b0183555b5050505050565b6115028186611100565b61150f6020820185611100565b60606040820152600061142d6060830184866113e4565b634e487b7160e01b600052603260045260246000fd5b8082018082111561127f5761127f611239565b60008261156c57634e487b7160e01b600052601260045260246000fd5b50049056fea264697066735822122047579ab2774a6b050e16373ac25d61fd58932a56af3434c180aa938a3fce61c464736f6c63430008140033",
  "linkReferences": {},
  "deployedLinkReferences": {}
}