{
  "_format": "hh-sol-artifact-1",
  "contractName": "AscendFactory",
  "sourceName": "contracts/AscendFactory.sol",
  "abi": [
    {
      "inputs": [],
      "name": "InvalidCheckInPeriod",
      "type": "error"
    },
    {
      "inputs": [],
      "name": "InvalidOwner",
      "type": "error"
    },
    {
      "anonymous": false,
      "inputs": [
        {
          "indexed": true,
          "internalType": "address",
          "name": "owner",
          "type": "address"
        },
        {
          "indexed": true,
          "internalType": "address",
          "name": "vaultAddress",
          "type": "address"
        },
        {
          "indexed": false,
          "internalType": "uint256",
          "name": "checkInPeriod",
          "type": "uint256"
        },
        {
          "indexed": false,
          "internalType": "uint256",
          "name": "gracePeriod",
          "type": "uint256"
        },
        {
          "indexed": false,
          "internalType": "uint256",
          "name": "vaultIndex",
          "type": "uint256"
        }
      ],
      "name": "VaultCreated",
      "type": "event"
    },
    {
      "inputs": [],
      "name": "DEFAULT_CHECK_IN_PERIOD",
      "outputs": [
        {
          "internalType": "uint256",
          "name": "",
          "type": "uint256"
        }
      ],
      "stateMutability": "view",
      "type": "function"
    },
    {
      "inputs": [],
      "name": "DEFAULT_GRACE_PERIOD",
      "outputs": [
        {
          "internalType": "uint256",
          "name": "",
          "type": "uint256"
        }
      ],
      "stateMutability": "view",
      "type": "function"
    },
    {
      "inputs": [
        {
          "internalType": "uint256",
          "name": "",
          "type": "uint256"
        }
      ],
      "name": "allVaults",
      "outputs": [
        {
          "internalType": "address",
          "name": "",
          "type": "address"
        }
      ],
      "stateMutability": "view",
      "type": "function"
    },
    {
      "inputs": [],
      "name": "createVault",
      "outputs": [
        {
          "internalType": "address",
          "name": "vaultAddress",
          "type": "address"
        }
      ],
      "stateMutability": "nonpayable",
      "type": "function"
    },
    {
      "inputs": [
        {
          "internalType": "uint256",
          "name": "_checkInPeriod",
          "type": "uint256"
        },
        {
          "internalType": "uint256",
          "name": "_gracePeriod",
          "type": "uint256"
        }
      ],
      "name": "createVaultWithParams",
      "outputs": [
        {
          "internalType": "address",
          "name": "vaultAddress",
          "type": "address"
        }
      ],
      "stateMutability": "nonpayable",
      "type": "function"
    },
    {
      "inputs": [],
      "name": "getTotalVaults",
      "outputs": [
        {
          "internalType": "uint256",
          "name": "",
          "type": "uint256"
        }
      ],
      "stateMutability": "view",
      "type": "function"
    },
    {
      "inputs": [
        {
          "internalType": "address",
          "name": "_user",
          "type": "address"
        }
      ],
      "name": "getUserVaultCount",
      "outputs": [
        {
          "internalType": "uint256",
          "name": "",
          "type": "uint256"
        }
      ],
      "stateMutability": "view",
      "type": "function"
    },
    {
      "inputs": [
        {
          "internalType": "address",
          "name": "_user",
          "type": "address"
        }
      ],
      "name": "getUserVaults",
      "outputs": [
        {
          "internalType": "address[]",
          "name": "",
          "type": "address[]"
        }
      ],
      "stateMutability": "view",
      "type": "function"
    },
    {
      "inputs": [
        {
          "internalType": "uint256",
          "name": "_index",
          "type": "uint256"
        }
      ],
      "name": "getVaultAtIndex",
      "outputs": [
        {
          "internalType": "address",
          "name": "",
          "type": "address"
        }
      ],
      "stateMutability": "view",
      "type": "function"
    },
    {
      "inputs": [
        {
          "internalType": "address",
          "name": "",
          "type": "address"
        },
        {
          "internalType": "uint256",
          "name": "",
          "type": "uint256"
        }
      ],
      "name": "userVaults",
      "outputs": [
        {
          "internalType": "address",
          "name": "",
          "type": "address"
        }
      ],
      "stateMutability": "view",
      "type": "function"
    }
  ],
  "bytecode": "0x608060405234801561001057600080fd5b50611c0b806100206000396000f3fe608060405234801561001057600080fd5b506004361061009e5760003560e01c8063828edbe811610066578063828edbe8146101055780639094a91e1461012e5780639c841fef14610141578063e7f3c69c14610154578063fc6866911461017457600080fd5b80630ce44e3a146100a35780633f11f25d146100d35780634c49fab8146100eb5780635486f100146100f55780635d12928b146100fd575b600080fd5b6100b66100b1366004610458565b610187565b6040516001600160a01b0390911681526020015b60405180910390f35b6100dd62278d0081565b6040519081526020016100ca565b6100dd62093a8081565b6000546100dd565b6100b6610201565b6100dd61011336600461048d565b6001600160a01b031660009081526001602052604090205490565b6100b661013c366004610458565b610218565b6100b661014f3660046104af565b610242565b61016761016236600461048d565b61027a565b6040516100ca91906104d9565b6100b6610182366004610526565b6102f0565b6000805482106101d35760405162461bcd60e51b8152602060048201526013602482015272496e646578206f7574206f6620626f756e647360681b604482015260640160405180910390fd5b600082815481106101e6576101e6610548565b6000918252602090912001546001600160a01b031692915050565b600061021362278d0062093a806102f0565b905090565b6000818154811061022857600080fd5b6000918252602090912001546001600160a01b0316905081565b6001602052816000526040600020818154811061025e57600080fd5b6000918252602090912001546001600160a01b03169150829050565b6001600160a01b0381166000908152600160209081526040918290208054835181840281018401909452808452606093928301828280156102e457602002820191906000526020600020905b81546001600160a01b031681526001909101906020018083116102c6575b50505050509050919050565b60008260000361031357604051630491c31d60e21b815260040160405180910390fd5b33610331576040516349e27cff60e01b815260040160405180910390fd5b60003384846040516103429061044b565b6001600160a01b03909316835260208301919091526040820152606001604051809103906000f08015801561037b573d6000803e3d6000fd5b5060008054600181810183557f290decd9548b62a8d60345a988386fc84ba6bc95484008f6362f93160ef3e56390910180546001600160a01b0385166001600160a01b03199182168117909255338085526020848152604086208054808701825590875290862001805490921683179091559254939550859450927fb9dc9ef27035dc036fc2a485f5e363db851c2568de0c4f98434b32eafd8ff06a91889188916104259161055e565b6040805193845260208401929092529082015260600160405180910390a3505b92915050565b6116568061058083390190565b60006020828403121561046a57600080fd5b5035919050565b80356001600160a01b038116811461048857600080fd5b919050565b60006020828403121561049f57600080fd5b6104a882610471565b9392505050565b600080604083850312156104c257600080fd5b6104cb83610471565b946020939093013593505050565b6020808252825182820181905260009190848201906040850190845b8181101561051a5783516001600160a01b0316835292840192918401916001016104f5565b50909695505050505050565b6000806040838503121561053957600080fd5b50508035926020909101359150565b634e487b7160e01b600052603260045260246000fd5b8181038181111561044557634e487b7160e01b600052601160045260246000fdfe60e060405234801561001057600080fd5b5060405161165638038061165683398101604081905261002f916100a3565b60016000556001600160a01b03831661005b5760405163e6c4247b60e01b815260040160405180910390fd5b8160000361007c576040516359b3d7b760e01b815260040160405180910390fd5b6001600160a01b0390921660805260a05260c052426001556002805460ff191690556100e6565b6000806000606084860312156100b857600080fd5b83516001600160a01b03811681146100cf57600080fd5b602085015160409095015190969495509392505050565b60805160a05160c0516114d861017e600039600081816102c90152818161043901528181610b93015261110901526000818161030b0152818161045a01528181610bb4015261112a01526000818161021b01528181610383015281816103ee015281816106df0152818161091601528181610a2b01528181610a5201528181610b2d01528181610bfd0152610e4601526114d86000f3fe6080604052600436106100f75760003560e01c8063901d23901161008a578063a571409911610059578063a5714099146102f9578063d3d7c0021461032d578063dac6270d1461034d578063db78dabd1461036257600080fd5b8063901d239014610255578063913b722c1461027557806396074e7014610297578063a06db7dc146102b757600080fd5b80637d90c55b116100c65780637d90c55b146101b05780637fec8d38146101df57806387729fc8146101f45780638da5cb5b1461020957600080fd5b8063183ff0851461013957806343a2a0d51461015057806359633a1c146101705780636ff1c9bc1461019057600080fd5b36610134576040513481526000907fbc7c8a4d8049a3f99a02f2a20640c206a2e4d3f2fa54fd20da9f01fda3620cda9060200160405180910390a2005b600080fd5b34801561014557600080fd5b5061014e610378565b005b34801561015c57600080fd5b5061014e61016b36600461131b565b6104a4565b34801561017c57600080fd5b5061014e61018b36600461131b565b6106d4565b34801561019c57600080fd5b5061014e6101ab36600461131b565b61090b565b3480156101bc57600080fd5b506002546101ca9060ff1681565b60405190151581526020015b60405180910390f35b3480156101eb57600080fd5b5061014e610aca565b34801561020057600080fd5b506101ca610b7d565b34801561021557600080fd5b5061023d7f000000000000000000000000000000000000000000000000000000000000000081565b6040516001600160a01b0390911681526020016101d6565b34801561026157600080fd5b5061014e61027036600461133f565b610bf2565b34801561028157600080fd5b5061028a610db4565b6040516101d6919061136b565b3480156102a357600080fd5b5061014e6102b236600461133f565b610e3b565b3480156102c357600080fd5b506102eb7f000000000000000000000000000000000000000000000000000000000000000081565b6040519081526020016101d6565b34801561030557600080fd5b506102eb7f000000000000000000000000000000000000000000000000000000000000000081565b34801561033957600080fd5b506102eb61034836600461131b565b611080565b34801561035957600080fd5b506102eb6110f1565b34801561036e57600080fd5b506102eb60015481565b336001600160a01b037f000000000000000000000000000000000000000000000000000000000000000016146103c157604051635fc483c560e01b815260040160405180910390fd5b60025460ff16156103e557604051638765d69f60e01b815260040160405180910390fd5b426001819055507f00000000000000000000000000000000000000000000000000000000000000006001600160a01b03167fdddb6e14f7f2101397a6526aab95e964de7f1f44ed06aa47a1c9a0e6b99244567f00000000000000000000000000000000000000000000000000000000000000007f000000000000000000000000000000000000000000000000000000000000000060015461048691906113e5565b61049091906113e5565b6040519081526020015b60405180910390a2565b60025460ff166104c757604051631725eecb60e21b815260040160405180910390fd5b6104cf611181565b6001600160a01b0381166104f65760405163e6c4247b60e01b815260040160405180910390fd5b60035460000361051957604051630a6e387f60e31b815260040160405180910390fd5b6040516370a0823160e01b815230600482015281906000906001600160a01b038316906370a0823190602401602060405180830381865afa158015610562573d6000803e3d6000fd5b505050506040513d601f19601f8201168201806040525081019061058691906113f8565b9050806000036105a9576040516318f5992f60e21b815260040160405180910390fd5b60005b6003548110156106c4576000600382815481106105cb576105cb611411565b600091825260209182902060408051606081018252600390930290910180546001600160a01b0316835260018101549383019390935260029092015460ff16158015928201839052909250610624575060008160200151115b156106b157600061271082602001518561063e9190611427565b610648919061143e565b905080156106af578151610667906001600160a01b03871690836111ab565b81600001516001600160a01b03167f26536799ace2c3dbe12e638ec3ade6b4173dcf1289be0a58d51a5003015649bd826040516106a691815260200190565b60405180910390a25b505b50806106bc81611460565b9150506105ac565b5050506106d16001600055565b50565b336001600160a01b037f0000000000000000000000000000000000000000000000000000000000000000161461071d57604051635fc483c560e01b815260040160405180910390fd5b60025460ff161561074157604051638765d69f60e01b815260040160405180910390fd5b6001600160a01b0381166000908152600460205260408120549081900361077b5760405163694f351f60e01b815260040160405180910390fd5b6000610788600183611479565b60035490915060009061079d90600190611479565b905080821461087a576000600382815481106107bb576107bb611411565b600091825260209182902060408051606081018252600393840290920180546001600160a01b0316835260018101549483019490945260029093015460ff16151592810192909252805491925082918590811061081a5761081a611411565b6000918252602080832084516003939093020180546001600160a01b0319166001600160a01b039384161781558482015160018201556040948501516002909101805460ff19169115159190911790559351168152600490925290208390555b600380548061088b5761088b61148c565b6000828152602080822060036000199094019384020180546001600160a01b031916815560018101839055600201805460ff19169055919092556001600160a01b038616808352600490915260408083208390555190917f72977dad29432f655f11c2f0e72ef5124bb9ade7a512fb7a43a9f504df22342891a250505050565b336001600160a01b037f0000000000000000000000000000000000000000000000000000000000000000161461095457604051635fc483c560e01b815260040160405180910390fd5b60025460ff161561097857604051638765d69f60e01b815260040160405180910390fd5b610980611181565b6001600160a01b0381166109a75760405163e6c4247b60e01b815260040160405180910390fd5b6040516370a0823160e01b815230600482015281906000906001600160a01b038316906370a0823190602401602060405180830381865afa1580156109f0573d6000803e3d6000fd5b505050506040513d601f19601f82011682018060405250810190610a1491906113f8565b90508015610abe57610a506001600160a01b0383167f0000000000000000000000000000000000000000000000000000000000000000836111ab565b7f00000000000000000000000000000000000000000000000000000000000000006001600160a01b0316836001600160a01b03167f3ab9db27a4cdd8c603a752b62d5fbd93b4b3509fe2596708e9688e42bbac357683604051610ab591815260200190565b60405180910390a35b50506106d16001600055565b60025460ff1615610aee57604051638765d69f60e01b815260040160405180910390fd5b610af6610b7d565b610b1357604051633376277360e11b815260040160405180910390fd5b6002805460ff191660011790556040516001600160a01b037f000000000000000000000000000000000000000000000000000000000000000016907ffcc4435f9402aa94f1c01d3817e46d762ab7474ea31e6240d7578ec6c633e83e9061049a9042815260200190565b60025460009060ff1615610b915750600090565b7f00000000000000000000000000000000000000000000000000000000000000007f0000000000000000000000000000000000000000000000000000000000000000600154610be091906113e5565b610bea91906113e5565b421015905090565b336001600160a01b037f00000000000000000000000000000000000000000000000000000000000000001614610c3b57604051635fc483c560e01b815260040160405180910390fd5b60025460ff1615610c5f57604051638765d69f60e01b815260040160405180910390fd5b6001600160a01b03821660009081526004602052604081205490819003610c995760405163694f351f60e01b815260040160405180910390fd5b811580610ca7575061271082115b15610cc5576040516359b3d7b760e01b815260040160405180910390fd5b6000610cd2600183611479565b9050600060038281548110610ce957610ce9611411565b90600052602060002090600302016001015490506000610d07611202565b905061271085610d178484611479565b610d2191906113e5565b1115610d405760405163155d7f5560e11b815260040160405180910390fd5b8460038481548110610d5457610d54611411565b906000526020600020906003020160010181905550856001600160a01b03167f73d60fa978f046c1ccf0f85c6247b34d322ad63d5184881ef2f10bf3c70dde2186604051610da491815260200190565b60405180910390a2505050505050565b60606003805480602002602001604051908101604052809291908181526020016000905b82821015610e32576000848152602090819020604080516060810182526003860290920180546001600160a01b031683526001808201548486015260029091015460ff161515918301919091529083529092019101610dd8565b50505050905090565b336001600160a01b037f00000000000000000000000000000000000000000000000000000000000000001614610e8457604051635fc483c560e01b815260040160405180910390fd5b60025460ff1615610ea857604051638765d69f60e01b815260040160405180910390fd5b6001600160a01b038216610ecf5760405163e6c4247b60e01b815260040160405180910390fd5b801580610edd575061271081115b15610efb576040516359b3d7b760e01b815260040160405180910390fd5b6001600160a01b03821660009081526004602052604090205415610f3257604051635e6379d760e01b815260040160405180910390fd5b6000610f3c611202565b9050612710610f4b83836113e5565b1115610f6a5760405163155d7f5560e11b815260040160405180910390fd5b604080516060810182526001600160a01b0385811680835260208084018781526001858701818152600380549283018155600081815297517fc2575a0e9e593c00f959f8c92f12db2869c3395a3b0502d05e2516446f71f85b93820293840180546001600160a01b031916919098161790965591517fc2575a0e9e593c00f959f8c92f12db2869c3395a3b0502d05e2516446f71f85c82015590517fc2575a0e9e593c00f959f8c92f12db2869c3395a3b0502d05e2516446f71f85d909101805460ff19169115159190911790559154818452600483529284902092909255915184815290917fe6b83177f11971ba30369bb38b914ffba97d5969a3c857b286fa8fdbb150b3ba910160405180910390a2505050565b6040516370a0823160e01b81523060048201526000906001600160a01b038316906370a0823190602401602060405180830381865afa1580156110c7573d6000803e3d6000fd5b505050506040513d601f19601f820116820180604052508101906110eb91906113f8565b92915050565b60025460009060ff16156111055750600090565b60007f00000000000000000000000000000000000000000000000000000000000000007f000000000000000000000000000000000000000000000000000000000000000060015461115691906113e5565b61116091906113e5565b905080421061117157600091505090565b61117b4282611479565b91505090565b6002600054036111a457604051633ee5aeb560e01b815260040160405180910390fd5b6002600055565b604080516001600160a01b038416602482015260448082018490528251808303909101815260649091019091526020810180516001600160e01b031663a9059cbb60e01b1790526111fd90849061128b565b505050565b600080805b600354811015611285576003818154811061122457611224611411565b600091825260209091206002600390920201015460ff1615611273576003818154811061125357611253611411565b9060005260206000209060030201600101548261127091906113e5565b91505b8061127d81611460565b915050611207565b50919050565b600080602060008451602086016000885af1806112ae576040513d6000823e3d81fd5b50506000513d915081156112c65780600114156112d3565b6001600160a01b0384163b155b1561130057604051635274afe760e01b81526001600160a01b038516600482015260240160405180910390fd5b50505050565b6001600160a01b03811681146106d157600080fd5b60006020828403121561132d57600080fd5b813561133881611306565b9392505050565b6000806040838503121561135257600080fd5b823561135d81611306565b946020939093013593505050565b602080825282518282018190526000919060409081850190868401855b828110156113c257815180516001600160a01b03168552868101518786015285015115158585015260609093019290850190600101611388565b5091979650505050505050565b634e487b7160e01b600052601160045260246000fd5b808201808211156110eb576110eb6113cf565b60006020828403121561140a57600080fd5b5051919050565b634e487b7160e01b600052603260045260246000fd5b80820281158282048414176110eb576110eb6113cf565b60008261145b57634e487b7160e01b600052601260045260246000fd5b500490565b600060018201611472576114726113cf565b5060010190565b818103818111156110eb576110eb6113cf565b634e487b7160e01b600052603160045260246000fdfea2646970667358221220dc4c9b520eaaf5ec7d82754cdfbe61a4dae06aa1e03908868e0d9a9c23b744f464736f6c63430008140033a2646970667358221220c369dc4497c6b4275473f7866c5b012fe25217c936bf84c9d2cc5098ca29ad2b64736f6c63430008140033",
  "linkReferences": {},
  "deployedLinkReferences": {}
}