{
  "_format": "hh-sol-artifact-1",
  "contractName": "PriceOracle",
  "sourceName": "contracts/PriceOracle.sol",
  "abi": [
    {
      "inputs": [],
      "stateMutability": "nonpayable",
      "type": "constructor"
    },
    {
      "inputs": [],
      "name": "InvalidAddress",
      "type": "error"
    },
    {
      "inputs": [],
      "name": "InvalidPrice",
      "type": "error"
    },
    {
      "inputs": [],
      "name": "OnlyAdmin",
      "type": "error"
    },
    {
      "inputs": [],
      "name": "PriceFeedNotSet",
      "type": "error"
    },
    {
      "inputs": [],
      "name": "StalePrice",
      "type": "error"
    },
    {
      "anonymous": false,
      "inputs": [
        {
          "indexed": true,
          "internalType": "address",
          "name": "oldAdmin",
          "type": "address"
        },
        {
          "indexed": true,
          "internalType": "address",
          "name": "newAdmin",
          "type": "address"
        }
      ],
      "name": "AdminTransferred",
      "type": "event"
    },
    {
      "anonymous": false,
      "inputs": [
        {
          "indexed": true,
          "internalType": "address",
          "name": "token",
          "type": "address"
        }
      ],
      "name": "PriceFeedRemoved",
      "type": "event"
    },
    {
      "anonymous": false,
      "inputs": [
        {
          "indexed": true,
          "internalType": "address",
          "name": "token",
          "type": "address"
        },
        {
          "indexed": true,
          "internalType": "address",
          "name": "priceFeed",
          "type": "address"
        }
      ],
      "name": "PriceFeedSet",
      "type": "event"
    },
    {
      "inputs": [],
      "name": "MAX_PRICE_AGE",
      "outputs": [
        {
          "internalType": "uint256",
          "name": "",
          "type": "uint256"
        }
      ],
      "stateMutability": "view",
      "type": "function"
    },
    {
      "inputs": [],
      "name": "MAX_PRICE_DEVIATION",
      "outputs": [
        {
          "internalType": "uint256",
          "name": "",
          "type": "uint256"
        }
      ],
      "stateMutability": "view",
      "type": "function"
    },
    {
      "inputs": [],
      "name": "admin",
      "outputs": [
        {
          "internalType": "address",
          "name": "",
          "type": "address"
        }
      ],
      "stateMutability": "view",
      "type": "function"
    },
    {
      "inputs": [
        {
          "internalType": "address",
          "name": "_token",
          "type": "address"
        }
      ],
      "name": "getPriceFeedDecimals",
      "outputs": [
        {
          "internalType": "uint8",
          "name": "decimals",
          "type": "uint8"
        }
      ],
      "stateMutability": "view",
      "type": "function"
    },
    {
      "inputs": [
        {
          "internalType": "address",
          "name": "_token",
          "type": "address"
        }
      ],
      "name": "getSafePrice",
      "outputs": [
        {
          "internalType": "uint256",
          "name": "price",
          "type": "uint256"
        },
        {
          "internalType": "bool",
          "name": "isValid",
          "type": "bool"
        }
      ],
      "stateMutability": "view",
      "type": "function"
    },
    {
      "inputs": [
        {
          "internalType": "address",
          "name": "_token",
          "type": "address"
        }
      ],
      "name": "getTokenPrice",
      "outputs": [
        {
          "internalType": "uint256",
          "name": "price",
          "type": "uint256"
        }
      ],
      "stateMutability": "view",
      "type": "function"
    },
    {
      "inputs": [
        {
          "internalType": "address",
          "name": "_token",
          "type": "address"
        }
      ],
      "name": "hasPriceFeed",
      "outputs": [
        {
          "internalType": "bool",
          "name": "",
          "type": "bool"
        }
      ],
      "stateMutability": "view",
      "type": "function"
    },
    {
      "inputs": [
        {
          "internalType": "address",
          "name": "",
          "type": "address"
        }
      ],
      "name": "priceFeeds",
      "outputs": [
        {
          "internalType": "address",
          "name": "",
          "type": "address"
        }
      ],
      "stateMutability": "view",
      "type": "function"
    },
    {
      "inputs": [
        {
          "internalType": "address",
          "name": "_token",
          "type": "address"
        }
      ],
      "name": "removePriceFeed",
      "outputs": [],
      "stateMutability": "nonpayable",
      "type": "function"
    },
    {
      "inputs": [
        {
          "internalType": "address",
          "name": "_token",
          "type": "address"
        },
        {
          "internalType": "address",
          "name": "_priceFeed",
          "type": "address"
        }
      ],
      "name": "setPriceFeed",
      "outputs": [],
      "stateMutability": "nonpayable",
      "type": "function"
    },
    {
      "inputs": [
        {
          "internalType": "address",
          "name": "_newAdmin",
          "type": "address"
        }
      ],
      "name": "transferAdmin",
      "outputs": [],
      "stateMutability": "nonpayable",
      "type": "function"
    }
  ],
  "bytecode": "0x608060405234801561001057600080fd5b50600080546001600160a01b03191633179055610840806100326000396000f3fe608060405234801561001057600080fd5b50600436106100a95760003560e01c806396f277b71161007157806396f277b7146101665780639d7f7e861461017d5780639dcb511a14610186578063d02641a0146101c7578063f851a440146101da578063fceb0024146101ed57600080fd5b80630b7983a2146100ae5780633c75f448146100f157806375829def1461011957806376e112861461012e5780638c8557d914610141575b600080fd5b6100dc6100bc366004610704565b6001600160a01b0390811660009081526001602052604090205416151590565b60405190151581526020015b60405180910390f35b6101046100ff366004610704565b610200565b604080519283529015156020830152016100e8565b61012c610127366004610704565b610301565b005b61012c61013c366004610726565b6103a3565b61015461014f366004610704565b610460565b60405160ff90911681526020016100e8565b61016f6107d081565b6040519081526020016100e8565b61016f611c2081565b6101af610194366004610704565b6001602052600090815260409020546001600160a01b031681565b6040516001600160a01b0390911681526020016100e8565b61016f6101d5366004610704565b61050a565b6000546101af906001600160a01b031681565b61012c6101fb366004610704565b610647565b6001600160a01b038082166000908152600160205260408120549091829116806102305750600093849350915050565b6000819050806001600160a01b031663feaf968c6040518163ffffffff1660e01b815260040160a060405180830381865afa92505050801561028f575060408051601f3d908101601f1916820190925261028c91810190610770565b60015b6102a0575060009485945092505050565b6102ac611c20426107c0565b82101580156102cd5750846001600160501b0316816001600160501b031610155b80156102d95750600084135b156102ef57509198600198509650505050505050565b506000998a9950975050505050505050565b6000546001600160a01b0316331461032c57604051634755657960e01b815260040160405180910390fd5b6001600160a01b0381166103535760405163e6c4247b60e01b815260040160405180910390fd5b600080546001600160a01b038381166001600160a01b0319831681178455604051919092169283917ff8ccb027dfcd135e000e9d45e6cc2d662578a8825d4c45b5e32e0adf67e79ec69190a35050565b6000546001600160a01b031633146103ce57604051634755657960e01b815260040160405180910390fd5b6001600160a01b03821615806103eb57506001600160a01b038116155b156104095760405163e6c4247b60e01b815260040160405180910390fd5b6001600160a01b0382811660008181526001602052604080822080546001600160a01b0319169486169485179055517fd2d8394cf7549a5ddbc2ba3dd7b2de8d53c891472d1f2907008ed6a10045fdae9190a35050565b6001600160a01b038082166000908152600160205260408120549091168061049b57604051637e68a04560e01b815260040160405180910390fd5b6000819050806001600160a01b031663313ce5676040518163ffffffff1660e01b8152600401602060405180830381865afa1580156104de573d6000803e3d6000fd5b505050506040513d601f19601f8201168201806040525081019061050291906107e7565b949350505050565b6001600160a01b038082166000908152600160205260408120549091168061054557604051637e68a04560e01b815260040160405180910390fd5b6000819050600080600080846001600160a01b031663feaf968c6040518163ffffffff1660e01b815260040160a060405180830381865afa15801561058e573d6000803e3d6000fd5b505050506040513d601f19601f820116820180604052508101906105b29190610770565b945094505093509350611c20426105c991906107c0565b8210156105e957604051630cd5fa0760e11b815260040160405180910390fd5b836001600160501b0316816001600160501b0316101561061b5760405162bfc92160e01b815260040160405180910390fd5b6000831361063b5760405162bfc92160e01b815260040160405180910390fd5b50909695505050505050565b6000546001600160a01b0316331461067257604051634755657960e01b815260040160405180910390fd5b6001600160a01b0381166106995760405163e6c4247b60e01b815260040160405180910390fd5b6001600160a01b03811660008181526001602052604080822080546001600160a01b0319169055517ffd58461c4683df397133c7e91fe2aa71559919b405f9e09c9c3af7e875f54e3b9190a250565b80356001600160a01b03811681146106ff57600080fd5b919050565b60006020828403121561071657600080fd5b61071f826106e8565b9392505050565b6000806040838503121561073957600080fd5b610742836106e8565b9150610750602084016106e8565b90509250929050565b80516001600160501b03811681146106ff57600080fd5b600080600080600060a0868803121561078857600080fd5b61079186610759565b94506020860151935060408601519250606086015191506107b460808701610759565b90509295509295909350565b818103818111156107e157634e487b7160e01b600052601160045260246000fd5b92915050565b6000602082840312156107f957600080fd5b815160ff8116811461071f57600080fdfea2646970667358221220c6a4367871e924c8bc855a8678cae985b93b1c757afad7b4148c1f4b1947142764736f6c63430008140033",
  "linkReferences": {},
  "deployedLinkReferences": {}
}